{
  "txid": "fd0f44cd6eb03752e3e0153725a6b6c3ebf117c9b2536936a09b5780b72e2e64",
  "version": 1,
  "locktime": 0,
  "vin": [
    {
      "txid": "8c4f7dfb24048195a277749dc2a8d0e46f5cd738750a447a01d27540b33f25c5",
      "vout": 14,
      "prevout": {
        "scriptpubkey": "00140c53e64f7c954323052cb313e20a7dc16e51d3a3",
        "scriptpubkey_asm": "OP_0 OP_PUSHBYTES_20 0c53e64f7c954323052cb313e20a7dc16e51d3a3",
        "scriptpubkey_type": "v0_p2wpkh",
        "scriptpubkey_address": "bc1qp3f7vnmuj4pjxpfvkvf7yznac9h9r5arlv4fpv",
        "value": 209197012
      },
      "scriptsig": "",
      "scriptsig_asm": "",
      "witness": [
        "30440220119201248144d98d3c3862790455d61d7882c95ac7d5f7636b9242e3dc2edfac022047887d0b07ac7198d81abe5f20e2d0bda2354c397c4991f10e717ff285b7c3c001",
        "02e83973f57bae5ac01da67e7fe955822d43fecfc637e38db71a787184a1ecdf27"
      ],
      "is_coinbase": false,
      "sequence": 4294967295
    }
  ],
  "vout": [
    {
      "scriptpubkey": "a9143577a2d656c4a1975a1a3d715960349586d5f77a87",
      "scriptpubkey_asm": "OP_HASH160 OP_PUSHBYTES_20 3577a2d656c4a1975a1a3d715960349586d5f77a OP_EQUAL",
      "scriptpubkey_type": "p2sh",
      "scriptpubkey_address": "36Zj4AuKuXVzNzV4pqkqXiqdb6ZFgBmyJc",
      "value": 882740
    },
    {
      "scriptpubkey": "a914770bc5306a5fa33b6960fd9106b8e194fcaf069b87",
      "scriptpubkey_asm": "OP_HASH160 OP_PUSHBYTES_20 770bc5306a5fa33b6960fd9106b8e194fcaf069b OP_EQUAL",
      "scriptpubkey_type": "p2sh",
      "scriptpubkey_address": "3CYUSBe9DqJFob22pSKTMCyYxrYhp8hXfc",
      "value": 278195
    },
    {
      "scriptpubkey": "a91454c52ea8c6d583f6e6b9a768a0af93d31d65804587",
      "scriptpubkey_asm": "OP_HASH160 OP_PUSHBYTES_20 54c52ea8c6d583f6e6b9a768a0af93d31d658045 OP_EQUAL",
      "scriptpubkey_type": "p2sh",
      "scriptpubkey_address": "39REu7zMnjnUYwFd3Cp7PAt3xBemDDKswE",
      "value": 2170599
    },
    {
      "scriptpubkey": "76a914541a8d90f600fce11f465db8118e044eaac08fba88ac",
      "scriptpubkey_asm": "OP_DUP OP_HASH160 OP_PUSHBYTES_20 541a8d90f600fce11f465db8118e044eaac08fba OP_EQUALVERIFY OP_CHECKSIG",
      "scriptpubkey_type": "p2pkh",
      "scriptpubkey_address": "18fha3nh6JHuhfy8mwNwT7j9NQWTsZdamW",
      "value": 514775
    },
    {
      "scriptpubkey": "76a914ee27ba0d421eec2cdc0be6981ca4c2b4f2ec68f888ac",
      "scriptpubkey_asm": "OP_DUP OP_HASH160 OP_PUSHBYTES_20 ee27ba0d421eec2cdc0be6981ca4c2b4f2ec68f8 OP_EQUALVERIFY OP_CHECKSIG",
      "scriptpubkey_type": "p2pkh",
      "scriptpubkey_address": "1NiFQvLhbpRa9ZZ42cbfnudqjQ8za6eNtX",
      "value": 324572
    },
    {
      "scriptpubkey": "76a9145a3a27253615acd7449d051379cb0f63b6ac755b88ac",
      "scriptpubkey_asm": "OP_DUP OP_HASH160 OP_PUSHBYTES_20 5a3a27253615acd7449d051379cb0f63b6ac755b OP_EQUALVERIFY OP_CHECKSIG",
      "scriptpubkey_type": "p2pkh",
      "scriptpubkey_address": "19E5UoPkkdUvAJFqXczFdeo9q3VLUHLQEY",
      "value": 44109
    },
    {
      "scriptpubkey": "0014a93fb03c3cb5245244784448f78c99762217139f",
      "scriptpubkey_asm": "OP_0 OP_PUSHBYTES_20 a93fb03c3cb5245244784448f78c99762217139f",
      "scriptpubkey_type": "v0_p2wpkh",
      "scriptpubkey_address": "bc1q4ylmq0puk5j9y3rcg3y00ryewc3pwyuldp8qe0",
      "value": 159138
    },
    {
      "scriptpubkey": "0014f7da34004dbd38b47969485b526b265cccf52dd5",
      "scriptpubkey_asm": "OP_0 OP_PUSHBYTES_20 f7da34004dbd38b47969485b526b265cccf52dd5",
      "scriptpubkey_type": "v0_p2wpkh",
      "scriptpubkey_address": "bc1q7ldrgqzdh5utg7tffpd4y6extnx02tw4vkj9g6",
      "value": 794077
    },
    {
      "scriptpubkey": "00140c53e64f7c954323052cb313e20a7dc16e51d3a3",
      "scriptpubkey_asm": "OP_0 OP_PUSHBYTES_20 0c53e64f7c954323052cb313e20a7dc16e51d3a3",
      "scriptpubkey_type": "v0_p2wpkh",
      "scriptpubkey_address": "bc1qp3f7vnmuj4pjxpfvkvf7yznac9h9r5arlv4fpv",
      "value": 204023479
    }
  ],
  "size": 451,
  "weight": 1477,
  "fee": 5328,
  "status": {
    "confirmed": true,
    "block_height": 834460,
    "block_hash": "00000000000000000000484a79b643b2524bbce82e5d8a442013fa5b8905ed98",
    "block_time": 1710307468
  },
  "hex": "01000000000101c5253fb34075d2017a440a7538d75c6fe4d0a8c29d7477a295810424fb7d4f8c0e00000000ffffffff0934780d000000000017a9143577a2d656c4a1975a1a3d715960349586d5f77a87b33e04000000000017a914770bc5306a5fa33b6960fd9106b8e194fcaf069b87e71e21000000000017a91454c52ea8c6d583f6e6b9a768a0af93d31d65804587d7da0700000000001976a914541a8d90f600fce11f465db8118e044eaac08fba88acdcf30400000000001976a914ee27ba0d421eec2cdc0be6981ca4c2b4f2ec68f888ac4dac0000000000001976a9145a3a27253615acd7449d051379cb0f63b6ac755b88aca26d020000000000160014a93fb03c3cb5245244784448f78c99762217139fdd1d0c0000000000160014f7da34004dbd38b47969485b526b265cccf52dd5b726290c000000001600140c53e64f7c954323052cb313e20a7dc16e51d3a3024730440220119201248144d98d3c3862790455d61d7882c95ac7d5f7636b9242e3dc2edfac022047887d0b07ac7198d81abe5f20e2d0bda2354c397c4991f10e717ff285b7c3c0012102e83973f57bae5ac01da67e7fe955822d43fecfc637e38db71a787184a1ecdf2700000000"
}