{
  "txid": "fd3617676ee8f8aa39c079ca7d90194b87ff560ee44cedde57bfb8fdedefcc11",
  "version": 2,
  "locktime": 0,
  "vin": [
    {
      "txid": "063ff9ad7ecf014ffc549b07617e6c878751df68bbe95975076286dc8dbf746f",
      "vout": 0,
      "prevout": {
        "scriptpubkey": "51207daba59d6d77d95423699a872b3170e99dd1c9751d733d5e9067492896f2bb4c",
        "scriptpubkey_asm": "OP_PUSHNUM_1 OP_PUSHBYTES_32 7daba59d6d77d95423699a872b3170e99dd1c9751d733d5e9067492896f2bb4c",
        "scriptpubkey_type": "v1_p2tr",
        "scriptpubkey_address": "bc1p0k46t8tdwlv4ggmfn2rjkvtsaxwarjt4r4en6h5svayj39hjhdxqhzf2em",
        "value": 18375
      },
      "scriptsig": "",
      "scriptsig_asm": "",
      "witness": [
        "a74cb7ec1110051129f35f2d564f5f1dc3deca19c5d05c54e77e0dd660682a086cc865c16356fe804dd97b9e040397eae4045613403945ca75aeecfe74ed1fa5",
        "205ca619d3eefe29b3d2652ce8631da1d5d5be85169baa6bfdcdfa9dad47e54c94ac0063036f7264010109696d6167652f706e67004d080289504e470d0a1a0a0000000d494844520000025800000258080300000089b868ee0000002a504c5445040303bd895a5b8697b9690cae7a4bb26205a174478b64402d2c271a19173d4f544d717fb66d196d817e0dee8d3c000000097048597300000b1300000b1301009a9c1800000fce49444154789ceddd8b52e3c8ba446153edb175a1deff75277ca30149b44c29f557a5d7d73dd3333b4e6c74e4454a3678734880c041f15f0a101624080b12840509c28204614182b020415890202c48101624080b12840509c28204614182b020415890202c48101624080b12840509c28204614182b020415890202c48101624080b12840509c28204614182b020415890202c48101624080b12840509c28204614182b0101856aff9e078f5b046f971c00c974248101624080b12840509c28204614182b020415890202c48101624080b12840509c28204614182b020415890202c48101624080b12840509c28204614182b02041589020ac34aefe85f508ab3bac9662f5ab0fb482ff4984e89315af9db00ecd1c296111964a056d071b9ad981c36a5c0a2bd0cea5b027ac96b413d681b05ad24e583d61b5847b2c89e8cfc2782c960461b513d6814b614bda09ab27ac96708f2511fd59188fc59220ac76c23a70296c493b61f584d512eeb124a23f0be3b1581284d54e58072e852d6927ac9eb05ac23d9644f467613c16eba5c21abaf5fab5bf86b6c34d08023a7029dcf502b55ed776583d619523ac29166b038435c5626d80b0a658ac0d10d6148bb501c29a62b1364058532cd606086b8ac5da00614db1581b20ac29166b038435c5626d80b0a658ac0d10d6148bb501c29a62b1364058532cd606086b8ac5da00614db1581b20ac29166b038435c5626d80b0a69ef826ec14ae8243080e6bfe6d1bb3ebd0171acbcec913ff9fa670151c427058f3141ffe5018d66cecc338278523acc6c31a539d086be1bc105619c25a382f845586b016ce0b619521ac85f3425865086be1bc105619c25a382f845586b016ce0b619521ac85f3425865086be1bc105619c25a382f845586b016ce0b619521ac85f3425865086be1bc105619c25a382f845586b016ce0b619521ac85f3425865086be1bc105619c25a382f0a439997fb0ed2f5ef2698fdd110b38627dea3d0ccf7bc2b388775503cb2ebadffd112ebbb26ac5284b5705e5a31a63a11d6c27969c598ea44580be7a51563aa13612d9c97568ca94e84b5705e5a31a63a11d6c27969c598ea44580be7a51563aa13612d9c97568ca94e84b5705e5a31a63a11d6c27969c598ea44580be7a51563aa13612d9c97568ca94e84b5705e5a31a63a11d6c27969c598ea44580be7a51563aa13612d9c97568ca94e84b5705e5a31a63a11d6c27969c598ea44580be7a51563aa9341584ffc88996eb5432b86719cfe1e7ddffe55fc9325d69f9b6d1e202b430a47588e4d080206dfb0c6d273c36215300e8b4b6124e3b058ac48c661b158918cc362b1221987c56245320e8bc58a641c168b15c9382c162b9271582c5624e3b058ac48c661b158918cc362b1221987c56245320e8bc58a641c168b15c9382c162b9271582c5624e3b08a176bfd4f02d9e6b1b032a470d52e16b60e6bfde77aefbc58d87cb12cc262b122b1589060b120c1624182c582048b0509160b122c1624582c48b0589060b120c1624182c582048b0509160b122c1624582c48b05890305eacf1f2e31d86c96fcd79c437dd3863b0086b1edf09df04c28204614182b020415890202c48101624080b12840509c28204614182b020415890202c48101624080b12840509c28204614182b06013d6b8fa37dff3deacfdc31a0b0f8e37533481b0204158202c2e85ed60b120415890202c48101624080b12840509c28204614182b020415890202c48101624080b12840509c2c2eb8575e8e6684e045e292c348bb06ea721fa7168593ff7c35116de63c56255e07c2a71deef40930897428df35b897353573dc2dad1b991b058acc69c1b098bc5fae1dc1c2a746e242c16ab31e746c262b11a736e242c16ab31e746c262b11a736e242c166b1937ef0558acc69c59ac67f04568b7b07a5e796fcbb991b0b8c76accb991b058ac1fcecda142e746c262b11a736e242c16ab31e746c262b11a736e242c16ab31e746c262b11a736e24ac4a162b0dabed766a164e4d080258b79b7e4ed70deb7e7773611dcf73d6bf796e987d8b84ea7d135b84d5cc6bf4fddb5e4a5fed7813ecd890c21116614910166149101661491016614910166149101661491016614910166149101661491016614910166149101661491016614910166149101661491016614910166149101661491016614910564361756bf13def3abda76ed5af422c1624080b12840509c28204614182b020415890202c48101624080b12840509c28204614182b020415890202c48101624080b12840509c28204616da13b9f8782df3bfed89b73a1d51f89b0b6d0edf5709522ac1a7e96ce7a8435c1626d81b026086b0b84354158af18d6e9977f71f3beb3d6c2fabdd51f89c5da30acd3effe46582ff6bf36b31e8b35b1450084d55658a7bf53a93b52c28a0eebf2101f42eeb14e4fdfba13564858bfbec56ae3e6fd4458bb6beb525862f547e252b805c29a20acd70bebf4f54a7cbf1e7ff9e3eb7fc6628587f5cbdbace84be169a6a3bfffc2cd7b6c58bf7d065f4158ebadfe485c0a5fef52f8d9dc67c3c26708cf0af7d75a58a7b5033bf93f5afd9158accdc3fac52b59870a2e85a7f992befd87ed8595a7bff85ae1e65eee1e2bcfff7c8ed5ba43a86e58ed7c9ab1df910e6507da5c58a9f087d1ec773199d5affe09355d70585dd981ae3fd2aa17cb35ace3fdaf8f7fd8ef48bb270ef478fafbfbf1476b61bdd4623d1eadbf8fd77e47da3dfb19f02d4d0802add51f68832658ac5b581f7ffbe9afdb15e6982f8f523e1dafffb07358fdaae3bc7e06dc0ff3d3a1b616d68b2dd6f13257c7e3e561bb0ed77e47fadc813e0ef376a84f1de9064db0588fb0fab5b72eb71d78dc69ed1e56ffaf83ecff4eebdffbf6e7b6b592b07c16ebc70bcdfdf17abb8cc1f176a579cbc727ee5c8afdfb383f2fd6fd30dfae87f9dcdde0064db058d7b056ccd57d081e3370bb0c56f7acb0ff32add7c3fc38d8e6c2f259ac7f2576feb456f7bbe3889bf7ee9f9f0a8f69bd1fe2e9747a6a5b376882c5fa748ff5f9c19abdc83c5e77bccfd5933b50ecf3b12d1fe7e31eebfa6cf07a9cf9fa8c83c5dad9e4737f790c6eb72ed79c2e0b70bb29deef48bbb5c7f9f1f4f5f4f1678b6119bdf2fec363751b82c735f0fa1cfef476b9e1daef48bb8f435c3cce4fcf32eedb7abd27bc5c16db0bcbe01eebdb03f5f535d3af97c2eb33c1c753f8cb3fee77a4dd6c46cbcf0aaf4f073fee09db0bcb65b1fedea22cb9bd3c74bf1e3efd7015fb72703f8ed6fd1eeb7ed9befc7139d8d6c23258ac856bcaf7d1faf85ae1ed69e1ed7e6bbf23ed668afaf26ffdec3dd6dbe358577fa00d9a60b1ee617dfafb8f37efb7bbacc72d7cd4b7cdf4cb4d7d39d0db6b0e8f971c5a0bcb72b16637ecf6b5dd8f17b16eb75bfb1d69b77860dfffe536add757dc1fcf331a0ccbeb1eebfb247c1e87cbb3c2dbfdcac72b59fbbf40daff23aac762ddefad4d08026eff70fda3b5b00c16eb8917b41ff72e1f5fddddef48bb2f09fd74237f7f5678ff42c1e398577fa00d9a60b19efbb6998f571a1ebf2ab814def47edf9adcf8623df1bec2cb00bc1ddf8e5fec78a4fd0fbfbefecbacd51f688326582c541b56e38b85890d9a60b1506d582c969bb4015ec742ad61b1586ed206582cd41a168be5266d80c542ad61b1586ed206582cd41a168be5266d80c542ad61b1586ed206582cd41a168be5266d80c542ad61b1586ed206582cd41a168be526792cd6ec8f80e96749de7b83ef4c166bbeb6b237301dce6faf2cc5ab60b166115689148fc57294e2b1588e523c16cb518ac762394af1582c47291e8be528c563b11ca5782c96a3148fc57294e2b1588e523c16cb518ac762394af1582c47291e8be528c563b11ca5782c96a3148fc57294e2b1588e52bcb616ab5bedb5bfe77d9c3b2543da535b8bf584b75736c8ded565ba58845510569ff6c462391a2cc262b1aa335884c53d5675068bb058acea0c1661b158d5192cc262b1aa335884c5625567b0088bc5aace6011168b559dc1222c16ab3a8345582c5675068bb058acea0c1661b158d5192cc262b1aa335884c5625567b0088bc5aace6011168b559dc1222c16ab3a83f1621dffe9c753c3b72697f0082be5394ffc7892b993f0fefe5fd12fde4c6110d6acc2b0fe2b445813844558a54c2e85b358ac4084b5844b6111c2222c09c2222c09c2222c09c2224d08022c09c2222c09c2222c09c2222c09c2222c09c2222c09c2222c09c2222c09c2222c09c2222c09c2222c09c2222c09c2aa36acd9b77f74b1cec7b508abd6b08e7fe6947d576cb1eecf5aff8d73d29ef8d6e4796d87f527ef1a1161bdca62fd21ac4a2f852c56292e852c960461b1581284c5624910168b2541582c1661f1ac702d5e6ea8f4e5065ec72ac5a5907b2c09c262b124088bc592202c164b82b0582c09c262b124088bc592202c164b82b0582c09c29a5facd997f3f90ed20ac21a87619cfcea77fb92ce7fef65668f6aeeab72efabdf3a336f21ecd5de5fed6b85b3760ceb4f99f561bdc57a272cc252202cc292202cc292202cc292202cc292202cc292202cc292202cc292202cc292202cc292202cc292202cc292202cc292202cc292202cc292202cc292202cc292202cc292202cc29220ac8bae5fa98bfe9ef7d5ff9d7ccf7b0d6fa6582d4787d5b81cfd001296a71cdd156179cad15d1196a71cdd156179cad15d1196a71cdd156179cad15d1196a71cdd156179cad15d1196a71cdd156179cad15d1196a71cdd156179cad15d1196a71cdd156179cad15d1196a71cdd156179cad15d1196a71cdd156179cad15d1196a71cdd156179cad15d1196a71cdd156179cad15d1196a71cdd156179cad15d1196a71cdd156179cad15d1196a71cdd156179cad15d1196a71cdd156179cad15d1196a71cdd156179cad15d1196a71cdd15614d080279cad15d1196a71cdd156179cad15d1196a71cdd156179cad15d1196a71cdd156179cad15d1196a71cdd156179cad15d1196a71cdd156179cad15d1196a71cdd156179cad15d1196a71cdd156179cad15d1196a71cdd156179cad15d1196a71cdd156179cad15d1196a71cdd156179cad15d1196a71cdd156179cad15d1196a71cdd156179cad15d1196a71cdd156179cad15d1196a71cdd156179cad15dd51a567affafd0fb2bcbd10f5fbd619dca9ccfc7faa457621ad689b0829986c56245330d8bc58a661a168b15cd342c162b9a69582c5634d3b058ac68a661b158d14cc362b1a29986c56245330d8bc58a661a168b15cd342c162b9a69582c5634d3b058ac68a661b158d14cc362b1a29986c56245330d8bc58a661a168b15cd342c162b9a69582c5634d3b058ac68a661b158d14cc362b1a29986c56245330d8bc58a661a168b15cd342c162b9a69582c5634d3b058ac68a661b158d14cc362b1a29986c56245330d8bc58a661a168b15cd342c162b9a69582c5634d3b058ac68a661b158d14cc362b1a29986c56245330d8bc58a661a168b15cd342c162b9a69582c5634d3b058ac68a661b158d14cc362b1a29986c56245330d8bc58a661a168b15cd342c162b9a69582c5634d3b058ac68a661b158d14cc362b1a29986c56245330d8bc58a661a168b15cd342c162b9a69582c5634d3b058ac68a661b158d14cc362b152b0ff0147c512ad46daf2a46d0000000049454e44ae42608268",
        "c05ca619d3eefe29b3d2652ce8631da1d5d5be85169baa6bfdcdfa9dad47e54c94"
      ],
      "is_coinbase": false,
      "sequence": 4294967293
    }
  ],
  "vout": [
    {
      "scriptpubkey": "512092d0c4be49414c8ce960e04bd67b94f223e9ce71227bcb9ae8584d3d87f33a1e",
      "scriptpubkey_asm": "OP_PUSHNUM_1 OP_PUSHBYTES_32 92d0c4be49414c8ce960e04bd67b94f223e9ce71227bcb9ae8584d3d87f33a1e",
      "scriptpubkey_type": "v1_p2tr",
      "scriptpubkey_address": "bc1pjtgvf0jfg9xge6tqup9av7u57g37nnn3yfauhxhgtpxnmpln8g0qek58d9",
      "value": 600
    }
  ],
  "size": 4456,
  "weight": 4738,
  "fee": 17775,
  "status": {
    "confirmed": true,
    "block_height": 834460,
    "block_hash": "00000000000000000000484a79b643b2524bbce82e5d8a442013fa5b8905ed98",
    "block_time": 1710307468
  },
  "hex": "020000000001016f74bf8ddc8662077559e9bb68df5187876c7e61079b54fc4f01cf7eadf93f060000000000fdffffff01580200000000000022512092d0c4be49414c8ce960e04bd67b94f223e9ce71227bcb9ae8584d3d87f33a1e0340a74cb7ec1110051129f35f2d564f5f1dc3deca19c5d05c54e77e0dd660682a086cc865c16356fe804dd97b9e040397eae4045613403945ca75aeecfe74ed1fa5fda110205ca619d3eefe29b3d2652ce8631da1d5d5be85169baa6bfdcdfa9dad47e54c94ac0063036f7264010109696d6167652f706e67004d080289504e470d0a1a0a0000000d494844520000025800000258080300000089b868ee0000002a504c5445040303bd895a5b8697b9690cae7a4bb26205a174478b64402d2c271a19173d4f544d717fb66d196d817e0dee8d3c000000097048597300000b1300000b1301009a9c1800000fce49444154789ceddd8b52e3c8ba446153edb175a1deff75277ca30149b44c29f557a5d7d73dd3333b4e6c74e4454a3678734880c041f15f0a101624080b12840509c28204614182b020415890202c48101624080b12840509c28204614182b020415890202c48101624080b12840509c28204614182b020415890202c48101624080b12840509c28204614182b020415890202c48101624080b12840509c28204614182b0101856aff9e078f5b046f971c00c974248101624080b12840509c28204614182b020415890202c48101624080b12840509c28204614182b020415890202c48101624080b12840509c28204614182b02041589020ac34aefe85f508ab3bac9662f5ab0fb482ff4984e89315af9db00ecd1c296111964a056d071b9ad981c36a5c0a2bd0cea5b027ac96b413d681b05ad24e583d61b5847b2c89e8cfc2782c960461b513d6814b614bda09ab27ac96708f2511fd59188fc59220ac76c23a70296c493b61f584d512eeb124a23f0be3b1581284d54e58072e852d6927ac9eb05ac23d9644f467613c16eba5c21abaf5fab5bf86b6c34d08023a7029dcf502b55ed776583d619523ac29166b038435c5626d80b0a658ac0d10d6148bb501c29a62b1364058532cd606086b8ac5da00614db1581b20ac29166b038435c5626d80b0a658ac0d10d6148bb501c29a62b1364058532cd606086b8ac5da00614db1581b20ac29166b038435c5626d80b0a69ef826ec14ae8243080e6bfe6d1bb3ebd0171acbcec913ff9fa670151c427058f3141ffe5018d66cecc338278523acc6c31a539d086be1bc105619c25a382f845586b016ce0b619521ac85f3425865086be1bc105619c25a382f845586b016ce0b619521ac85f3425865086be1bc105619c25a382f845586b016ce0b619521ac85f3425865086be1bc105619c25a382f845586b016ce0b619521ac85f3425865086be1bc105619c25a382f0a439997fb0ed2f5ef2698fdd110b38627dea3d0ccf7bc2b388775503cb2ebadffd112ebbb26ac5284b5705e5a31a63a11d6c27969c598ea44580be7a51563aa13612d9c97568ca94e84b5705e5a31a63a11d6c27969c598ea44580be7a51563aa13612d9c97568ca94e84b5705e5a31a63a11d6c27969c598ea44580be7a51563aa13612d9c97568ca94e84b5705e5a31a63a11d6c27969c598ea44580be7a51563aa13612d9c97568ca94e84b5705e5a31a63a11d6c27969c598ea44580be7a51563aa9341584ffc88996eb5432b86719cfe1e7ddffe55fc9325d69f9b6d1e202b430a47588e4d080206dfb0c6d273c36215300e8b4b6124e3b058ac48c661b158918cc362b1221987c56245320e8bc58a641c168b15c9382c162b9271582c5624e3b058ac48c661b158918cc362b1221987c56245320e8bc58a641c168b15c9382c162b9271582c5624e3b08a176bfd4f02d9e6b1b032a470d52e16b60e6bfde77aefbc58d87cb12cc262b122b1589060b120c1624182c582048b0509160b122c1624582c48b0589060b120c1624182c582048b0509160b122c1624582c48b05890305eacf1f2e31d86c96fcd79c437dd3863b0086b1edf09df04c28204614182b020415890202c48101624080b12840509c28204614182b020415890202c48101624080b12840509c28204614182b06013d6b8fa37dff3deacfdc31a0b0f8e37533481b0204158202c2e85ed60b120415890202c48101624080b12840509c28204614182b020415890202c48101624080b12840509c2c2eb8575e8e6684e045e292c348bb06ea721fa7168593ff7c35116de63c56255e07c2a71deef40930897428df35b897353573dc2dad1b991b058acc69c1b098bc5fae1dc1c2a746e242c16ab31e746c262b11a736e242c16ab31e746c262b11a736e242c166b1937ef0558acc69c59ac67f04568b7b07a5e796fcbb991b0b8c76accb991b058ac1fcecda142e746c262b11a736e242c16ab31e746c262b11a736e242c16ab31e746c262b11a736e24ac4a162b0dabed766a164e4d080258b79b7e4ed70deb7e7773611dcf73d6bf796e987d8b84ea7d135b84d5cc6bf4fddb5e4a5fed7813ecd890c21116614910166149101661491016614910166149101661491016614910166149101661491016614910166149101661491016614910166149101661491016614910166149101661491016614910564361756bf13def3abda76ed5af422c1624080b12840509c28204614182b020415890202c48101624080b12840509c28204614182b020415890202c48101624080b12840509c28204616da13b9f8782df3bfed89b73a1d51f89b0b6d0edf5709522ac1a7e96ce7a8435c1626d81b026086b0b84354158af18d6e9977f71f3beb3d6c2fabdd51f89c5da30acd3effe46582ff6bf36b31e8b35b1450084d55658a7bf53a93b52c28a0eebf2101f42eeb14e4fdfba13564858bfbec56ae3e6fd4458bb6beb525862f547e252b805c29a20acd70bebf4f54a7cbf1e7ff9e3eb7fc6628587f5cbdbace84be169a6a3bfffc2cd7b6c58bf7d065f4158ebadfe485c0a5fef52f8d9dc67c3c26708cf0af7d75a58a7b5033bf93f5afd9158accdc3fac52b59870a2e85a7f992befd87ed8595a7bff85ae1e65eee1e2bcfff7c8ed5ba43a86e58ed7c9ab1df910e6507da5c58a9f087d1ec773199d5affe09355d70585dd981ae3fd2aa17cb35ace3fdaf8f7fd8ef48bb270ef478fafbfbf1476b61bdd4623d1eadbf8fd77e47da3dfb19f02d4d0802add51f68832658ac5b581f7ffbe9afdb15e6982f8f523e1dafffb07358fdaae3bc7e06dc0ff3d3a1b616d68b2dd6f13257c7e3e561bb0ed77e47fadc813e0ef376a84f1de9064db0588fb0fab5b72eb71d78dc69ed1e56ffaf83ecff4eebdffbf6e7b6b592b07c16ebc70bcdfdf17abb8cc1f176a579cbc727ee5c8afdfb383f2fd6fd30dfae87f9dcdde0064db058d7b056ccd57d081e3370bb0c56f7acb0ff32add7c3fc38d8e6c2f259ac7f2576feb456f7bbe3889bf7ee9f9f0a8f69bd1fe2e9747a6a5b376882c5fa748ff5f9c19abdc83c5e77bccfd5933b50ecf3b12d1fe7e31eebfa6cf07a9cf9fa8c83c5dad9e4737f790c6eb72ed79c2e0b70bb29deef48bbb5c7f9f1f4f5f4f1678b6119bdf2fec363751b82c735f0fa1cfef476b9e1daef48bb8f435c3cce4fcf32eedb7abd27bc5c16db0bcbe01eebdb03f5f535d3af97c2eb33c1c753f8cb3fee77a4dd6c46cbcf0aaf4f073fee09db0bcb65b1fedea22cb9bd3c74bf1e3efd7015fb72703f8ed6fd1eeb7ed9befc7139d8d6c23258ac856bcaf7d1faf85ae1ed69e1ed7e6bbf23ed668afaf26ffdec3dd6dbe358577fa00d9a60b1ee617dfafb8f37efb7bbacc72d7cd4b7cdf4cb4d7d39d0db6b0e8f971c5a0bcb72b16637ecf6b5dd8f17b16eb75bfb1d69b77860dfffe536add757dc1fcf331a0ccbeb1eebfb247c1e87cbb3c2dbfdcac72b59fbbf40daff23aac762ddefad4d08026eff70fda3b5b00c16eb8917b41ff72e1f5fddddef48bb2f09fd74237f7f5678ff42c1e398577fa00d9a60b19efbb6998f571a1ebf2ab814def47edf9adcf8623df1bec2cb00bc1ddf8e5fec78a4fd0fbfbefecbacd51f688326582c541b56e38b85890d9a60b1506d582c969bb4015ec742ad61b1586ed206582cd41a168be5266d80c542ad61b1586ed206582cd41a168be5266d80c542ad61b1586ed206582cd41a168be5266d80c542ad61b1586ed206582cd41a168be526792cd6ec8f80e96749de7b83ef4c166bbeb6b237301dce6faf2cc5ab60b166115689148fc57294e2b1588e523c16cb518ac762394af1582c47291e8be528c563b11ca5782c96a3148fc57294e2b1588e523c16cb518ac762394af1582c47291e8be528c563b11ca5782c96a3148fc57294e2b1588e52bcb616ab5bedb5bfe77d9c3b2543da535b8bf584b75736c8ded565ba58845510569ff6c462391a2cc262b1aa335884c53d5675068bb058acea0c1661b158d5192cc262b1aa335884c5625567b0088bc5aace6011168b559dc1222c16ab3a8345582c5675068bb058acea0c1661b158d5192cc262b1aa335884c5625567b0088bc5aace6011168b559dc1222c16ab3a83f1621dffe9c753c3b72697f0082be5394ffc7892b993f0fefe5fd12fde4c6110d6acc2b0fe2b445813844558a54c2e85b358ac4084b5844b6111c2222c09c2222c09c2222c09c2224d08022c09c2222c09c2222c09c2222c09c2222c09c2222c09c2222c09c2222c09c2222c09c2222c09c2222c09c2222c09c2aa36acd9b77f74b1cec7b508abd6b08e7fe6947d576cb1eecf5aff8d73d29ef8d6e4796d87f527ef1a1161bdca62fd21ac4a2f852c56292e852c960461b1581284c5624910168b2541582c1661f1ac702d5e6ea8f4e5065ec72ac5a5907b2c09c262b124088bc592202c164b82b0582c09c262b124088bc592202c164b82b0582c09c29a5facd997f3f90ed20ac21a87619cfcea77fb92ce7fef65668f6aeeab72efabdf3a336f21ecd5de5fed6b85b3760ceb4f99f561bdc57a272cc252202cc292202cc292202cc292202cc292202cc292202cc292202cc292202cc292202cc292202cc292202cc292202cc292202cc292202cc292202cc292202cc292202cc292202cc29220ac8bae5fa98bfe9ef7d5ff9d7ccf7b0d6fa6582d4787d5b81cfd001296a71cdd156179cad15d1196a71cdd156179cad15d1196a71cdd156179cad15d1196a71cdd156179cad15d1196a71cdd156179cad15d1196a71cdd156179cad15d1196a71cdd156179cad15d1196a71cdd156179cad15d1196a71cdd156179cad15d1196a71cdd156179cad15d1196a71cdd156179cad15d1196a71cdd156179cad15d1196a71cdd156179cad15d1196a71cdd156179cad15d1196a71cdd156179cad15d1196a71cdd156179cad15d1196a71cdd15614d080279cad15d1196a71cdd156179cad15d1196a71cdd156179cad15d1196a71cdd156179cad15d1196a71cdd156179cad15d1196a71cdd156179cad15d1196a71cdd156179cad15d1196a71cdd156179cad15d1196a71cdd156179cad15d1196a71cdd156179cad15d1196a71cdd156179cad15d1196a71cdd156179cad15d1196a71cdd156179cad15d1196a71cdd156179cad15d1196a71cdd156179cad15dd51a567affafd0fb2bcbd10f5fbd619dca9ccfc7faa457621ad689b0829986c56245330d8bc58a661a168b15cd342c162b9a69582c5634d3b058ac68a661b158d14cc362b1a29986c56245330d8bc58a661a168b15cd342c162b9a69582c5634d3b058ac68a661b158d14cc362b1a29986c56245330d8bc58a661a168b15cd342c162b9a69582c5634d3b058ac68a661b158d14cc362b1a29986c56245330d8bc58a661a168b15cd342c162b9a69582c5634d3b058ac68a661b158d14cc362b1a29986c56245330d8bc58a661a168b15cd342c162b9a69582c5634d3b058ac68a661b158d14cc362b1a29986c56245330d8bc58a661a168b15cd342c162b9a69582c5634d3b058ac68a661b158d14cc362b1a29986c56245330d8bc58a661a168b15cd342c162b9a69582c5634d3b058ac68a661b158d14cc362b1a29986c56245330d8bc58a661a168b15cd342c162b9a69582c5634d3b058ac68a661b158d14cc362b152b0ff0147c512ad46daf2a46d0000000049454e44ae4260826821c05ca619d3eefe29b3d2652ce8631da1d5d5be85169baa6bfdcdfa9dad47e54c9400000000"
}