{
  "txid": "fd36ee59e1ce3b900bba48f18c9f0f0c480c12c4bfc1da1eec771c60d54210bd",
  "version": 1,
  "locktime": 0,
  "vin": [
    {
      "txid": "7ed4cf80b75fb5db469c73192cb6ff31791c56fb0d94b0d25013cf9974132974",
      "vout": 1,
      "prevout": {
        "scriptpubkey": "76a914a0aa4d5903c974f7619605338b058296fdbd983188ac",
        "scriptpubkey_asm": "OP_DUP OP_HASH160 OP_PUSHBYTES_20 a0aa4d5903c974f7619605338b058296fdbd9831 OP_EQUALVERIFY OP_CHECKSIG",
        "scriptpubkey_type": "p2pkh",
        "scriptpubkey_address": "1FeX8VbL1f8jfMQtoUdN7tofJfD8b6xZqV",
        "value": 61099
      },
      "scriptsig": "483045022100f409289511de580729b0748cddcbb39b43db388369d7df14e89be6de291f20be022018b4acfeedbd416f641841b8578ffa3b03440c9615044314ee51ea4295762fa0012103f09f8ffe37ea0c532c9e7bd3f27b61f8fac33537bbde9a8cfe584507cacabdd5",
      "scriptsig_asm": "OP_PUSHBYTES_72 3045022100f409289511de580729b0748cddcbb39b43db388369d7df14e89be6de291f20be022018b4acfeedbd416f641841b8578ffa3b03440c9615044314ee51ea4295762fa001 OP_PUSHBYTES_33 03f09f8ffe37ea0c532c9e7bd3f27b61f8fac33537bbde9a8cfe584507cacabdd5",
      "is_coinbase": false,
      "sequence": 4294967295
    }
  ],
  "vout": [
    {
      "scriptpubkey": "76a9141d6b5700d82bb2dd78f2aa4aad8e0c1b782ef1e588ac",
      "scriptpubkey_asm": "OP_DUP OP_HASH160 OP_PUSHBYTES_20 1d6b5700d82bb2dd78f2aa4aad8e0c1b782ef1e5 OP_EQUALVERIFY OP_CHECKSIG",
      "scriptpubkey_type": "p2pkh",
      "scriptpubkey_address": "13gZBfh2TeAxxPk7sd7dWTc238DPTdfsrH",
      "value": 59024
    }
  ],
  "size": 192,
  "weight": 768,
  "fee": 2075,
  "status": {
    "confirmed": true,
    "block_height": 834464,
    "block_hash": "0000000000000000000177a0869a911a2b65c9bdcd5a8bcb02b68f305bee848e",
    "block_time": 1710308296
  },
  "hex": "01000000017429137499cf1350d2b0940dfb561c7931ffb62c19739c46dbb55fb780cfd47e010000006b483045022100f409289511de580729b0748cddcbb39b43db388369d7df14e89be6de291f20be022018b4acfeedbd416f641841b8578ffa3b03440c9615044314ee51ea4295762fa0012103f09f8ffe37ea0c532c9e7bd3f27b61f8fac33537bbde9a8cfe584507cacabdd5ffffffff0190e60000000000001976a9141d6b5700d82bb2dd78f2aa4aad8e0c1b782ef1e588ac00000000"
}