{
  "txid": "fd48b47df59eecdd1f12e8d27b62912d2859c95f7741b62538a87cc6182afbd7",
  "version": 2,
  "locktime": 0,
  "vin": [
    {
      "txid": "8aa466847c7a27e136cb7ae82ec6d83de259d775166e374924161244cac7370e",
      "vout": 30,
      "prevout": {
        "scriptpubkey": "a9141eb6a016d06e63da8be47ee0c39994baa8dafa4087",
        "scriptpubkey_asm": "OP_HASH160 OP_PUSHBYTES_20 1eb6a016d06e63da8be47ee0c39994baa8dafa40 OP_EQUAL",
        "scriptpubkey_type": "p2sh",
        "scriptpubkey_address": "34VQyL7QZTz256MsfG2eL1MB9cASdSrzNr",
        "value": 9606000
      },
      "scriptsig": "160014a3682fea11de87de610b6649b058569a04611b14",
      "scriptsig_asm": "OP_PUSHBYTES_22 0014a3682fea11de87de610b6649b058569a04611b14",
      "witness": [
        "304502210099d481519d949aac70e94391bc66d577c748d4354715c1d93f008cb2299b70f1022022941d367c441766b012e83d8c2a24d522a588c76c7c3b8ab5f96284bf5c4b3001",
        "03282dbf1bc15e3ddc58f28534bacb20c2ce72b9c796e6fc54a9b1bf1b57412ca1"
      ],
      "is_coinbase": false,
      "sequence": 0,
      "inner_redeemscript_asm": "OP_0 OP_PUSHBYTES_20 a3682fea11de87de610b6649b058569a04611b14"
    },
    {
      "txid": "00036628497efba59a476cccf8330fde61a0c0f57e48f113767fe3f4d1bc2b0e",
      "vout": 6,
      "prevout": {
        "scriptpubkey": "a9147630f2f707be420e6096a9b10f400e15a087a63987",
        "scriptpubkey_asm": "OP_HASH160 OP_PUSHBYTES_20 7630f2f707be420e6096a9b10f400e15a087a639 OP_EQUAL",
        "scriptpubkey_type": "p2sh",
        "scriptpubkey_address": "3CTxJDodwuamQrPiTMGPu3RKCif6LDW8qf",
        "value": 7276000
      },
      "scriptsig": "16001465ac56a7bf6afce9ae186e94fc6bdaf5d879262d",
      "scriptsig_asm": "OP_PUSHBYTES_22 001465ac56a7bf6afce9ae186e94fc6bdaf5d879262d",
      "witness": [
        "30440220091cf4cde465d26308d872c54f1fb44b693883d7a268a732838b8fc80c760dda02201f2294dea7b8899996f22a816bb55a8a2c463570a405eb2a55b0142517255a5501",
        "037152c942d21fce2c1ec48dca8e9c06150157f00de42a00d78a4496387aac2eef"
      ],
      "is_coinbase": false,
      "sequence": 0,
      "inner_redeemscript_asm": "OP_0 OP_PUSHBYTES_20 65ac56a7bf6afce9ae186e94fc6bdaf5d879262d"
    },
    {
      "txid": "465fd0c633f965ce118e02641e2b53f20043603d799b79a84872f9fe2e92461d",
      "vout": 15,
      "prevout": {
        "scriptpubkey": "a914a3095511ceced42812fee5c2c70aad7cdc628e6487",
        "scriptpubkey_asm": "OP_HASH160 OP_PUSHBYTES_20 a3095511ceced42812fee5c2c70aad7cdc628e64 OP_EQUAL",
        "scriptpubkey_type": "p2sh",
        "scriptpubkey_address": "3GZ5FEQLHci6hP1WzE6SQMmvDunDUxMZNC",
        "value": 5603000
      },
      "scriptsig": "1600145b29be5174005eb7479ec44a35ab006ddd93acef",
      "scriptsig_asm": "OP_PUSHBYTES_22 00145b29be5174005eb7479ec44a35ab006ddd93acef",
      "witness": [
        "3044022044777eef86bcff9e0750231f174b02a88d05940d8c5cb969a1570f9ed4e091990220314039a969f624e102e5f6fc190a4b6cb8c58645de5d58212bfe5cc7c511d52901",
        "023684e70439abdaf6f115daf0549bf17e7ab5ef69b013629236bea12ead7ccd46"
      ],
      "is_coinbase": false,
      "sequence": 0,
      "inner_redeemscript_asm": "OP_0 OP_PUSHBYTES_20 5b29be5174005eb7479ec44a35ab006ddd93acef"
    },
    {
      "txid": "871b95a3a9047a2d1c16add0224242964f4e7e11b3977d542c43ca7d97846b67",
      "vout": 17,
      "prevout": {
        "scriptpubkey": "a9145fcd6cb2e7ff71c08a0e3906a5b1428de42046ad87",
        "scriptpubkey_asm": "OP_HASH160 OP_PUSHBYTES_20 5fcd6cb2e7ff71c08a0e3906a5b1428de42046ad OP_EQUAL",
        "scriptpubkey_type": "p2sh",
        "scriptpubkey_address": "3ARaCvHAuKF5Z7aiFPUemdUFZyhkv7gT23",
        "value": 9224000
      },
      "scriptsig": "1600143a61a1d7bff5f2bf577e4935cc7d0eef61785036",
      "scriptsig_asm": "OP_PUSHBYTES_22 00143a61a1d7bff5f2bf577e4935cc7d0eef61785036",
      "witness": [
        "3045022100c8f1c530b4968c69a6714f9797256c074f350f84da927e38830fa0dede7e7fe6022016c894b8da7e63279e0974d1b0f1291d2d0c2d40e88f40a3f0fa1c9fbbf42cc101",
        "03db901d87d59d35cde007db4d66a21b1899f9d686128dc4439e30a16e19ff35e4"
      ],
      "is_coinbase": false,
      "sequence": 0,
      "inner_redeemscript_asm": "OP_0 OP_PUSHBYTES_20 3a61a1d7bff5f2bf577e4935cc7d0eef61785036"
    },
    {
      "txid": "78a5359485c91342418b6d2b1106a699a8f206c30be71cdc4eac59a735e7eef9",
      "vout": 1,
      "prevout": {
        "scriptpubkey": "a9146053a7c92a3459ec1548105f1cb357442f79aad987",
        "scriptpubkey_asm": "OP_HASH160 OP_PUSHBYTES_20 6053a7c92a3459ec1548105f1cb357442f79aad9 OP_EQUAL",
        "scriptpubkey_type": "p2sh",
        "scriptpubkey_address": "3AUM1SSh9dRULjCT1vUiF8MMEf3DAkvqf4",
        "value": 171497111
      },
      "scriptsig": "1600149129aa37c4ea719dacdc2bc4d8fb7ff959b36a70",
      "scriptsig_asm": "OP_PUSHBYTES_22 00149129aa37c4ea719dacdc2bc4d8fb7ff959b36a70",
      "witness": [
        "304502210080bae376bf906f820c700bf90649d6e613fb8cca536ca50871e2ee8bcc49f0f30220578c5b47b525a6c41dd410d016bc706c79e6c4f3dd50fece5baef0f433b6f87f01",
        "0217552855f92f1e3590f01f20b0084c64584526fc1398c5defdead738a458cfef"
      ],
      "is_coinbase": false,
      "sequence": 0,
      "inner_redeemscript_asm": "OP_0 OP_PUSHBYTES_20 9129aa37c4ea719dacdc2bc4d8fb7ff959b36a70"
    }
  ],
  "vout": [
    {
      "scriptpubkey": "a9143f4e8a16bdd929a83ed2c00208301a4f94a0b57b87",
      "scriptpubkey_asm": "OP_HASH160 OP_PUSHBYTES_20 3f4e8a16bdd929a83ed2c00208301a4f94a0b57b OP_EQUAL",
      "scriptpubkey_type": "p2sh",
      "scriptpubkey_address": "37TkaeF1GsMfGfXg8VA7FcAMtbHcBMfENw",
      "value": 36210000
    },
    {
      "scriptpubkey": "a914dbbe13f7c7d41eae402df4fed2b0926c1dc83c0687",
      "scriptpubkey_asm": "OP_HASH160 OP_PUSHBYTES_20 dbbe13f7c7d41eae402df4fed2b0926c1dc83c06 OP_EQUAL",
      "scriptpubkey_type": "p2sh",
      "scriptpubkey_address": "3MiucQUYwrjzt8W3JEzcaHxWgmg1Erderv",
      "value": 166986724
    }
  ],
  "size": 934,
  "weight": 2116,
  "fee": 9387,
  "status": {
    "confirmed": true,
    "block_height": 834638,
    "block_hash": "000000000000000000025f742c626208ac87e0b7d15054abb4a19ca2d735a54e",
    "block_time": 1710405325
  },
  "hex": "020000000001050e37c7ca4412162449376e1675d759e23dd8c62ee87acb36e1277a7c8466a48a1e00000017160014a3682fea11de87de610b6649b058569a04611b14000000000e2bbcd1f4e37f7613f1487ef5c0a061de0f33f8cc6c479aa5fb7e4928660300060000001716001465ac56a7bf6afce9ae186e94fc6bdaf5d879262d000000001d46922efef97248a8799b793d604300f2532b1e64028e11ce65f933c6d05f460f000000171600145b29be5174005eb7479ec44a35ab006ddd93acef00000000676b84977dca432c547d97b3117e4e4f96424222d0ad161c2d7a04a9a3951b8711000000171600143a61a1d7bff5f2bf577e4935cc7d0eef6178503600000000f9eee735a759ac4edc1ce70bc306f2a899a606112b6d8b414213c9859435a57801000000171600149129aa37c4ea719dacdc2bc4d8fb7ff959b36a700000000002508528020000000017a9143f4e8a16bdd929a83ed2c00208301a4f94a0b57b87e403f4090000000017a914dbbe13f7c7d41eae402df4fed2b0926c1dc83c06870248304502210099d481519d949aac70e94391bc66d577c748d4354715c1d93f008cb2299b70f1022022941d367c441766b012e83d8c2a24d522a588c76c7c3b8ab5f96284bf5c4b30012103282dbf1bc15e3ddc58f28534bacb20c2ce72b9c796e6fc54a9b1bf1b57412ca1024730440220091cf4cde465d26308d872c54f1fb44b693883d7a268a732838b8fc80c760dda02201f2294dea7b8899996f22a816bb55a8a2c463570a405eb2a55b0142517255a550121037152c942d21fce2c1ec48dca8e9c06150157f00de42a00d78a4496387aac2eef02473044022044777eef86bcff9e0750231f174b02a88d05940d8c5cb969a1570f9ed4e091990220314039a969f624e102e5f6fc190a4b6cb8c58645de5d58212bfe5cc7c511d5290121023684e70439abdaf6f115daf0549bf17e7ab5ef69b013629236bea12ead7ccd4602483045022100c8f1c530b4968c69a6714f9797256c074f350f84da927e38830fa0dede7e7fe6022016c894b8da7e63279e0974d1b0f1291d2d0c2d40e88f40a3f0fa1c9fbbf42cc1012103db901d87d59d35cde007db4d66a21b1899f9d686128dc4439e30a16e19ff35e40248304502210080bae376bf906f820c700bf90649d6e613fb8cca536ca50871e2ee8bcc49f0f30220578c5b47b525a6c41dd410d016bc706c79e6c4f3dd50fece5baef0f433b6f87f01210217552855f92f1e3590f01f20b0084c64584526fc1398c5defdead738a458cfef00000000"
}