{
  "txid": "fd4da374c3fff7764b9e621fae33ca705a198487cf9e9286a555a5043af0202a",
  "version": 2,
  "locktime": 0,
  "vin": [
    {
      "txid": "83b1303fd891f1954cd87c1d288a2a6bca51045bdda40133839448bcf0a9a8be",
      "vout": 7,
      "prevout": {
        "scriptpubkey": "5120048d7b8f5bb6e7f234ff7ec5fe3ccf2304d3237449c0eacb6ac1e4f906046dc4",
        "scriptpubkey_asm": "OP_PUSHNUM_1 OP_PUSHBYTES_32 048d7b8f5bb6e7f234ff7ec5fe3ccf2304d3237449c0eacb6ac1e4f906046dc4",
        "scriptpubkey_type": "v1_p2tr",
        "scriptpubkey_address": "bc1pqjxhhr6mkmnlyd8l0mzlu0x0yvzdxgm5f8qw4jm2c8j0jpsydhzq5hqgz8",
        "value": 2850
      },
      "scriptsig": "",
      "scriptsig_asm": "",
      "witness": [
        "141f779bf8b36d4690c64731512bfa223b34afe792268d7c830137a349afc193d904d466c0d317b5e242c079f1b396a1dfbe90a3e2af531314bc1158b6a0b0ef",
        "2079f51673496cfbe633580eca7015ad045508bc33d4d4cb1e1b1d61d332846b38ac0063036f726401011e6170706c69636174696f6e2f6a736f6e3b636861727365743d7574662d38004cd27b2270223a22706f772d3230222c226f70223a226d696e74222c227469636b223a2250455045222c22616d74223a2231303030222c22736f6c7574696f6e223a22504550453a62633170687834336d6b6632633236366e63707a6c7a7067307636616b6a73713470386379736379327a706d746e38326e367a616c7667713972663737363a303030303030303030303030303030303030303139393431613561653132383937363539383134343239323533333030353762306461393666336465613163353a35333134303935353938227d68",
        "c143aa8de0991fd4b61b82f8195f6c835bc5de941a82824922fffa09f24edd0022"
      ],
      "is_coinbase": false,
      "sequence": 4294967295
    }
  ],
  "vout": [
    {
      "scriptpubkey": "5120b9ab1dd92ac2b5a9e022f88287b35db4a00a84f8243045083b5ccea9e85dfb10",
      "scriptpubkey_asm": "OP_PUSHNUM_1 OP_PUSHBYTES_32 b9ab1dd92ac2b5a9e022f88287b35db4a00a84f8243045083b5ccea9e85dfb10",
      "scriptpubkey_type": "v1_p2tr",
      "scriptpubkey_address": "bc1phx43mkf2c266ncpzlzpg0v6akjsq4p8cyscy2zpmtn82n6zalvgq9rf776",
      "value": 546
    }
  ],
  "size": 486,
  "weight": 768,
  "fee": 2304,
  "status": {
    "confirmed": true,
    "block_height": 834460,
    "block_hash": "00000000000000000000484a79b643b2524bbce82e5d8a442013fa5b8905ed98",
    "block_time": 1710307468
  },
  "hex": "02000000000101bea8a9f0bc4894833301a4dd5b0451ca6b2a8a281d7cd84c95f191d83f30b1830700000000ffffffff012202000000000000225120b9ab1dd92ac2b5a9e022f88287b35db4a00a84f8243045083b5ccea9e85dfb100340141f779bf8b36d4690c64731512bfa223b34afe792268d7c830137a349afc193d904d466c0d317b5e242c079f1b396a1dfbe90a3e2af531314bc1158b6a0b0effd1f012079f51673496cfbe633580eca7015ad045508bc33d4d4cb1e1b1d61d332846b38ac0063036f726401011e6170706c69636174696f6e2f6a736f6e3b636861727365743d7574662d38004cd27b2270223a22706f772d3230222c226f70223a226d696e74222c227469636b223a2250455045222c22616d74223a2231303030222c22736f6c7574696f6e223a22504550453a62633170687834336d6b6632633236366e63707a6c7a7067307636616b6a73713470386379736379327a706d746e38326e367a616c7667713972663737363a303030303030303030303030303030303030303139393431613561653132383937363539383134343239323533333030353762306461393666336465613163353a35333134303935353938227d6821c143aa8de0991fd4b61b82f8195f6c835bc5de941a82824922fffa09f24edd002200000000"
}