{
  "txid": "fd5369557a19c976fdf4ca4409448462d07c93a4417d820b99d084cbdc329bb9",
  "version": 1,
  "locktime": 0,
  "vin": [
    {
      "txid": "6fdc5e6eb480efc753623947cb6584d964fb9b6bc3f1a5ea94a78441316bf2c7",
      "vout": 0,
      "prevout": {
        "scriptpubkey": "a914fdbf670e8d235e72236fbd5e60ad743df428efec87",
        "scriptpubkey_asm": "OP_HASH160 OP_PUSHBYTES_20 fdbf670e8d235e72236fbd5e60ad743df428efec OP_EQUAL",
        "scriptpubkey_type": "p2sh",
        "scriptpubkey_address": "3QpiAxeb3g6FLozzMRjMzqYubroJbsoG64",
        "value": 17646954
      },
      "scriptsig": "160014c2ea694659576900e591bacc246f4a837e6acdc3",
      "scriptsig_asm": "OP_PUSHBYTES_22 0014c2ea694659576900e591bacc246f4a837e6acdc3",
      "witness": [
        "304402200d323d8fd38f105fff866e60c1daa552d52ce6f3db09bf408b3868ee19d697a602201519ff8973e62efa173d080b36546488d3cd17768a5052c7182a73da0e32641001",
        "03e86136a70c4c257b9bd969412e5531e53f1ca6ea570888f77f3cd1b96b3f472d"
      ],
      "is_coinbase": false,
      "sequence": 4294967293,
      "inner_redeemscript_asm": "OP_0 OP_PUSHBYTES_20 c2ea694659576900e591bacc246f4a837e6acdc3"
    }
  ],
  "vout": [
    {
      "scriptpubkey": "a9140ea70211281f6740f644609b88b01406f84e26d587",
      "scriptpubkey_asm": "OP_HASH160 OP_PUSHBYTES_20 0ea70211281f6740f644609b88b01406f84e26d5 OP_EQUAL",
      "scriptpubkey_type": "p2sh",
      "scriptpubkey_address": "332VT9sgCb5a9997KJJaxV8owXcuDWHFcu",
      "value": 7545964
    },
    {
      "scriptpubkey": "0014f31f589379e01cd3fb3f0e5ae0e8517b7eedc2f1",
      "scriptpubkey_asm": "OP_0 OP_PUSHBYTES_20 f31f589379e01cd3fb3f0e5ae0e8517b7eedc2f1",
      "scriptpubkey_type": "v0_p2wpkh",
      "scriptpubkey_address": "bc1q7v043ymeuqwd87elpedwp6z30dlwmsh340f3dh",
      "value": 10100000
    }
  ],
  "size": 246,
  "weight": 657,
  "fee": 990,
  "status": {
    "confirmed": true,
    "block_height": 834464,
    "block_hash": "0000000000000000000177a0869a911a2b65c9bdcd5a8bcb02b68f305bee848e",
    "block_time": 1710308296
  },
  "hex": "01000000000101c7f26b314184a794eaa5f1c36b9bfb64d98465cb47396253c7ef80b46e5edc6f0000000017160014c2ea694659576900e591bacc246f4a837e6acdc3fdffffff026c2473000000000017a9140ea70211281f6740f644609b88b01406f84e26d587201d9a0000000000160014f31f589379e01cd3fb3f0e5ae0e8517b7eedc2f10247304402200d323d8fd38f105fff866e60c1daa552d52ce6f3db09bf408b3868ee19d697a602201519ff8973e62efa173d080b36546488d3cd17768a5052c7182a73da0e326410012103e86136a70c4c257b9bd969412e5531e53f1ca6ea570888f77f3cd1b96b3f472d00000000"
}