{
  "txid": "fd569e6f14e5b61abc8b463a65d586cbdecb89d4069691f07e629c579ad97d78",
  "version": 2,
  "locktime": 0,
  "vin": [
    {
      "txid": "33198a5cbe2a53fc30099ab53009144888cef479020e7acbc065183b03c26d7b",
      "vout": 9,
      "prevout": {
        "scriptpubkey": "51203167b55bce57d524d06793e89bee4f3e2b4b3806b0d37ff79abd484caed14d8e",
        "scriptpubkey_asm": "OP_PUSHNUM_1 OP_PUSHBYTES_32 3167b55bce57d524d06793e89bee4f3e2b4b3806b0d37ff79abd484caed14d8e",
        "scriptpubkey_type": "v1_p2tr",
        "scriptpubkey_address": "bc1px9nm2k7w2l2jf5r8j05fhmj08c45kwqxkrfhlau6h4yyetk3fk8q426a8n",
        "value": 2658
      },
      "scriptsig": "",
      "scriptsig_asm": "",
      "witness": [
        "c227f59c503aec9dc50bd18afa14c6c1ba7437a0db26d00454b0eab0208427bd4bdf71f620a54d2b914da78d2e84c7d557bc4a3e4ae034526e03bd4800ea7bce",
        "207e82406dd55efad4049af501d37704f87cbda4dc8b0a815ff9db6f3fd75a6dafac0063036f726401011e6170706c69636174696f6e2f6a736f6e3b636861727365743d7574662d38004cbf7b2270223a22706f772d3230222c226f70223a226d696e74222c227469636b223a2250455045222c22616d74223a2231303030222c22736f6c7574696f6e223a22504550453a626331717832636c7935673578376b356a6b7376396d61346332753661646c7a78657470616e387071733a303030303030303030303030303030303030303139393431613561653132383937363539383134343239323533333030353762306461393666336465613163353a3339343037313533363633227d68",
        "c0da2c9a1920efdfbecd176e4adbb0ca1150e62509fd8a3a19d8331b0c89a8a97b"
      ],
      "is_coinbase": false,
      "sequence": 4294967295
    }
  ],
  "vout": [
    {
      "scriptpubkey": "001432b1f2511437ad495a0c2efb5c2b9aeb7e236561",
      "scriptpubkey_asm": "OP_0 OP_PUSHBYTES_20 32b1f2511437ad495a0c2efb5c2b9aeb7e236561",
      "scriptpubkey_type": "v0_p2wpkh",
      "scriptpubkey_address": "bc1qx2cly5g5x7k5jksv9ma4c2u6adlzxetpan8pqs",
      "value": 546
    }
  ],
  "size": 455,
  "weight": 701,
  "fee": 2112,
  "status": {
    "confirmed": true,
    "block_height": 834460,
    "block_hash": "00000000000000000000484a79b643b2524bbce82e5d8a442013fa5b8905ed98",
    "block_time": 1710307468
  },
  "hex": "020000000001017b6dc2033b1865c0cb7a0e0279f4ce8848140930b59a0930fc532abe5c8a19330900000000ffffffff01220200000000000016001432b1f2511437ad495a0c2efb5c2b9aeb7e2365610340c227f59c503aec9dc50bd18afa14c6c1ba7437a0db26d00454b0eab0208427bd4bdf71f620a54d2b914da78d2e84c7d557bc4a3e4ae034526e03bd4800ea7bcefd0c01207e82406dd55efad4049af501d37704f87cbda4dc8b0a815ff9db6f3fd75a6dafac0063036f726401011e6170706c69636174696f6e2f6a736f6e3b636861727365743d7574662d38004cbf7b2270223a22706f772d3230222c226f70223a226d696e74222c227469636b223a2250455045222c22616d74223a2231303030222c22736f6c7574696f6e223a22504550453a626331717832636c7935673578376b356a6b7376396d61346332753661646c7a78657470616e387071733a303030303030303030303030303030303030303139393431613561653132383937363539383134343239323533333030353762306461393666336465613163353a3339343037313533363633227d6821c0da2c9a1920efdfbecd176e4adbb0ca1150e62509fd8a3a19d8331b0c89a8a97b00000000"
}