{
  "txid": "fd5b4a0788d30aaa3b96687ff694dd96e87a2538cd2f097a4a40bee1b8106427",
  "version": 2,
  "locktime": 0,
  "vin": [
    {
      "txid": "e054c137725b7a5d163dade8f5cd68c0927a2e8b00d920927dab9a7ba934ce5f",
      "vout": 16,
      "prevout": {
        "scriptpubkey": "5120d4c993639d754b8c03557de936b15a5a4264bd329c26d8d93516695a9f889194",
        "scriptpubkey_asm": "OP_PUSHNUM_1 OP_PUSHBYTES_32 d4c993639d754b8c03557de936b15a5a4264bd329c26d8d93516695a9f889194",
        "scriptpubkey_type": "v1_p2tr",
        "scriptpubkey_address": "bc1p6nyexcuaw49ccq640h5ndv26tfpxf0fjnsnd3kf4ze5448ugjx2qwf2k60",
        "value": 2658
      },
      "scriptsig": "",
      "scriptsig_asm": "",
      "witness": [
        "bc55f4c8e6a21e0d93248eea299279e364869cd5cc47575ad84930d78c4b67d39d6f56b6ad6bafb8ff50c3e8ad70cb32ffe2d801de5a04fca422500abb2b9a82",
        "2031626a029f010216756945c47ccd45132eaf1dd59c86e57f0dc74c125d39e78aac0063036f726401011e6170706c69636174696f6e2f6a736f6e3b636861727365743d7574662d38004cbf7b2270223a22706f772d3230222c226f70223a226d696e74222c227469636b223a2250455045222c22616d74223a2231303030222c22736f6c7574696f6e223a22504550453a6263317139736a36303977756e7468646a636d7a746a796379766475616e653071716b78726e773932653a303030303030303030303030303030303030303139393431613561653132383937363539383134343239323533333030353762306461393666336465613163353a3138383933373831383631227d68",
        "c0a0e509a599b6542378e5ac7959d344a1bebc95ec9899fd4ccf1904beefe3f047"
      ],
      "is_coinbase": false,
      "sequence": 4294967295
    }
  ],
  "vout": [
    {
      "scriptpubkey": "00142c25a795dc9aeed963625c898231bcecf2f002c6",
      "scriptpubkey_asm": "OP_0 OP_PUSHBYTES_20 2c25a795dc9aeed963625c898231bcecf2f002c6",
      "scriptpubkey_type": "v0_p2wpkh",
      "scriptpubkey_address": "bc1q9sj609wunthdjcmztjycyvduane0qqkxrnw92e",
      "value": 546
    }
  ],
  "size": 455,
  "weight": 701,
  "fee": 2112,
  "status": {
    "confirmed": true,
    "block_height": 834460,
    "block_hash": "00000000000000000000484a79b643b2524bbce82e5d8a442013fa5b8905ed98",
    "block_time": 1710307468
  },
  "hex": "020000000001015fce34a97b9aab7d9220d9008b2e7a92c068cdf5e8ad3d165d7a5b7237c154e01000000000ffffffff0122020000000000001600142c25a795dc9aeed963625c898231bcecf2f002c60340bc55f4c8e6a21e0d93248eea299279e364869cd5cc47575ad84930d78c4b67d39d6f56b6ad6bafb8ff50c3e8ad70cb32ffe2d801de5a04fca422500abb2b9a82fd0c012031626a029f010216756945c47ccd45132eaf1dd59c86e57f0dc74c125d39e78aac0063036f726401011e6170706c69636174696f6e2f6a736f6e3b636861727365743d7574662d38004cbf7b2270223a22706f772d3230222c226f70223a226d696e74222c227469636b223a2250455045222c22616d74223a2231303030222c22736f6c7574696f6e223a22504550453a6263317139736a36303977756e7468646a636d7a746a796379766475616e653071716b78726e773932653a303030303030303030303030303030303030303139393431613561653132383937363539383134343239323533333030353762306461393666336465613163353a3138383933373831383631227d6821c0a0e509a599b6542378e5ac7959d344a1bebc95ec9899fd4ccf1904beefe3f04700000000"
}