{
  "txid": "fd5dbb0cc1793fde82bf2549c8c71b4977957e1d42aa03b9f4f61f487d8ee790",
  "version": 2,
  "locktime": 0,
  "vin": [
    {
      "txid": "a17f1fff080c204670e782935df549a3d93d340b33a1a5009f9c7531efc64b67",
      "vout": 62,
      "prevout": {
        "scriptpubkey": "00145596a549329dcd261b6f83165dd5e7e22ec23f60",
        "scriptpubkey_asm": "OP_0 OP_PUSHBYTES_20 5596a549329dcd261b6f83165dd5e7e22ec23f60",
        "scriptpubkey_type": "v0_p2wpkh",
        "scriptpubkey_address": "bc1q2kt22jfjnhxjvxm0svt9m408ughvy0mqd28s44",
        "value": 18801
      },
      "scriptsig": "",
      "scriptsig_asm": "",
      "witness": [
        "3045022100bead3d7e2a3cb2c49fc722d27189020e3d5c1175cc7efd9742d14dd7ea264e9f02203b25ef1177586cd384feac5a64c82c2873b626f7f0c03a5b9bd03061cfae94ac01",
        "0212237b4752bba32ac3568d9c64c0018796a6695eb25e4f996edebb70e5f4b242"
      ],
      "is_coinbase": false,
      "sequence": 4294967295
    },
    {
      "txid": "3b5c196f4f756e7c0909bfb1f137c43f40e0e19a477af4f7917a8c167fea10e4",
      "vout": 0,
      "prevout": {
        "scriptpubkey": "00145596a549329dcd261b6f83165dd5e7e22ec23f60",
        "scriptpubkey_asm": "OP_0 OP_PUSHBYTES_20 5596a549329dcd261b6f83165dd5e7e22ec23f60",
        "scriptpubkey_type": "v0_p2wpkh",
        "scriptpubkey_address": "bc1q2kt22jfjnhxjvxm0svt9m408ughvy0mqd28s44",
        "value": 68590
      },
      "scriptsig": "",
      "scriptsig_asm": "",
      "witness": [
        "3045022100c60ec8cd06ce8ac360786f57d6fd20b588bb18837029956f48df1c8a3fedb3e702201e158efc4f4382b526edc8cdb20075769c8eb2ab984fb99a4ea9d13d774d322e01",
        "0212237b4752bba32ac3568d9c64c0018796a6695eb25e4f996edebb70e5f4b242"
      ],
      "is_coinbase": false,
      "sequence": 4294967295
    }
  ],
  "vout": [
    {
      "scriptpubkey": "00145596a549329dcd261b6f83165dd5e7e22ec23f60",
      "scriptpubkey_asm": "OP_0 OP_PUSHBYTES_20 5596a549329dcd261b6f83165dd5e7e22ec23f60",
      "scriptpubkey_type": "v0_p2wpkh",
      "scriptpubkey_address": "bc1q2kt22jfjnhxjvxm0svt9m408ughvy0mqd28s44",
      "value": 29430
    },
    {
      "scriptpubkey": "00141bcbb3f026f2215b3f5e735766711ab131e74352",
      "scriptpubkey_asm": "OP_0 OP_PUSHBYTES_20 1bcbb3f026f2215b3f5e735766711ab131e74352",
      "scriptpubkey_type": "v0_p2wpkh",
      "scriptpubkey_address": "bc1qr09m8upx7gs4k067wdtkvug6kyc7ws6jspywxh",
      "value": 54480
    }
  ],
  "size": 372,
  "weight": 834,
  "fee": 3481,
  "status": {
    "confirmed": true,
    "block_height": 834638,
    "block_hash": "000000000000000000025f742c626208ac87e0b7d15054abb4a19ca2d735a54e",
    "block_time": 1710405325
  },
  "hex": "02000000000102674bc6ef31759c9f00a5a1330b343dd9a349f55d9382e77046200c08ff1f7fa13e00000000ffffffffe410ea7f168c7a91f7f47a479ae1e0403fc437f1b1bf09097c6e754f6f195c3b0000000000ffffffff02f6720000000000001600145596a549329dcd261b6f83165dd5e7e22ec23f60d0d40000000000001600141bcbb3f026f2215b3f5e735766711ab131e7435202483045022100bead3d7e2a3cb2c49fc722d27189020e3d5c1175cc7efd9742d14dd7ea264e9f02203b25ef1177586cd384feac5a64c82c2873b626f7f0c03a5b9bd03061cfae94ac01210212237b4752bba32ac3568d9c64c0018796a6695eb25e4f996edebb70e5f4b24202483045022100c60ec8cd06ce8ac360786f57d6fd20b588bb18837029956f48df1c8a3fedb3e702201e158efc4f4382b526edc8cdb20075769c8eb2ab984fb99a4ea9d13d774d322e01210212237b4752bba32ac3568d9c64c0018796a6695eb25e4f996edebb70e5f4b24200000000"
}