{
  "txid": "fd666abae3f3cd985bade5b089391c6547d6604eff3bfc779c03cea5dfb7f688",
  "version": 1,
  "locktime": 0,
  "vin": [
    {
      "txid": "9c05d29fafa882e1e1c47e99ad63d3375967e1b6f9cf323df62768a2ced5b807",
      "vout": 0,
      "prevout": {
        "scriptpubkey": "0014b10fdf62dee979c42f6ddc493097a38c3417fd50",
        "scriptpubkey_asm": "OP_0 OP_PUSHBYTES_20 b10fdf62dee979c42f6ddc493097a38c3417fd50",
        "scriptpubkey_type": "v0_p2wpkh",
        "scriptpubkey_address": "bc1qky8a7ck7a9uugtmdm3ynp9ar3s6p0l2scq2rsf",
        "value": 272815
      },
      "scriptsig": "",
      "scriptsig_asm": "",
      "witness": [
        "3044022037e7ab9cce2beefa536a5036806e3593bdd7783286bf7f974b3eea7898c6d02b02202b4470800ea640d31fa01183718b3c81000973601ad0bacc5c1a2945d6e2bfa101",
        "020e00479848b809659fb0ed3806406a25ff41b37eaad1cc50eb89def5f1d6a4e3"
      ],
      "is_coinbase": false,
      "sequence": 4294967295
    },
    {
      "txid": "544cb29a76540253b81135120f54717b4d94bf11f5e30dbca2a808dba87c4b26",
      "vout": 0,
      "prevout": {
        "scriptpubkey": "0014b2aaec735dd75cb152a664f676a1ebb88553f946",
        "scriptpubkey_asm": "OP_0 OP_PUSHBYTES_20 b2aaec735dd75cb152a664f676a1ebb88553f946",
        "scriptpubkey_type": "v0_p2wpkh",
        "scriptpubkey_address": "bc1qk24wcu6a6awtz54xvnm8dg0thzz4872xmgq5tj",
        "value": 1435335
      },
      "scriptsig": "",
      "scriptsig_asm": "",
      "witness": [
        "3045022100f011bb62fd6ee322e33ab266bdfe7ba51a9869df2ca35d581c6d3cbce9a258e202202bcaf5955942ed40ded30648d1f878c8d0fd2fe5b89fdc5f4461578b69eec38801",
        "03aa7588bde11da3b624efcd284ea5a32d7962b66810f19eb3f9a4cc258274f6c0"
      ],
      "is_coinbase": false,
      "sequence": 4294967295
    }
  ],
  "vout": [
    {
      "scriptpubkey": "a9143cdb802bbf2469e9026328696bb89c2f71b6791e87",
      "scriptpubkey_asm": "OP_HASH160 OP_PUSHBYTES_20 3cdb802bbf2469e9026328696bb89c2f71b6791e OP_EQUAL",
      "scriptpubkey_type": "p2sh",
      "scriptpubkey_address": "37EoRE8zM4aVxJMFndVcZnan4aU3XuXbTT",
      "value": 1359000
    },
    {
      "scriptpubkey": "00141e27fa657cb75a2ff9fc78d286c8644714db9234",
      "scriptpubkey_asm": "OP_0 OP_PUSHBYTES_20 1e27fa657cb75a2ff9fc78d286c8644714db9234",
      "scriptpubkey_type": "v0_p2wpkh",
      "scriptpubkey_address": "bc1qrcnl5etukadzl70u0rfgdjrygu2dhy35lg45v5",
      "value": 344980
    }
  ],
  "size": 372,
  "weight": 837,
  "fee": 4170,
  "status": {
    "confirmed": true,
    "block_height": 834638,
    "block_hash": "000000000000000000025f742c626208ac87e0b7d15054abb4a19ca2d735a54e",
    "block_time": 1710405325
  },
  "hex": "0100000000010207b8d5cea26827f63d32cff9b6e1675937d363ad997ec4e1e182a8af9fd2059c0000000000ffffffff264b7ca8db08a8a2bc0de3f511bf944d7b71540f123511b8530254769ab24c540000000000ffffffff0298bc14000000000017a9143cdb802bbf2469e9026328696bb89c2f71b6791e8794430500000000001600141e27fa657cb75a2ff9fc78d286c8644714db923402473044022037e7ab9cce2beefa536a5036806e3593bdd7783286bf7f974b3eea7898c6d02b02202b4470800ea640d31fa01183718b3c81000973601ad0bacc5c1a2945d6e2bfa10121020e00479848b809659fb0ed3806406a25ff41b37eaad1cc50eb89def5f1d6a4e302483045022100f011bb62fd6ee322e33ab266bdfe7ba51a9869df2ca35d581c6d3cbce9a258e202202bcaf5955942ed40ded30648d1f878c8d0fd2fe5b89fdc5f4461578b69eec388012103aa7588bde11da3b624efcd284ea5a32d7962b66810f19eb3f9a4cc258274f6c000000000"
}