{
  "txid": "fd791d73340ea96b303db2309d37091973a15acb75185901de5cd3998ae73085",
  "version": 1,
  "locktime": 0,
  "vin": [
    {
      "txid": "f9a80599b474e995b06ec66664265a8fabdbb54f24661ecbe0079fbf9e978bb6",
      "vout": 1,
      "prevout": {
        "scriptpubkey": "0020542239399dd95ab5256bac006049315bbac7a1a67d9e0565664fcd13e2263ae7",
        "scriptpubkey_asm": "OP_0 OP_PUSHBYTES_32 542239399dd95ab5256bac006049315bbac7a1a67d9e0565664fcd13e2263ae7",
        "scriptpubkey_type": "v0_p2wsh",
        "scriptpubkey_address": "bc1q2s3rjwvam9dt2ftt4sqxqjf3twav0gdx0k0q2etxflx38c3x8tnssdmnjq",
        "value": 1211082
      },
      "scriptsig": "",
      "scriptsig_asm": "",
      "witness": [
        "",
        "30440220680e15e0a124d62688bf0673a139b90409131be1e93957819ae383ef272db741022013f8dd1c18af9ffa3241bb8f38de7d6ddc6e6f7b7c692eb824e93e89e6059c6201",
        "304402204969f05fb719120c5f3dc7949725d2c17275d1e7f4782627eeed99f3c2e36578022057368aeff7e8150f28484ca11f5b791d33ca96f1aef85ebafd1a80ff7fc3ce6a01",
        "522103b2752755818d263efe2437fabdb8e352c760b9e9d28534238e3ead7cf146635d2102bddc62a350db163fcda28e3358087e5abdc9e1d6d4c9d1059a6c37ba550e9a0e2102a01c0a6004eaf1664bbb2e62c9bb5925a306be66664668a1e32a85a65cb1f61253ae"
      ],
      "is_coinbase": false,
      "sequence": 4294967295,
      "inner_witnessscript_asm": "OP_PUSHNUM_2 OP_PUSHBYTES_33 03b2752755818d263efe2437fabdb8e352c760b9e9d28534238e3ead7cf146635d OP_PUSHBYTES_33 02bddc62a350db163fcda28e3358087e5abdc9e1d6d4c9d1059a6c37ba550e9a0e OP_PUSHBYTES_33 02a01c0a6004eaf1664bbb2e62c9bb5925a306be66664668a1e32a85a65cb1f612 OP_PUSHNUM_3 OP_CHECKMULTISIG"
    }
  ],
  "vout": [
    {
      "scriptpubkey": "00146681a042b50b794a1a857ec4dcdfcf8faf75db5e",
      "scriptpubkey_asm": "OP_0 OP_PUSHBYTES_20 6681a042b50b794a1a857ec4dcdfcf8faf75db5e",
      "scriptpubkey_type": "v0_p2wpkh",
      "scriptpubkey_address": "bc1qv6q6qs44pdu55x590mzdeh7037hhtk670jhxaa",
      "value": 653728
    },
    {
      "scriptpubkey": "0020542239399dd95ab5256bac006049315bbac7a1a67d9e0565664fcd13e2263ae7",
      "scriptpubkey_asm": "OP_0 OP_PUSHBYTES_32 542239399dd95ab5256bac006049315bbac7a1a67d9e0565664fcd13e2263ae7",
      "scriptpubkey_type": "v0_p2wsh",
      "scriptpubkey_address": "bc1q2s3rjwvam9dt2ftt4sqxqjf3twav0gdx0k0q2etxflx38c3x8tnssdmnjq",
      "value": 552354
    }
  ],
  "size": 379,
  "weight": 754,
  "fee": 5000,
  "status": {
    "confirmed": true,
    "block_height": 834638,
    "block_hash": "000000000000000000025f742c626208ac87e0b7d15054abb4a19ca2d735a54e",
    "block_time": 1710405325
  },
  "hex": "01000000000101b68b979ebf9f07e0cb1e66244fb5dbab8f5a266466c66eb095e974b49905a8f90100000000ffffffff02a0f90900000000001600146681a042b50b794a1a857ec4dcdfcf8faf75db5ea26d080000000000220020542239399dd95ab5256bac006049315bbac7a1a67d9e0565664fcd13e2263ae704004730440220680e15e0a124d62688bf0673a139b90409131be1e93957819ae383ef272db741022013f8dd1c18af9ffa3241bb8f38de7d6ddc6e6f7b7c692eb824e93e89e6059c620147304402204969f05fb719120c5f3dc7949725d2c17275d1e7f4782627eeed99f3c2e36578022057368aeff7e8150f28484ca11f5b791d33ca96f1aef85ebafd1a80ff7fc3ce6a0169522103b2752755818d263efe2437fabdb8e352c760b9e9d28534238e3ead7cf146635d2102bddc62a350db163fcda28e3358087e5abdc9e1d6d4c9d1059a6c37ba550e9a0e2102a01c0a6004eaf1664bbb2e62c9bb5925a306be66664668a1e32a85a65cb1f61253ae00000000"
}