{
  "txid": "fd7a567bc2a68e76f39540ab8e01a9c9bf6668d3d77c5705c195429778f12546",
  "version": 1,
  "locktime": 0,
  "vin": [
    {
      "txid": "e2042fa7d7cb4da795c38bb17b76bfb94965e0164c0930362db0c28bc06e1fb2",
      "vout": 1,
      "prevout": {
        "scriptpubkey": "001448721845d8d8ad552aecdd259053f9fcc1f10a72",
        "scriptpubkey_asm": "OP_0 OP_PUSHBYTES_20 48721845d8d8ad552aecdd259053f9fcc1f10a72",
        "scriptpubkey_type": "v0_p2wpkh",
        "scriptpubkey_address": "bc1qfpeps3wcmzk422hvm5jeq5lelnqlzznjwyfy69",
        "value": 5102514319
      },
      "scriptsig": "",
      "scriptsig_asm": "",
      "witness": [
        "304502210098e10b76246f44f6d3ae2c2b291138f4aeadbf9a0c3d052c435074c69f6ec29f022015701a89cb8a3a33aad9583d67e330d3003f0b79090d6f5e2b112630988320b701",
        "02dc8683704adb6dbea6d1e0bb392ab45b57dcc9c5f919b7d59389fdd9fb096f25"
      ],
      "is_coinbase": false,
      "sequence": 4294967295
    }
  ],
  "vout": [
    {
      "scriptpubkey": "0014169c5c1650e72b6ec174c9f4fe756c9d05f448c7",
      "scriptpubkey_asm": "OP_0 OP_PUSHBYTES_20 169c5c1650e72b6ec174c9f4fe756c9d05f448c7",
      "scriptpubkey_type": "v0_p2wpkh",
      "scriptpubkey_address": "bc1qz6w9c9jsuu4kast5e860uatvn5zlgjx8aprf73",
      "value": 485576
    },
    {
      "scriptpubkey": "001448721845d8d8ad552aecdd259053f9fcc1f10a72",
      "scriptpubkey_asm": "OP_0 OP_PUSHBYTES_20 48721845d8d8ad552aecdd259053f9fcc1f10a72",
      "scriptpubkey_type": "v0_p2wpkh",
      "scriptpubkey_address": "bc1qfpeps3wcmzk422hvm5jeq5lelnqlzznjwyfy69",
      "value": 5102025867
    }
  ],
  "size": 223,
  "weight": 562,
  "fee": 2876,
  "status": {
    "confirmed": true,
    "block_height": 834638,
    "block_hash": "000000000000000000025f742c626208ac87e0b7d15054abb4a19ca2d735a54e",
    "block_time": 1710405325
  },
  "hex": "01000000000101b21f6ec08bc2b02d3630094c16e06549b9bf767bb18bc395a74dcbd7a72f04e20100000000ffffffff02c868070000000000160014169c5c1650e72b6ec174c9f4fe756c9d05f448c78bbc1a300100000016001448721845d8d8ad552aecdd259053f9fcc1f10a720248304502210098e10b76246f44f6d3ae2c2b291138f4aeadbf9a0c3d052c435074c69f6ec29f022015701a89cb8a3a33aad9583d67e330d3003f0b79090d6f5e2b112630988320b7012102dc8683704adb6dbea6d1e0bb392ab45b57dcc9c5f919b7d59389fdd9fb096f2500000000"
}