{
  "txid": "fd7b01d012f67f58e12e076369da78c2b63f34b25598b3a114e59768ddbbb3a2",
  "version": 2,
  "locktime": 834637,
  "vin": [
    {
      "txid": "22592e2d1463064769e39ae6d68f5f23d6327c91aab1fde108b7f4a3e381b51d",
      "vout": 0,
      "prevout": {
        "scriptpubkey": "0014da662b27c0f73da93c74eec010306b80daa91309",
        "scriptpubkey_asm": "OP_0 OP_PUSHBYTES_20 da662b27c0f73da93c74eec010306b80daa91309",
        "scriptpubkey_type": "v0_p2wpkh",
        "scriptpubkey_address": "bc1qmfnzkf7q7u76j0r5amqpqvrtsrd2jycffm0rfq",
        "value": 307137612
      },
      "scriptsig": "",
      "scriptsig_asm": "",
      "witness": [
        "30440220600ec3cf788f8a9ddc6fa3cd42f805f4bdabf91d762c7ea914761dc0fd7df93302200bc26ba039e972b1602c36253cab45a64a1cc7d6187fb93daca0239cd3a2b09d01",
        "02734556b35ab654432714862d30bdb8ed8ad39111c66fca70f9172ebe622b3eb5"
      ],
      "is_coinbase": false,
      "sequence": 4294967294
    }
  ],
  "vout": [
    {
      "scriptpubkey": "001406f5d85523c63f0b263fb68c52300cfd238f3472",
      "scriptpubkey_asm": "OP_0 OP_PUSHBYTES_20 06f5d85523c63f0b263fb68c52300cfd238f3472",
      "scriptpubkey_type": "v0_p2wpkh",
      "scriptpubkey_address": "bc1qqm6as4frcclskf3lk6x9yvqvl53c7drjsf8hp2",
      "value": 277125232
    },
    {
      "scriptpubkey": "a914255cb32fa74e8f4dc5dc7381af0a4702a657e11f87",
      "scriptpubkey_asm": "OP_HASH160 OP_PUSHBYTES_20 255cb32fa74e8f4dc5dc7381af0a4702a657e11f OP_EQUAL",
      "scriptpubkey_type": "p2sh",
      "scriptpubkey_address": "356ZyYf8vN1r3CUVnsxi9Pbr4wgWbACNK3",
      "value": 30008900
    }
  ],
  "size": 223,
  "weight": 565,
  "fee": 3480,
  "status": {
    "confirmed": true,
    "block_height": 834638,
    "block_hash": "000000000000000000025f742c626208ac87e0b7d15054abb4a19ca2d735a54e",
    "block_time": 1710405325
  },
  "hex": "020000000001011db581e3a3f4b708e1fdb1aa917c32d6235f8fd6e69ae369470663142d2e59220000000000feffffff02709884100000000016001406f5d85523c63f0b263fb68c52300cfd238f347244e6c9010000000017a914255cb32fa74e8f4dc5dc7381af0a4702a657e11f87024730440220600ec3cf788f8a9ddc6fa3cd42f805f4bdabf91d762c7ea914761dc0fd7df93302200bc26ba039e972b1602c36253cab45a64a1cc7d6187fb93daca0239cd3a2b09d012102734556b35ab654432714862d30bdb8ed8ad39111c66fca70f9172ebe622b3eb54dbc0c00"
}