{
  "txid": "fdaf8b0286c66577d0f8636e37f341e166eb53cab6909f844d2921e75b1f1102",
  "version": 2,
  "locktime": 0,
  "vin": [
    {
      "txid": "50329d1d31adea2dddaeada677c161b737321bd62c4ba69d3ddd53a9c41cea3d",
      "vout": 0,
      "prevout": {
        "scriptpubkey": "51206d06cc16357bf0f665b9cf1ee85533c08fc20bcc765218b4fcbebcece56d8553",
        "scriptpubkey_asm": "OP_PUSHNUM_1 OP_PUSHBYTES_32 6d06cc16357bf0f665b9cf1ee85533c08fc20bcc765218b4fcbebcece56d8553",
        "scriptpubkey_type": "v1_p2tr",
        "scriptpubkey_address": "bc1pd5rvc93400c0vedeeu0ws4fncz8uyz7vwefp3d8uh67weetds4fsr65yyz",
        "value": 4300000
      },
      "scriptsig": "",
      "scriptsig_asm": "",
      "witness": [
        "0fa0f11b7aba07f1d37fe0f078a10501271389aab6ae5c65e15b988dc5c86b217b5d1d99be89b97aa957b9f85e7e04910c27079e6759c93257090987b562daf0"
      ],
      "is_coinbase": false,
      "sequence": 4294967295
    }
  ],
  "vout": [
    {
      "scriptpubkey": "001448dfa704897f78fdfbc2b9534055dd9b219ef5a8",
      "scriptpubkey_asm": "OP_0 OP_PUSHBYTES_20 48dfa704897f78fdfbc2b9534055dd9b219ef5a8",
      "scriptpubkey_type": "v0_p2wpkh",
      "scriptpubkey_address": "bc1qfr06wpyf0au0m77zh9f5q4wanvseaadgq9qhf9",
      "value": 12471
    },
    {
      "scriptpubkey": "51206d06cc16357bf0f665b9cf1ee85533c08fc20bcc765218b4fcbebcece56d8553",
      "scriptpubkey_asm": "OP_PUSHNUM_1 OP_PUSHBYTES_32 6d06cc16357bf0f665b9cf1ee85533c08fc20bcc765218b4fcbebcece56d8553",
      "scriptpubkey_type": "v1_p2tr",
      "scriptpubkey_address": "bc1pd5rvc93400c0vedeeu0ws4fncz8uyz7vwefp3d8uh67weetds4fsr65yyz",
      "value": 4285683
    }
  ],
  "size": 193,
  "weight": 568,
  "fee": 1846,
  "status": {
    "confirmed": true,
    "block_height": 834460,
    "block_hash": "00000000000000000000484a79b643b2524bbce82e5d8a442013fa5b8905ed98",
    "block_time": 1710307468
  },
  "hex": "020000000001013dea1cc4a953dd3d9da64b2cd61b3237b761c177a6adaedd2deaad311d9d32500000000000ffffffff02b73000000000000016001448dfa704897f78fdfbc2b9534055dd9b219ef5a8f3644100000000002251206d06cc16357bf0f665b9cf1ee85533c08fc20bcc765218b4fcbebcece56d855301400fa0f11b7aba07f1d37fe0f078a10501271389aab6ae5c65e15b988dc5c86b217b5d1d99be89b97aa957b9f85e7e04910c27079e6759c93257090987b562daf000000000"
}