{
  "txid": "fdbca523aedad4d9381cefebb0bc5bda407f14dc82293b203d1e2cb848762a74",
  "version": 2,
  "locktime": 0,
  "vin": [
    {
      "txid": "8486ecb4df0880316dd6e82b3971b4df187aff23765bc3a47f8d78bb53aa273c",
      "vout": 91,
      "prevout": {
        "scriptpubkey": "5120b1e20f4650ab0d57c6808d2de89b86059ada16006cabbb10774da4dfdceecb70",
        "scriptpubkey_asm": "OP_PUSHNUM_1 OP_PUSHBYTES_32 b1e20f4650ab0d57c6808d2de89b86059ada16006cabbb10774da4dfdceecb70",
        "scriptpubkey_type": "v1_p2tr",
        "scriptpubkey_address": "bc1pk83q73js4vx4035q35k73xuxqkdd59sqdj4mkyrhfkjdlh8wedcquwh6qx",
        "value": 2575
      },
      "scriptsig": "",
      "scriptsig_asm": "",
      "witness": [
        "02002bb6ff8f8e87305e64a0df140b6a6d9f87e2781995f5c43640aa44e76b7d300138d084a4df5bdb644a81c1144d3282257c29d09d0d0238ac6d326a89dc49",
        "20e7ca657bcf134ee573f72db38df462a8515f3c72b81937d1e42c1fcf9469b6c6ac0063036f726401010a746578742f706c61696e00367b2270223a226272632d3230222c226f70223a226d696e74222c227469636b223a2261616161222c22616d74223a223130303030227d68",
        "c1e7ca657bcf134ee573f72db38df462a8515f3c72b81937d1e42c1fcf9469b6c6"
      ],
      "is_coinbase": false,
      "sequence": 4261412863
    }
  ],
  "vout": [
    {
      "scriptpubkey": "0014ddd7ef12ea6f78edcc1e8e7afa12c01ab59f3339",
      "scriptpubkey_asm": "OP_0 OP_PUSHBYTES_20 ddd7ef12ea6f78edcc1e8e7afa12c01ab59f3339",
      "scriptpubkey_type": "v0_p2wpkh",
      "scriptpubkey_address": "bc1qmht77yh2dauwmnq73ea05ykqr26e7veea8spz6",
      "value": 546
    }
  ],
  "size": 295,
  "weight": 541,
  "fee": 2029,
  "status": {
    "confirmed": true,
    "block_height": 834460,
    "block_hash": "00000000000000000000484a79b643b2524bbce82e5d8a442013fa5b8905ed98",
    "block_time": 1710307468
  },
  "hex": "020000000001013c27aa53bb788d7fa4c35b7623ff7a18dfb471392be8d66d318008dfb4ec86845b00000000fffffffd012202000000000000160014ddd7ef12ea6f78edcc1e8e7afa12c01ab59f3339034002002bb6ff8f8e87305e64a0df140b6a6d9f87e2781995f5c43640aa44e76b7d300138d084a4df5bdb644a81c1144d3282257c29d09d0d0238ac6d326a89dc496e20e7ca657bcf134ee573f72db38df462a8515f3c72b81937d1e42c1fcf9469b6c6ac0063036f726401010a746578742f706c61696e00367b2270223a226272632d3230222c226f70223a226d696e74222c227469636b223a2261616161222c22616d74223a223130303030227d6821c1e7ca657bcf134ee573f72db38df462a8515f3c72b81937d1e42c1fcf9469b6c600000000"
}