{
  "txid": "fddb94f850d234d4870150812d16bfc2ae715ff67498c1b33acaa894b6e5a924",
  "version": 2,
  "locktime": 834637,
  "vin": [
    {
      "txid": "19ee0a6738de73a758c30036b74325289b609263e118af515aa259675ec16b20",
      "vout": 1,
      "prevout": {
        "scriptpubkey": "76a914b12678343df2efc4d4d4c5b2c3827649c7f9be2e88ac",
        "scriptpubkey_asm": "OP_DUP OP_HASH160 OP_PUSHBYTES_20 b12678343df2efc4d4d4c5b2c3827649c7f9be2e OP_EQUALVERIFY OP_CHECKSIG",
        "scriptpubkey_type": "p2pkh",
        "scriptpubkey_address": "1H9ggsAnt39gEZBuLZnjy8KaZHQ98CZNsa",
        "value": 8450200
      },
      "scriptsig": "47304402200de1c10684d488e0304c9b0459a9874f1ed2af5fb55a9a9a931544d5a562b10d02207c3a234c4e0ef835ae0647ba3cce7969d00c10a438a7f4035b32a344d67f89710121037a8d6e03affade7220cb637266a516f6d71c525e0c49ff1c27d5fd2150315006",
      "scriptsig_asm": "OP_PUSHBYTES_71 304402200de1c10684d488e0304c9b0459a9874f1ed2af5fb55a9a9a931544d5a562b10d02207c3a234c4e0ef835ae0647ba3cce7969d00c10a438a7f4035b32a344d67f897101 OP_PUSHBYTES_33 037a8d6e03affade7220cb637266a516f6d71c525e0c49ff1c27d5fd2150315006",
      "is_coinbase": false,
      "sequence": 4294967293
    }
  ],
  "vout": [
    {
      "scriptpubkey": "76a91442f13a50a3fcd149e771ae98496cd1c2aeb43c1e88ac",
      "scriptpubkey_asm": "OP_DUP OP_HASH160 OP_PUSHBYTES_20 42f13a50a3fcd149e771ae98496cd1c2aeb43c1e OP_EQUALVERIFY OP_CHECKSIG",
      "scriptpubkey_type": "p2pkh",
      "scriptpubkey_address": "176xaTnAHCtNAsqT28S4r5U6hKjsUAJCGi",
      "value": 1000000
    },
    {
      "scriptpubkey": "76a9145cbaf03d8c0df4872c924b67d5ea911b6111163488ac",
      "scriptpubkey_asm": "OP_DUP OP_HASH160 OP_PUSHBYTES_20 5cbaf03d8c0df4872c924b67d5ea911b61111634 OP_EQUALVERIFY OP_CHECKSIG",
      "scriptpubkey_type": "p2pkh",
      "scriptpubkey_address": "19TK7MpCK8yC18cMGufufnZzZJ8cSfXgFN",
      "value": 7441000
    }
  ],
  "size": 225,
  "weight": 900,
  "fee": 9200,
  "status": {
    "confirmed": true,
    "block_height": 834638,
    "block_hash": "000000000000000000025f742c626208ac87e0b7d15054abb4a19ca2d735a54e",
    "block_time": 1710405325
  },
  "hex": "0200000001206bc15e6759a25a51af18e16392609b282543b73600c358a773de38670aee19010000006a47304402200de1c10684d488e0304c9b0459a9874f1ed2af5fb55a9a9a931544d5a562b10d02207c3a234c4e0ef835ae0647ba3cce7969d00c10a438a7f4035b32a344d67f89710121037a8d6e03affade7220cb637266a516f6d71c525e0c49ff1c27d5fd2150315006fdffffff0240420f00000000001976a91442f13a50a3fcd149e771ae98496cd1c2aeb43c1e88ac688a7100000000001976a9145cbaf03d8c0df4872c924b67d5ea911b6111163488ac4dbc0c00"
}