{
  "txid": "fde72ccf63b4320bbd96a4b3fd958bdfe5ee5209bef80e95685e78050a889b08",
  "version": 2,
  "locktime": 0,
  "vin": [
    {
      "txid": "d61150ee0d175d5656192a73e33103a1cb55263374756d925a99267280d5c5bf",
      "vout": 1,
      "prevout": {
        "scriptpubkey": "5120534fc66fd35ad5e7b586c14a940ec67ff776fe02a3c9f85a4d61f0a922b07479",
        "scriptpubkey_asm": "OP_PUSHNUM_1 OP_PUSHBYTES_32 534fc66fd35ad5e7b586c14a940ec67ff776fe02a3c9f85a4d61f0a922b07479",
        "scriptpubkey_type": "v1_p2tr",
        "scriptpubkey_address": "bc1p2d8uvm7ntt270dvxc99fgrkx0lmhdlsz50ylskjdv8c2jg4sw3usjr0qk5",
        "value": 782053
      },
      "scriptsig": "",
      "scriptsig_asm": "",
      "witness": [
        "039ad280dd52293b753f880d00bb4a3b92927ec31d5913dfd7f2150c3f33264308e218fd0dfb7ad346dd710772c259a950b9fe9cae80fd15b4d8ef301365da94",
        "20782891272861d4104f524ac31855e20aa1bdb507ac4a6619c030768496b90e84ac",
        "c0782891272861d4104f524ac31855e20aa1bdb507ac4a6619c030768496b90e84"
      ],
      "is_coinbase": false,
      "sequence": 4294967293
    },
    {
      "txid": "5cf5838ec1a20f69603899696bd1c6cbe051cea9f65c7c39518f6eebb0932a49",
      "vout": 12,
      "prevout": {
        "scriptpubkey": "5120534fc66fd35ad5e7b586c14a940ec67ff776fe02a3c9f85a4d61f0a922b07479",
        "scriptpubkey_asm": "OP_PUSHNUM_1 OP_PUSHBYTES_32 534fc66fd35ad5e7b586c14a940ec67ff776fe02a3c9f85a4d61f0a922b07479",
        "scriptpubkey_type": "v1_p2tr",
        "scriptpubkey_address": "bc1p2d8uvm7ntt270dvxc99fgrkx0lmhdlsz50ylskjdv8c2jg4sw3usjr0qk5",
        "value": 1217947
      },
      "scriptsig": "",
      "scriptsig_asm": "",
      "witness": [
        "b67e707ccb3172c4f620f74f116392f7f5093235273dc5ba6284e8c110d9e56aff4cddf4f8458f29a155bb90f4fc9e00d859c253ac488c985ed081a10770a988",
        "20782891272861d4104f524ac31855e20aa1bdb507ac4a6619c030768496b90e84ac",
        "c0782891272861d4104f524ac31855e20aa1bdb507ac4a6619c030768496b90e84"
      ],
      "is_coinbase": false,
      "sequence": 4294967293
    }
  ],
  "vout": [
    {
      "scriptpubkey": "512068a6b4092dd7f4ead75ed8a772d41b824919ceb000896346e57f5feeda935672",
      "scriptpubkey_asm": "OP_PUSHNUM_1 OP_PUSHBYTES_32 68a6b4092dd7f4ead75ed8a772d41b824919ceb000896346e57f5feeda935672",
      "scriptpubkey_type": "v1_p2tr",
      "scriptpubkey_address": "bc1pdzntgzfd6l6w4467mznh94qmsfy3nn4sqzykx3h90a07ak5n2eeq7pae58",
      "value": 1711
    },
    {
      "scriptpubkey": "512068a6b4092dd7f4ead75ed8a772d41b824919ceb000896346e57f5feeda935672",
      "scriptpubkey_asm": "OP_PUSHNUM_1 OP_PUSHBYTES_32 68a6b4092dd7f4ead75ed8a772d41b824919ceb000896346e57f5feeda935672",
      "scriptpubkey_type": "v1_p2tr",
      "scriptpubkey_address": "bc1pdzntgzfd6l6w4467mznh94qmsfy3nn4sqzykx3h90a07ak5n2eeq7pae58",
      "value": 1711
    },
    {
      "scriptpubkey": "512068a6b4092dd7f4ead75ed8a772d41b824919ceb000896346e57f5feeda935672",
      "scriptpubkey_asm": "OP_PUSHNUM_1 OP_PUSHBYTES_32 68a6b4092dd7f4ead75ed8a772d41b824919ceb000896346e57f5feeda935672",
      "scriptpubkey_type": "v1_p2tr",
      "scriptpubkey_address": "bc1pdzntgzfd6l6w4467mznh94qmsfy3nn4sqzykx3h90a07ak5n2eeq7pae58",
      "value": 1711
    },
    {
      "scriptpubkey": "512068a6b4092dd7f4ead75ed8a772d41b824919ceb000896346e57f5feeda935672",
      "scriptpubkey_asm": "OP_PUSHNUM_1 OP_PUSHBYTES_32 68a6b4092dd7f4ead75ed8a772d41b824919ceb000896346e57f5feeda935672",
      "scriptpubkey_type": "v1_p2tr",
      "scriptpubkey_address": "bc1pdzntgzfd6l6w4467mznh94qmsfy3nn4sqzykx3h90a07ak5n2eeq7pae58",
      "value": 1711
    },
    {
      "scriptpubkey": "512068a6b4092dd7f4ead75ed8a772d41b824919ceb000896346e57f5feeda935672",
      "scriptpubkey_asm": "OP_PUSHNUM_1 OP_PUSHBYTES_32 68a6b4092dd7f4ead75ed8a772d41b824919ceb000896346e57f5feeda935672",
      "scriptpubkey_type": "v1_p2tr",
      "scriptpubkey_address": "bc1pdzntgzfd6l6w4467mznh94qmsfy3nn4sqzykx3h90a07ak5n2eeq7pae58",
      "value": 1711
    },
    {
      "scriptpubkey": "512068a6b4092dd7f4ead75ed8a772d41b824919ceb000896346e57f5feeda935672",
      "scriptpubkey_asm": "OP_PUSHNUM_1 OP_PUSHBYTES_32 68a6b4092dd7f4ead75ed8a772d41b824919ceb000896346e57f5feeda935672",
      "scriptpubkey_type": "v1_p2tr",
      "scriptpubkey_address": "bc1pdzntgzfd6l6w4467mznh94qmsfy3nn4sqzykx3h90a07ak5n2eeq7pae58",
      "value": 1711
    },
    {
      "scriptpubkey": "512068a6b4092dd7f4ead75ed8a772d41b824919ceb000896346e57f5feeda935672",
      "scriptpubkey_asm": "OP_PUSHNUM_1 OP_PUSHBYTES_32 68a6b4092dd7f4ead75ed8a772d41b824919ceb000896346e57f5feeda935672",
      "scriptpubkey_type": "v1_p2tr",
      "scriptpubkey_address": "bc1pdzntgzfd6l6w4467mznh94qmsfy3nn4sqzykx3h90a07ak5n2eeq7pae58",
      "value": 1711
    },
    {
      "scriptpubkey": "512068a6b4092dd7f4ead75ed8a772d41b824919ceb000896346e57f5feeda935672",
      "scriptpubkey_asm": "OP_PUSHNUM_1 OP_PUSHBYTES_32 68a6b4092dd7f4ead75ed8a772d41b824919ceb000896346e57f5feeda935672",
      "scriptpubkey_type": "v1_p2tr",
      "scriptpubkey_address": "bc1pdzntgzfd6l6w4467mznh94qmsfy3nn4sqzykx3h90a07ak5n2eeq7pae58",
      "value": 1711
    },
    {
      "scriptpubkey": "512068a6b4092dd7f4ead75ed8a772d41b824919ceb000896346e57f5feeda935672",
      "scriptpubkey_asm": "OP_PUSHNUM_1 OP_PUSHBYTES_32 68a6b4092dd7f4ead75ed8a772d41b824919ceb000896346e57f5feeda935672",
      "scriptpubkey_type": "v1_p2tr",
      "scriptpubkey_address": "bc1pdzntgzfd6l6w4467mznh94qmsfy3nn4sqzykx3h90a07ak5n2eeq7pae58",
      "value": 1711
    },
    {
      "scriptpubkey": "512068a6b4092dd7f4ead75ed8a772d41b824919ceb000896346e57f5feeda935672",
      "scriptpubkey_asm": "OP_PUSHNUM_1 OP_PUSHBYTES_32 68a6b4092dd7f4ead75ed8a772d41b824919ceb000896346e57f5feeda935672",
      "scriptpubkey_type": "v1_p2tr",
      "scriptpubkey_address": "bc1pdzntgzfd6l6w4467mznh94qmsfy3nn4sqzykx3h90a07ak5n2eeq7pae58",
      "value": 1711
    },
    {
      "scriptpubkey": "512068a6b4092dd7f4ead75ed8a772d41b824919ceb000896346e57f5feeda935672",
      "scriptpubkey_asm": "OP_PUSHNUM_1 OP_PUSHBYTES_32 68a6b4092dd7f4ead75ed8a772d41b824919ceb000896346e57f5feeda935672",
      "scriptpubkey_type": "v1_p2tr",
      "scriptpubkey_address": "bc1pdzntgzfd6l6w4467mznh94qmsfy3nn4sqzykx3h90a07ak5n2eeq7pae58",
      "value": 1711
    },
    {
      "scriptpubkey": "512068a6b4092dd7f4ead75ed8a772d41b824919ceb000896346e57f5feeda935672",
      "scriptpubkey_asm": "OP_PUSHNUM_1 OP_PUSHBYTES_32 68a6b4092dd7f4ead75ed8a772d41b824919ceb000896346e57f5feeda935672",
      "scriptpubkey_type": "v1_p2tr",
      "scriptpubkey_address": "bc1pdzntgzfd6l6w4467mznh94qmsfy3nn4sqzykx3h90a07ak5n2eeq7pae58",
      "value": 1711
    },
    {
      "scriptpubkey": "512068a6b4092dd7f4ead75ed8a772d41b824919ceb000896346e57f5feeda935672",
      "scriptpubkey_asm": "OP_PUSHNUM_1 OP_PUSHBYTES_32 68a6b4092dd7f4ead75ed8a772d41b824919ceb000896346e57f5feeda935672",
      "scriptpubkey_type": "v1_p2tr",
      "scriptpubkey_address": "bc1pdzntgzfd6l6w4467mznh94qmsfy3nn4sqzykx3h90a07ak5n2eeq7pae58",
      "value": 1711
    },
    {
      "scriptpubkey": "512068a6b4092dd7f4ead75ed8a772d41b824919ceb000896346e57f5feeda935672",
      "scriptpubkey_asm": "OP_PUSHNUM_1 OP_PUSHBYTES_32 68a6b4092dd7f4ead75ed8a772d41b824919ceb000896346e57f5feeda935672",
      "scriptpubkey_type": "v1_p2tr",
      "scriptpubkey_address": "bc1pdzntgzfd6l6w4467mznh94qmsfy3nn4sqzykx3h90a07ak5n2eeq7pae58",
      "value": 1711
    },
    {
      "scriptpubkey": "512068a6b4092dd7f4ead75ed8a772d41b824919ceb000896346e57f5feeda935672",
      "scriptpubkey_asm": "OP_PUSHNUM_1 OP_PUSHBYTES_32 68a6b4092dd7f4ead75ed8a772d41b824919ceb000896346e57f5feeda935672",
      "scriptpubkey_type": "v1_p2tr",
      "scriptpubkey_address": "bc1pdzntgzfd6l6w4467mznh94qmsfy3nn4sqzykx3h90a07ak5n2eeq7pae58",
      "value": 1711
    },
    {
      "scriptpubkey": "512068a6b4092dd7f4ead75ed8a772d41b824919ceb000896346e57f5feeda935672",
      "scriptpubkey_asm": "OP_PUSHNUM_1 OP_PUSHBYTES_32 68a6b4092dd7f4ead75ed8a772d41b824919ceb000896346e57f5feeda935672",
      "scriptpubkey_type": "v1_p2tr",
      "scriptpubkey_address": "bc1pdzntgzfd6l6w4467mznh94qmsfy3nn4sqzykx3h90a07ak5n2eeq7pae58",
      "value": 1711
    },
    {
      "scriptpubkey": "512068a6b4092dd7f4ead75ed8a772d41b824919ceb000896346e57f5feeda935672",
      "scriptpubkey_asm": "OP_PUSHNUM_1 OP_PUSHBYTES_32 68a6b4092dd7f4ead75ed8a772d41b824919ceb000896346e57f5feeda935672",
      "scriptpubkey_type": "v1_p2tr",
      "scriptpubkey_address": "bc1pdzntgzfd6l6w4467mznh94qmsfy3nn4sqzykx3h90a07ak5n2eeq7pae58",
      "value": 1711
    },
    {
      "scriptpubkey": "512068a6b4092dd7f4ead75ed8a772d41b824919ceb000896346e57f5feeda935672",
      "scriptpubkey_asm": "OP_PUSHNUM_1 OP_PUSHBYTES_32 68a6b4092dd7f4ead75ed8a772d41b824919ceb000896346e57f5feeda935672",
      "scriptpubkey_type": "v1_p2tr",
      "scriptpubkey_address": "bc1pdzntgzfd6l6w4467mznh94qmsfy3nn4sqzykx3h90a07ak5n2eeq7pae58",
      "value": 1711
    },
    {
      "scriptpubkey": "512068a6b4092dd7f4ead75ed8a772d41b824919ceb000896346e57f5feeda935672",
      "scriptpubkey_asm": "OP_PUSHNUM_1 OP_PUSHBYTES_32 68a6b4092dd7f4ead75ed8a772d41b824919ceb000896346e57f5feeda935672",
      "scriptpubkey_type": "v1_p2tr",
      "scriptpubkey_address": "bc1pdzntgzfd6l6w4467mznh94qmsfy3nn4sqzykx3h90a07ak5n2eeq7pae58",
      "value": 1711
    },
    {
      "scriptpubkey": "512068a6b4092dd7f4ead75ed8a772d41b824919ceb000896346e57f5feeda935672",
      "scriptpubkey_asm": "OP_PUSHNUM_1 OP_PUSHBYTES_32 68a6b4092dd7f4ead75ed8a772d41b824919ceb000896346e57f5feeda935672",
      "scriptpubkey_type": "v1_p2tr",
      "scriptpubkey_address": "bc1pdzntgzfd6l6w4467mznh94qmsfy3nn4sqzykx3h90a07ak5n2eeq7pae58",
      "value": 1711
    },
    {
      "scriptpubkey": "512068a6b4092dd7f4ead75ed8a772d41b824919ceb000896346e57f5feeda935672",
      "scriptpubkey_asm": "OP_PUSHNUM_1 OP_PUSHBYTES_32 68a6b4092dd7f4ead75ed8a772d41b824919ceb000896346e57f5feeda935672",
      "scriptpubkey_type": "v1_p2tr",
      "scriptpubkey_address": "bc1pdzntgzfd6l6w4467mznh94qmsfy3nn4sqzykx3h90a07ak5n2eeq7pae58",
      "value": 1711
    },
    {
      "scriptpubkey": "512068a6b4092dd7f4ead75ed8a772d41b824919ceb000896346e57f5feeda935672",
      "scriptpubkey_asm": "OP_PUSHNUM_1 OP_PUSHBYTES_32 68a6b4092dd7f4ead75ed8a772d41b824919ceb000896346e57f5feeda935672",
      "scriptpubkey_type": "v1_p2tr",
      "scriptpubkey_address": "bc1pdzntgzfd6l6w4467mznh94qmsfy3nn4sqzykx3h90a07ak5n2eeq7pae58",
      "value": 1711
    },
    {
      "scriptpubkey": "512068a6b4092dd7f4ead75ed8a772d41b824919ceb000896346e57f5feeda935672",
      "scriptpubkey_asm": "OP_PUSHNUM_1 OP_PUSHBYTES_32 68a6b4092dd7f4ead75ed8a772d41b824919ceb000896346e57f5feeda935672",
      "scriptpubkey_type": "v1_p2tr",
      "scriptpubkey_address": "bc1pdzntgzfd6l6w4467mznh94qmsfy3nn4sqzykx3h90a07ak5n2eeq7pae58",
      "value": 1711
    },
    {
      "scriptpubkey": "512068a6b4092dd7f4ead75ed8a772d41b824919ceb000896346e57f5feeda935672",
      "scriptpubkey_asm": "OP_PUSHNUM_1 OP_PUSHBYTES_32 68a6b4092dd7f4ead75ed8a772d41b824919ceb000896346e57f5feeda935672",
      "scriptpubkey_type": "v1_p2tr",
      "scriptpubkey_address": "bc1pdzntgzfd6l6w4467mznh94qmsfy3nn4sqzykx3h90a07ak5n2eeq7pae58",
      "value": 1711
    },
    {
      "scriptpubkey": "512068a6b4092dd7f4ead75ed8a772d41b824919ceb000896346e57f5feeda935672",
      "scriptpubkey_asm": "OP_PUSHNUM_1 OP_PUSHBYTES_32 68a6b4092dd7f4ead75ed8a772d41b824919ceb000896346e57f5feeda935672",
      "scriptpubkey_type": "v1_p2tr",
      "scriptpubkey_address": "bc1pdzntgzfd6l6w4467mznh94qmsfy3nn4sqzykx3h90a07ak5n2eeq7pae58",
      "value": 1711
    },
    {
      "scriptpubkey": "5120534fc66fd35ad5e7b586c14a940ec67ff776fe02a3c9f85a4d61f0a922b07479",
      "scriptpubkey_asm": "OP_PUSHNUM_1 OP_PUSHBYTES_32 534fc66fd35ad5e7b586c14a940ec67ff776fe02a3c9f85a4d61f0a922b07479",
      "scriptpubkey_type": "v1_p2tr",
      "scriptpubkey_address": "bc1p2d8uvm7ntt270dvxc99fgrkx0lmhdlsz50ylskjdv8c2jg4sw3usjr0qk5",
      "value": 1940994
    }
  ],
  "size": 1482,
  "weight": 5112,
  "fee": 16231,
  "status": {
    "confirmed": true,
    "block_height": 834460,
    "block_hash": "00000000000000000000484a79b643b2524bbce82e5d8a442013fa5b8905ed98",
    "block_time": 1710307468
  },
  "hex": "02000000000102bfc5d5807226995a926d7574332655cba10331e3732a1956565d170dee5011d60100000000fdffffff492a93b0eb6e8f51397c5cf6a9ce51e0cbc6d16b69993860690fa2c18e83f55c0c00000000fdffffff1aaf0600000000000022512068a6b4092dd7f4ead75ed8a772d41b824919ceb000896346e57f5feeda935672af0600000000000022512068a6b4092dd7f4ead75ed8a772d41b824919ceb000896346e57f5feeda935672af0600000000000022512068a6b4092dd7f4ead75ed8a772d41b824919ceb000896346e57f5feeda935672af0600000000000022512068a6b4092dd7f4ead75ed8a772d41b824919ceb000896346e57f5feeda935672af0600000000000022512068a6b4092dd7f4ead75ed8a772d41b824919ceb000896346e57f5feeda935672af0600000000000022512068a6b4092dd7f4ead75ed8a772d41b824919ceb000896346e57f5feeda935672af0600000000000022512068a6b4092dd7f4ead75ed8a772d41b824919ceb000896346e57f5feeda935672af0600000000000022512068a6b4092dd7f4ead75ed8a772d41b824919ceb000896346e57f5feeda935672af0600000000000022512068a6b4092dd7f4ead75ed8a772d41b824919ceb000896346e57f5feeda935672af0600000000000022512068a6b4092dd7f4ead75ed8a772d41b824919ceb000896346e57f5feeda935672af0600000000000022512068a6b4092dd7f4ead75ed8a772d41b824919ceb000896346e57f5feeda935672af0600000000000022512068a6b4092dd7f4ead75ed8a772d41b824919ceb000896346e57f5feeda935672af0600000000000022512068a6b4092dd7f4ead75ed8a772d41b824919ceb000896346e57f5feeda935672af0600000000000022512068a6b4092dd7f4ead75ed8a772d41b824919ceb000896346e57f5feeda935672af0600000000000022512068a6b4092dd7f4ead75ed8a772d41b824919ceb000896346e57f5feeda935672af0600000000000022512068a6b4092dd7f4ead75ed8a772d41b824919ceb000896346e57f5feeda935672af0600000000000022512068a6b4092dd7f4ead75ed8a772d41b824919ceb000896346e57f5feeda935672af0600000000000022512068a6b4092dd7f4ead75ed8a772d41b824919ceb000896346e57f5feeda935672af0600000000000022512068a6b4092dd7f4ead75ed8a772d41b824919ceb000896346e57f5feeda935672af0600000000000022512068a6b4092dd7f4ead75ed8a772d41b824919ceb000896346e57f5feeda935672af0600000000000022512068a6b4092dd7f4ead75ed8a772d41b824919ceb000896346e57f5feeda935672af0600000000000022512068a6b4092dd7f4ead75ed8a772d41b824919ceb000896346e57f5feeda935672af0600000000000022512068a6b4092dd7f4ead75ed8a772d41b824919ceb000896346e57f5feeda935672af0600000000000022512068a6b4092dd7f4ead75ed8a772d41b824919ceb000896346e57f5feeda935672af0600000000000022512068a6b4092dd7f4ead75ed8a772d41b824919ceb000896346e57f5feeda935672029e1d0000000000225120534fc66fd35ad5e7b586c14a940ec67ff776fe02a3c9f85a4d61f0a922b074790340039ad280dd52293b753f880d00bb4a3b92927ec31d5913dfd7f2150c3f33264308e218fd0dfb7ad346dd710772c259a950b9fe9cae80fd15b4d8ef301365da942220782891272861d4104f524ac31855e20aa1bdb507ac4a6619c030768496b90e84ac21c0782891272861d4104f524ac31855e20aa1bdb507ac4a6619c030768496b90e840340b67e707ccb3172c4f620f74f116392f7f5093235273dc5ba6284e8c110d9e56aff4cddf4f8458f29a155bb90f4fc9e00d859c253ac488c985ed081a10770a9882220782891272861d4104f524ac31855e20aa1bdb507ac4a6619c030768496b90e84ac21c0782891272861d4104f524ac31855e20aa1bdb507ac4a6619c030768496b90e8400000000"
}