{
  "txid": "fdec7f88568b3eec307146a2d1f170922f7e135c910da21c6a7aa446d39f76ed",
  "version": 1,
  "locktime": 0,
  "vin": [
    {
      "txid": "86fff7253255f412eb4456c3ef80318671c081e96aaec27b7b90ae0b51449311",
      "vout": 1,
      "prevout": {
        "scriptpubkey": "0014580f189fc9cd886d7bdb087471b48ebb20a2546d",
        "scriptpubkey_asm": "OP_0 OP_PUSHBYTES_20 580f189fc9cd886d7bdb087471b48ebb20a2546d",
        "scriptpubkey_type": "v0_p2wpkh",
        "scriptpubkey_address": "bc1qtq83387fekyx677mpp68rdywhvs2y4rdjfalxk",
        "value": 894484
      },
      "scriptsig": "",
      "scriptsig_asm": "",
      "witness": [
        "3045022100c8a2eac72b02b65ae2c2b8cc6983d073815e4c9606b68ef21cbd32a23d9c4e4f022062478d35897949cabb34acbb1656e915263f10c9d6078c0128429d1d625e23dc01",
        "02753bfa02297f5254f42b843da2d452aec7c5c5d54b32c22bbb849d8ccfa7e405"
      ],
      "is_coinbase": false,
      "sequence": 4294967295
    }
  ],
  "vout": [
    {
      "scriptpubkey": "00147cf2b85101f50a1e8d22605b2c1f4f9d9ead3406",
      "scriptpubkey_asm": "OP_0 OP_PUSHBYTES_20 7cf2b85101f50a1e8d22605b2c1f4f9d9ead3406",
      "scriptpubkey_type": "v0_p2wpkh",
      "scriptpubkey_address": "bc1q0nets5gp759parfzvpdjc860nk026dqx9s4229",
      "value": 25300
    },
    {
      "scriptpubkey": "00142f70d21275960275330445d6e3920a1debedac01",
      "scriptpubkey_asm": "OP_0 OP_PUSHBYTES_20 2f70d21275960275330445d6e3920a1debedac01",
      "scriptpubkey_type": "v0_p2wpkh",
      "scriptpubkey_address": "bc1q9acdyyn4jcp82vcyghtw8ys2rh47mtqp33um0f",
      "value": 865456
    }
  ],
  "size": 223,
  "weight": 562,
  "fee": 3728,
  "status": {
    "confirmed": true,
    "block_height": 834638,
    "block_hash": "000000000000000000025f742c626208ac87e0b7d15054abb4a19ca2d735a54e",
    "block_time": 1710405325
  },
  "hex": "01000000000101119344510bae907b7bc2ae6ae981c071863180efc35644eb12f4553225f7ff860100000000ffffffff02d4620000000000001600147cf2b85101f50a1e8d22605b2c1f4f9d9ead3406b0340d00000000001600142f70d21275960275330445d6e3920a1debedac0102483045022100c8a2eac72b02b65ae2c2b8cc6983d073815e4c9606b68ef21cbd32a23d9c4e4f022062478d35897949cabb34acbb1656e915263f10c9d6078c0128429d1d625e23dc012102753bfa02297f5254f42b843da2d452aec7c5c5d54b32c22bbb849d8ccfa7e40500000000"
}