{
  "txid": "fdfe351d0f5b651456397520651fe34174ae571ce66f2e3dc76d814485ce19df",
  "version": 1,
  "locktime": 0,
  "vin": [
    {
      "txid": "888888849d21980b46d02013059f310166164ed27126606bceb8a09072dc8605",
      "vout": 0,
      "prevout": {
        "scriptpubkey": "5120759e2ba6f1be3659f293bfb75ccae2406688ba68a3e6e5b1c5333de8cf65b919",
        "scriptpubkey_asm": "OP_PUSHNUM_1 OP_PUSHBYTES_32 759e2ba6f1be3659f293bfb75ccae2406688ba68a3e6e5b1c5333de8cf65b919",
        "scriptpubkey_type": "v1_p2tr",
        "scriptpubkey_address": "bc1pwk0zhfh3hcm9nu5nh7m4ejhzgpng3wng50nwtvw9xv773nm9hyvs97z00e",
        "value": 11627
      },
      "scriptsig": "",
      "scriptsig_asm": "",
      "witness": [
        "5b6e1854db4339767a6a15c69a877532fb5968ac9c3c88547243040acadcfc2bc4ed8a79b8121a8f98a421ea804c16756ab1dc716a3e190b6a5c1374d3c8706583",
        "206e52c938c29c99e9a77647b2895f750d08ffac8b4128f105ecf15445f35d3cc5ac00630461746f6d03646d7442a16461726773a468626974776f726b6367383838383838386b6d696e745f7469636b657268696e66696e697479656e6f6e63651a006f5e0c6474696d651a65dc62b268",
        "c16e52c938c29c99e9a77647b2895f750d08ffac8b4128f105ecf15445f35d3cc5"
      ],
      "is_coinbase": false,
      "sequence": 4294967293
    }
  ],
  "vout": [
    {
      "scriptpubkey": "5120bf94882e5d0c036449dc3f1782adc8fe707e6d03ea0ecdd97e048b8da94a44b1",
      "scriptpubkey_asm": "OP_PUSHNUM_1 OP_PUSHBYTES_32 bf94882e5d0c036449dc3f1782adc8fe707e6d03ea0ecdd97e048b8da94a44b1",
      "scriptpubkey_type": "v1_p2tr",
      "scriptpubkey_address": "bc1ph72gstjapspkgjwu8utc9twglec8umgrag8vmkt7qj9cm222gjcsurlt3p",
      "value": 9999
    }
  ],
  "size": 311,
  "weight": 593,
  "fee": 1628,
  "status": {
    "confirmed": true,
    "block_height": 834464,
    "block_hash": "0000000000000000000177a0869a911a2b65c9bdcd5a8bcb02b68f305bee848e",
    "block_time": 1710308296
  },
  "hex": "010000000001010586dc7290a0b8ce6b602671d24e166601319f051320d0460b98219d848888880000000000fdffffff010f27000000000000225120bf94882e5d0c036449dc3f1782adc8fe707e6d03ea0ecdd97e048b8da94a44b103415b6e1854db4339767a6a15c69a877532fb5968ac9c3c88547243040acadcfc2bc4ed8a79b8121a8f98a421ea804c16756ab1dc716a3e190b6a5c1374d3c870658371206e52c938c29c99e9a77647b2895f750d08ffac8b4128f105ecf15445f35d3cc5ac00630461746f6d03646d7442a16461726773a468626974776f726b6367383838383838386b6d696e745f7469636b657268696e66696e697479656e6f6e63651a006f5e0c6474696d651a65dc62b26821c16e52c938c29c99e9a77647b2895f750d08ffac8b4128f105ecf15445f35d3cc500000000"
}