{
  "txid": "fe0880764cc9d15669dd6a23f70d54f4d15415286b7daaecffa54f940e64bdb1",
  "version": 1,
  "locktime": 0,
  "vin": [
    {
      "txid": "444a7e292fe9daf1622afcb25e9865ad27ac59bf47f3aae655b48ed41a959d9c",
      "vout": 0,
      "prevout": {
        "scriptpubkey": "001439dd7fe75dc6cd8555db5f589550afd953ca0715",
        "scriptpubkey_asm": "OP_0 OP_PUSHBYTES_20 39dd7fe75dc6cd8555db5f589550afd953ca0715",
        "scriptpubkey_type": "v0_p2wpkh",
        "scriptpubkey_address": "bc1q88whle6acmxc24wmtavf2590m9fu5pc479tm7f",
        "value": 2391695
      },
      "scriptsig": "",
      "scriptsig_asm": "",
      "witness": [
        "3044022058c43c61408cdd248f8eb7445afac0ac018a0cffd81c03aabe7b76dc534d6437022018ffb90d4c8050fdf9557db8b7e082e88d18367c504b299dbfd874c30c2f36c601",
        "02f7600f4b42b8567223fdad058d1aa1ae432d574c925e57a452961f19c57b9aa5"
      ],
      "is_coinbase": false,
      "sequence": 4294967295
    },
    {
      "txid": "4dd0820443d3de31b86e20b5dd422a50d4bbb89347f84d53257a65b6419d7130",
      "vout": 1,
      "prevout": {
        "scriptpubkey": "001439dd7fe75dc6cd8555db5f589550afd953ca0715",
        "scriptpubkey_asm": "OP_0 OP_PUSHBYTES_20 39dd7fe75dc6cd8555db5f589550afd953ca0715",
        "scriptpubkey_type": "v0_p2wpkh",
        "scriptpubkey_address": "bc1q88whle6acmxc24wmtavf2590m9fu5pc479tm7f",
        "value": 6208822
      },
      "scriptsig": "",
      "scriptsig_asm": "",
      "witness": [
        "3044022033bde7757dfa3f86e8b6e33736f9946073e874a0dedafdefd372efb4524924910220384983d40efb227f071463040c09b88ce43da19c15118b9f5874e736147f543401",
        "02f7600f4b42b8567223fdad058d1aa1ae432d574c925e57a452961f19c57b9aa5"
      ],
      "is_coinbase": false,
      "sequence": 4294967295
    },
    {
      "txid": "d387ee2beb7e9950675680fe62ab31f77f46c5517300fda7a21ea83acd74ba96",
      "vout": 143,
      "prevout": {
        "scriptpubkey": "001439dd7fe75dc6cd8555db5f589550afd953ca0715",
        "scriptpubkey_asm": "OP_0 OP_PUSHBYTES_20 39dd7fe75dc6cd8555db5f589550afd953ca0715",
        "scriptpubkey_type": "v0_p2wpkh",
        "scriptpubkey_address": "bc1q88whle6acmxc24wmtavf2590m9fu5pc479tm7f",
        "value": 261533
      },
      "scriptsig": "",
      "scriptsig_asm": "",
      "witness": [
        "3045022100e4085e9a8672febd6f361a1b18918d4768a19b22abc2bb63ef54c0b0f0671e8302202955dca7b00207ecceb4fa6cc52f77bf1165dcbbde8fb0b94a02723a3c12865901",
        "02f7600f4b42b8567223fdad058d1aa1ae432d574c925e57a452961f19c57b9aa5"
      ],
      "is_coinbase": false,
      "sequence": 4294967295
    }
  ],
  "vout": [
    {
      "scriptpubkey": "a9149abc9b39e89cab06233af60b4c118577df5d335e87",
      "scriptpubkey_asm": "OP_HASH160 OP_PUSHBYTES_20 9abc9b39e89cab06233af60b4c118577df5d335e OP_EQUAL",
      "scriptpubkey_type": "p2sh",
      "scriptpubkey_address": "3FoBvgficyB8178i1MxkKWAe7tS6vmw6et",
      "value": 8855381
    }
  ],
  "size": 489,
  "weight": 984,
  "fee": 6669,
  "status": {
    "confirmed": true,
    "block_height": 834638,
    "block_hash": "000000000000000000025f742c626208ac87e0b7d15054abb4a19ca2d735a54e",
    "block_time": 1710405325
  },
  "hex": "010000000001039c9d951ad48eb455e6aaf347bf59ac27ad65985eb2fc2a62f1dae92f297e4a440000000000ffffffff30719d41b6657a25534df84793b8bbd4502a42ddb5206eb831ded3430482d04d0100000000ffffffff96ba74cd3aa81ea2a7fd007351c5467ff731ab62fe80566750997eeb2bee87d38f00000000ffffffff01551f87000000000017a9149abc9b39e89cab06233af60b4c118577df5d335e8702473044022058c43c61408cdd248f8eb7445afac0ac018a0cffd81c03aabe7b76dc534d6437022018ffb90d4c8050fdf9557db8b7e082e88d18367c504b299dbfd874c30c2f36c6012102f7600f4b42b8567223fdad058d1aa1ae432d574c925e57a452961f19c57b9aa502473044022033bde7757dfa3f86e8b6e33736f9946073e874a0dedafdefd372efb4524924910220384983d40efb227f071463040c09b88ce43da19c15118b9f5874e736147f5434012102f7600f4b42b8567223fdad058d1aa1ae432d574c925e57a452961f19c57b9aa502483045022100e4085e9a8672febd6f361a1b18918d4768a19b22abc2bb63ef54c0b0f0671e8302202955dca7b00207ecceb4fa6cc52f77bf1165dcbbde8fb0b94a02723a3c128659012102f7600f4b42b8567223fdad058d1aa1ae432d574c925e57a452961f19c57b9aa500000000"
}