{
  "txid": "fe0b4888fc607c0bd706d7955de35c0eb30e0a99c67963b02cc1f2b2c9900d7b",
  "version": 2,
  "locktime": 0,
  "vin": [
    {
      "txid": "42ccf6be2f4140bf4e3c64c0a806a3dc7d59805d9d34c978eee264939219e8c5",
      "vout": 0,
      "prevout": {
        "scriptpubkey": "a9146a8f9cfd84ae7b6fa9ff6ba853b47f5d954bb1cb87",
        "scriptpubkey_asm": "OP_HASH160 OP_PUSHBYTES_20 6a8f9cfd84ae7b6fa9ff6ba853b47f5d954bb1cb OP_EQUAL",
        "scriptpubkey_type": "p2sh",
        "scriptpubkey_address": "3BQTbJQMSYGRCd92SdrDhArjpZ74vp4V62",
        "value": 4139490
      },
      "scriptsig": "160014dc65df9a877f575786edd99ae07ba53d839eff0b",
      "scriptsig_asm": "OP_PUSHBYTES_22 0014dc65df9a877f575786edd99ae07ba53d839eff0b",
      "witness": [
        "3045022100a286310d4fab7e0726902eedcafe71be86b47bdc91757a86f41bb1b538b520fc02200c512a71667d2d6f3148320ca6b55115c77b7166d3ee7337cc0a8e9f7455a74a01",
        "03f6268f0c3a13469b844fdb9460dbd21fbd0ffba23f3725acdc21a016d2fd0732"
      ],
      "is_coinbase": false,
      "sequence": 4294967295,
      "inner_redeemscript_asm": "OP_0 OP_PUSHBYTES_20 dc65df9a877f575786edd99ae07ba53d839eff0b"
    }
  ],
  "vout": [
    {
      "scriptpubkey": "a9146a8f9cfd84ae7b6fa9ff6ba853b47f5d954bb1cb87",
      "scriptpubkey_asm": "OP_HASH160 OP_PUSHBYTES_20 6a8f9cfd84ae7b6fa9ff6ba853b47f5d954bb1cb OP_EQUAL",
      "scriptpubkey_type": "p2sh",
      "scriptpubkey_address": "3BQTbJQMSYGRCd92SdrDhArjpZ74vp4V62",
      "value": 600
    },
    {
      "scriptpubkey": "a9146a8f9cfd84ae7b6fa9ff6ba853b47f5d954bb1cb87",
      "scriptpubkey_asm": "OP_HASH160 OP_PUSHBYTES_20 6a8f9cfd84ae7b6fa9ff6ba853b47f5d954bb1cb OP_EQUAL",
      "scriptpubkey_type": "p2sh",
      "scriptpubkey_address": "3BQTbJQMSYGRCd92SdrDhArjpZ74vp4V62",
      "value": 600
    },
    {
      "scriptpubkey": "a9146a8f9cfd84ae7b6fa9ff6ba853b47f5d954bb1cb87",
      "scriptpubkey_asm": "OP_HASH160 OP_PUSHBYTES_20 6a8f9cfd84ae7b6fa9ff6ba853b47f5d954bb1cb OP_EQUAL",
      "scriptpubkey_type": "p2sh",
      "scriptpubkey_address": "3BQTbJQMSYGRCd92SdrDhArjpZ74vp4V62",
      "value": 600
    },
    {
      "scriptpubkey": "a9146a8f9cfd84ae7b6fa9ff6ba853b47f5d954bb1cb87",
      "scriptpubkey_asm": "OP_HASH160 OP_PUSHBYTES_20 6a8f9cfd84ae7b6fa9ff6ba853b47f5d954bb1cb OP_EQUAL",
      "scriptpubkey_type": "p2sh",
      "scriptpubkey_address": "3BQTbJQMSYGRCd92SdrDhArjpZ74vp4V62",
      "value": 600
    },
    {
      "scriptpubkey": "a9146a8f9cfd84ae7b6fa9ff6ba853b47f5d954bb1cb87",
      "scriptpubkey_asm": "OP_HASH160 OP_PUSHBYTES_20 6a8f9cfd84ae7b6fa9ff6ba853b47f5d954bb1cb OP_EQUAL",
      "scriptpubkey_type": "p2sh",
      "scriptpubkey_address": "3BQTbJQMSYGRCd92SdrDhArjpZ74vp4V62",
      "value": 600
    },
    {
      "scriptpubkey": "a9146a8f9cfd84ae7b6fa9ff6ba853b47f5d954bb1cb87",
      "scriptpubkey_asm": "OP_HASH160 OP_PUSHBYTES_20 6a8f9cfd84ae7b6fa9ff6ba853b47f5d954bb1cb OP_EQUAL",
      "scriptpubkey_type": "p2sh",
      "scriptpubkey_address": "3BQTbJQMSYGRCd92SdrDhArjpZ74vp4V62",
      "value": 600
    },
    {
      "scriptpubkey": "a9146a8f9cfd84ae7b6fa9ff6ba853b47f5d954bb1cb87",
      "scriptpubkey_asm": "OP_HASH160 OP_PUSHBYTES_20 6a8f9cfd84ae7b6fa9ff6ba853b47f5d954bb1cb OP_EQUAL",
      "scriptpubkey_type": "p2sh",
      "scriptpubkey_address": "3BQTbJQMSYGRCd92SdrDhArjpZ74vp4V62",
      "value": 600
    },
    {
      "scriptpubkey": "a9146a8f9cfd84ae7b6fa9ff6ba853b47f5d954bb1cb87",
      "scriptpubkey_asm": "OP_HASH160 OP_PUSHBYTES_20 6a8f9cfd84ae7b6fa9ff6ba853b47f5d954bb1cb OP_EQUAL",
      "scriptpubkey_type": "p2sh",
      "scriptpubkey_address": "3BQTbJQMSYGRCd92SdrDhArjpZ74vp4V62",
      "value": 600
    },
    {
      "scriptpubkey": "a9146a8f9cfd84ae7b6fa9ff6ba853b47f5d954bb1cb87",
      "scriptpubkey_asm": "OP_HASH160 OP_PUSHBYTES_20 6a8f9cfd84ae7b6fa9ff6ba853b47f5d954bb1cb OP_EQUAL",
      "scriptpubkey_type": "p2sh",
      "scriptpubkey_address": "3BQTbJQMSYGRCd92SdrDhArjpZ74vp4V62",
      "value": 600
    },
    {
      "scriptpubkey": "a9146a8f9cfd84ae7b6fa9ff6ba853b47f5d954bb1cb87",
      "scriptpubkey_asm": "OP_HASH160 OP_PUSHBYTES_20 6a8f9cfd84ae7b6fa9ff6ba853b47f5d954bb1cb OP_EQUAL",
      "scriptpubkey_type": "p2sh",
      "scriptpubkey_address": "3BQTbJQMSYGRCd92SdrDhArjpZ74vp4V62",
      "value": 600
    },
    {
      "scriptpubkey": "a9146a8f9cfd84ae7b6fa9ff6ba853b47f5d954bb1cb87",
      "scriptpubkey_asm": "OP_HASH160 OP_PUSHBYTES_20 6a8f9cfd84ae7b6fa9ff6ba853b47f5d954bb1cb OP_EQUAL",
      "scriptpubkey_type": "p2sh",
      "scriptpubkey_address": "3BQTbJQMSYGRCd92SdrDhArjpZ74vp4V62",
      "value": 4125772
    }
  ],
  "size": 536,
  "weight": 1814,
  "fee": 7718,
  "status": {
    "confirmed": true,
    "block_height": 834638,
    "block_hash": "000000000000000000025f742c626208ac87e0b7d15054abb4a19ca2d735a54e",
    "block_time": 1710405325
  },
  "hex": "02000000000101c5e819929364e2ee78c9349d5d80597ddca306a8c0643c4ebf40412fbef6cc420000000017160014dc65df9a877f575786edd99ae07ba53d839eff0bffffffff0b580200000000000017a9146a8f9cfd84ae7b6fa9ff6ba853b47f5d954bb1cb87580200000000000017a9146a8f9cfd84ae7b6fa9ff6ba853b47f5d954bb1cb87580200000000000017a9146a8f9cfd84ae7b6fa9ff6ba853b47f5d954bb1cb87580200000000000017a9146a8f9cfd84ae7b6fa9ff6ba853b47f5d954bb1cb87580200000000000017a9146a8f9cfd84ae7b6fa9ff6ba853b47f5d954bb1cb87580200000000000017a9146a8f9cfd84ae7b6fa9ff6ba853b47f5d954bb1cb87580200000000000017a9146a8f9cfd84ae7b6fa9ff6ba853b47f5d954bb1cb87580200000000000017a9146a8f9cfd84ae7b6fa9ff6ba853b47f5d954bb1cb87580200000000000017a9146a8f9cfd84ae7b6fa9ff6ba853b47f5d954bb1cb87580200000000000017a9146a8f9cfd84ae7b6fa9ff6ba853b47f5d954bb1cb874cf43e000000000017a9146a8f9cfd84ae7b6fa9ff6ba853b47f5d954bb1cb8702483045022100a286310d4fab7e0726902eedcafe71be86b47bdc91757a86f41bb1b538b520fc02200c512a71667d2d6f3148320ca6b55115c77b7166d3ee7337cc0a8e9f7455a74a012103f6268f0c3a13469b844fdb9460dbd21fbd0ffba23f3725acdc21a016d2fd073200000000"
}