{
  "txid": "fe1ce018c06b424b7941c02c4740ec944c049c239d9c2418d626931d692af0bb",
  "version": 2,
  "locktime": 0,
  "vin": [
    {
      "txid": "80ab6891145d04f1052a6671f978804dcc386dae154b6ac4d1c45ac2e5ef3140",
      "vout": 0,
      "prevout": {
        "scriptpubkey": "00146a9d38bc573fda8921e760ad843c77a8d2cdc5fb",
        "scriptpubkey_asm": "OP_0 OP_PUSHBYTES_20 6a9d38bc573fda8921e760ad843c77a8d2cdc5fb",
        "scriptpubkey_type": "v0_p2wpkh",
        "scriptpubkey_address": "bc1qd2wn30zh8ldgjg08vzkcg0rh4rfvm30m3qlg0w",
        "value": 8864
      },
      "scriptsig": "",
      "scriptsig_asm": "",
      "witness": [
        "304402201964b48c7e2191ced6abac6c918456c91604e010758126ab28954988ab65968f022012eff125d827e97c2014ac2465b5f8d2feef881478d1a8958c55b3128e07d66401",
        "02772d9d1545d97cfc53ca47b8c094d801c35f294914e74b7aea8ff7848a9d9999"
      ],
      "is_coinbase": false,
      "sequence": 4294967295
    }
  ],
  "vout": [
    {
      "scriptpubkey": "76a91497752bb8d2071a7726de629aa1320370927fee7e88ac",
      "scriptpubkey_asm": "OP_DUP OP_HASH160 OP_PUSHBYTES_20 97752bb8d2071a7726de629aa1320370927fee7e OP_EQUALVERIFY OP_CHECKSIG",
      "scriptpubkey_type": "p2pkh",
      "scriptpubkey_address": "1EoqQ8rvRJATMV3VwBcVat9gwsR8TyDKTf",
      "value": 7198
    }
  ],
  "size": 194,
  "weight": 449,
  "fee": 1666,
  "status": {
    "confirmed": true,
    "block_height": 834460,
    "block_hash": "00000000000000000000484a79b643b2524bbce82e5d8a442013fa5b8905ed98",
    "block_time": 1710307468
  },
  "hex": "020000000001014031efe5c25ac4d1c46a4b15ae6d38cc4d8078f971662a05f1045d149168ab800000000000ffffffff011e1c0000000000001976a91497752bb8d2071a7726de629aa1320370927fee7e88ac0247304402201964b48c7e2191ced6abac6c918456c91604e010758126ab28954988ab65968f022012eff125d827e97c2014ac2465b5f8d2feef881478d1a8958c55b3128e07d664012102772d9d1545d97cfc53ca47b8c094d801c35f294914e74b7aea8ff7848a9d999900000000"
}