{
  "txid": "fe1e001716914fec7c17357fab233efb81cc67772a559dfad42174174522af25",
  "version": 2,
  "locktime": 0,
  "vin": [
    {
      "txid": "3281141ede384d0cb10777f0b21f0ab8c71c16a8e74c4d1b675a6e889864ade2",
      "vout": 1,
      "prevout": {
        "scriptpubkey": "00147a5358f27f414dffd77cccef448fb7f572f35643",
        "scriptpubkey_asm": "OP_0 OP_PUSHBYTES_20 7a5358f27f414dffd77cccef448fb7f572f35643",
        "scriptpubkey_type": "v0_p2wpkh",
        "scriptpubkey_address": "bc1q0ff43unlg9xll4muenh5frah74e0x4jrd7rvgl",
        "value": 72568
      },
      "scriptsig": "",
      "scriptsig_asm": "",
      "witness": [
        "304502210084f590387105ed69c44ecc1f29de8f7b587d0d3d54e5020060d8f525584a890a022006be219e418c465ef9a882f59b86c09563e615139b28c7274fd6e94baef9a88701",
        "03fd229457b2c4b2dbbfb0c0dff8415cf29fe9a27f65c10620c63155d6a38fa9ef"
      ],
      "is_coinbase": false,
      "sequence": 4294967295
    },
    {
      "txid": "7d08f30dcb068b6935d83d22faf79c86acc7c3288b9041f474de8d990feaba37",
      "vout": 66,
      "prevout": {
        "scriptpubkey": "001431f6508c80f37373cec742421f8dcbae9da0c294",
        "scriptpubkey_asm": "OP_0 OP_PUSHBYTES_20 31f6508c80f37373cec742421f8dcbae9da0c294",
        "scriptpubkey_type": "v0_p2wpkh",
        "scriptpubkey_address": "bc1qx8m9pryq7deh8nk8gfpplrwt46w6ps55vda5ve",
        "value": 469687
      },
      "scriptsig": "",
      "scriptsig_asm": "",
      "witness": [
        "3045022100ddaaf89a0caa3ae7b35b5763aee1b3a3b6d6bf9ee365fa733e3fa583b1795a320220459a53511a8f352e79ba96affd5afd076c8fa31d5600f430fbeca2b8bd077bea01",
        "02cfd33928b41c41e8192b0d96957bd1ebf65e3a5dd305cc7bc7a295ece0b8a21a"
      ],
      "is_coinbase": false,
      "sequence": 4294967295
    }
  ],
  "vout": [
    {
      "scriptpubkey": "76a914d24545d6c867a6474a13b094bb989db2ba2c39cb88ac",
      "scriptpubkey_asm": "OP_DUP OP_HASH160 OP_PUSHBYTES_20 d24545d6c867a6474a13b094bb989db2ba2c39cb OP_EQUALVERIFY OP_CHECKSIG",
      "scriptpubkey_type": "p2pkh",
      "scriptpubkey_address": "1LAotSixoCTLewY2vycHCZrNaYU7EKTvN3",
      "value": 489789
    },
    {
      "scriptpubkey": "0014393188b0e3c983cf6b30e141410487019d929197",
      "scriptpubkey_asm": "OP_0 OP_PUSHBYTES_20 393188b0e3c983cf6b30e141410487019d929197",
      "scriptpubkey_type": "v0_p2wpkh",
      "scriptpubkey_address": "bc1q8ycc3v8rexpu76esu9q5zpy8qxwe9yvhnwuqfn",
      "value": 48521
    }
  ],
  "size": 375,
  "weight": 846,
  "fee": 3945,
  "status": {
    "confirmed": true,
    "block_height": 834638,
    "block_hash": "000000000000000000025f742c626208ac87e0b7d15054abb4a19ca2d735a54e",
    "block_time": 1710405325
  },
  "hex": "02000000000102e2ad6498886e5a671b4d4ce7a8161cc7b80a1fb2f07707b10c4d38de1e1481320100000000ffffffff37baea0f998dde74f441908b28c3c7ac869cf7fa223dd835698b06cb0df3087d4200000000ffffffff023d790700000000001976a914d24545d6c867a6474a13b094bb989db2ba2c39cb88ac89bd000000000000160014393188b0e3c983cf6b30e141410487019d9291970248304502210084f590387105ed69c44ecc1f29de8f7b587d0d3d54e5020060d8f525584a890a022006be219e418c465ef9a882f59b86c09563e615139b28c7274fd6e94baef9a887012103fd229457b2c4b2dbbfb0c0dff8415cf29fe9a27f65c10620c63155d6a38fa9ef02483045022100ddaaf89a0caa3ae7b35b5763aee1b3a3b6d6bf9ee365fa733e3fa583b1795a320220459a53511a8f352e79ba96affd5afd076c8fa31d5600f430fbeca2b8bd077bea012102cfd33928b41c41e8192b0d96957bd1ebf65e3a5dd305cc7bc7a295ece0b8a21a00000000"
}