{
  "txid": "fe27a2d8cca2be43ad124e6cb45bde5d6851e3d2eb9702e8a3bda55f7eaa01b6",
  "version": 2,
  "locktime": 0,
  "vin": [
    {
      "txid": "be39d971f0850622c287cd48f404299ddf6ff6f7d69fd69320eb17e0cde1ba1d",
      "vout": 5,
      "prevout": {
        "scriptpubkey": "5120d826ab2636fc8fbdecaf2d73e51ed5dcc9e9e9c452a5604cd40d44ab61a2342d",
        "scriptpubkey_asm": "OP_PUSHNUM_1 OP_PUSHBYTES_32 d826ab2636fc8fbdecaf2d73e51ed5dcc9e9e9c452a5604cd40d44ab61a2342d",
        "scriptpubkey_type": "v1_p2tr",
        "scriptpubkey_address": "bc1pmqn2kf3klj8mmm9094e728k4mny7n6wy22jkqnx5p4z2kcdzxsksslj3mr",
        "value": 375734
      },
      "scriptsig": "",
      "scriptsig_asm": "",
      "witness": [
        "08c2614298db22cb2f76e9214ea6e8f320d7395d5b1bbe38dca1b3e8d68fa35f20c7e3f57422ac75ece719a2af2075414ba2927a4bf8999fb7b091cc59707f88"
      ],
      "is_coinbase": false,
      "sequence": 4294967293
    }
  ],
  "vout": [
    {
      "scriptpubkey": "51204d03f3d308bedbd95261cf70d764b34a1d7af59dd777b66d65e69706a46dc13a",
      "scriptpubkey_asm": "OP_PUSHNUM_1 OP_PUSHBYTES_32 4d03f3d308bedbd95261cf70d764b34a1d7af59dd777b66d65e69706a46dc13a",
      "scriptpubkey_type": "v1_p2tr",
      "scriptpubkey_address": "bc1pf5pl85cghmdaj5npeacdwe9nfgwh4ava6ammvmt9u6tsdfrdcyaqz6nt3d",
      "value": 3010
    },
    {
      "scriptpubkey": "5120d826ab2636fc8fbdecaf2d73e51ed5dcc9e9e9c452a5604cd40d44ab61a2342d",
      "scriptpubkey_asm": "OP_PUSHNUM_1 OP_PUSHBYTES_32 d826ab2636fc8fbdecaf2d73e51ed5dcc9e9e9c452a5604cd40d44ab61a2342d",
      "scriptpubkey_type": "v1_p2tr",
      "scriptpubkey_address": "bc1pmqn2kf3klj8mmm9094e728k4mny7n6wy22jkqnx5p4z2kcdzxsksslj3mr",
      "value": 370260
    }
  ],
  "size": 205,
  "weight": 616,
  "fee": 2464,
  "status": {
    "confirmed": true,
    "block_height": 834464,
    "block_hash": "0000000000000000000177a0869a911a2b65c9bdcd5a8bcb02b68f305bee848e",
    "block_time": 1710308296
  },
  "hex": "020000000001011dbae1cde017eb2093d69fd6f7f66fdf9d2904f448cd87c2220685f071d939be0500000000fdffffff02c20b0000000000002251204d03f3d308bedbd95261cf70d764b34a1d7af59dd777b66d65e69706a46dc13a54a6050000000000225120d826ab2636fc8fbdecaf2d73e51ed5dcc9e9e9c452a5604cd40d44ab61a2342d014008c2614298db22cb2f76e9214ea6e8f320d7395d5b1bbe38dca1b3e8d68fa35f20c7e3f57422ac75ece719a2af2075414ba2927a4bf8999fb7b091cc59707f8800000000"
}