{
  "txid": "fe426a357dbc11cdc8268c08a2bb66ec1ad3e100b32ef81220cafe955662d56e",
  "version": 2,
  "locktime": 0,
  "vin": [
    {
      "txid": "58e19ec5497946a84f6cea44b0eb5d8ef602fa5507b7d27fc6dbee6bc156a1be",
      "vout": 37,
      "prevout": {
        "scriptpubkey": "76a9148e1edbe23303ce4f901f1318c268e83b0985d2a288ac",
        "scriptpubkey_asm": "OP_DUP OP_HASH160 OP_PUSHBYTES_20 8e1edbe23303ce4f901f1318c268e83b0985d2a2 OP_EQUALVERIFY OP_CHECKSIG",
        "scriptpubkey_type": "p2pkh",
        "scriptpubkey_address": "1DxTvMcCD152vcJhi3v7cMJVQXGKi71bGJ",
        "value": 55577566
      },
      "scriptsig": "46304302207f2ebad9700855932f3f04d6ed483a67774b7cb63a0c9aedc62eb317628992e8021f1542595ab1942b5a69a011f188a149c63684860fc8cdeefe9cab5e7ea741cf01210207548b85b02cb30556571cf805da3c918eb0b70f05e12ad163baab679f55659c",
      "scriptsig_asm": "OP_PUSHBYTES_70 304302207f2ebad9700855932f3f04d6ed483a67774b7cb63a0c9aedc62eb317628992e8021f1542595ab1942b5a69a011f188a149c63684860fc8cdeefe9cab5e7ea741cf01 OP_PUSHBYTES_33 0207548b85b02cb30556571cf805da3c918eb0b70f05e12ad163baab679f55659c",
      "is_coinbase": false,
      "sequence": 4294967295
    },
    {
      "txid": "aa666bd2796a9b776c55576cc3db2b64e5aa7ec6853c697717cf9e890d9a8bc9",
      "vout": 11,
      "prevout": {
        "scriptpubkey": "76a9148e1edbe23303ce4f901f1318c268e83b0985d2a288ac",
        "scriptpubkey_asm": "OP_DUP OP_HASH160 OP_PUSHBYTES_20 8e1edbe23303ce4f901f1318c268e83b0985d2a2 OP_EQUALVERIFY OP_CHECKSIG",
        "scriptpubkey_type": "p2pkh",
        "scriptpubkey_address": "1DxTvMcCD152vcJhi3v7cMJVQXGKi71bGJ",
        "value": 10000000
      },
      "scriptsig": "47304402201b690118d462a83dcbe86fef9dcf71aee9f9ef039b3d6a552a185e6c9868b65f02205f06fd43518b3468dac4b0df3fc252fe92d3640de6d62b5b8c9c41f619088dc501210207548b85b02cb30556571cf805da3c918eb0b70f05e12ad163baab679f55659c",
      "scriptsig_asm": "OP_PUSHBYTES_71 304402201b690118d462a83dcbe86fef9dcf71aee9f9ef039b3d6a552a185e6c9868b65f02205f06fd43518b3468dac4b0df3fc252fe92d3640de6d62b5b8c9c41f619088dc501 OP_PUSHBYTES_33 0207548b85b02cb30556571cf805da3c918eb0b70f05e12ad163baab679f55659c",
      "is_coinbase": false,
      "sequence": 4294967295
    },
    {
      "txid": "c7dbeb12cca84fe0d7cebd2707bb0b19785247484f003b1b29c496cdb4036e3b",
      "vout": 17,
      "prevout": {
        "scriptpubkey": "76a9148e1edbe23303ce4f901f1318c268e83b0985d2a288ac",
        "scriptpubkey_asm": "OP_DUP OP_HASH160 OP_PUSHBYTES_20 8e1edbe23303ce4f901f1318c268e83b0985d2a2 OP_EQUALVERIFY OP_CHECKSIG",
        "scriptpubkey_type": "p2pkh",
        "scriptpubkey_address": "1DxTvMcCD152vcJhi3v7cMJVQXGKi71bGJ",
        "value": 536811269
      },
      "scriptsig": "47304402206cd3e5758183ffe47fa2e944cc7fe4d5611704d82315da47e6c0ca37e04a35db02200e2683816885b299cf8071d9f8cd888c86a36980635a1ef1e9d200865f39961001210207548b85b02cb30556571cf805da3c918eb0b70f05e12ad163baab679f55659c",
      "scriptsig_asm": "OP_PUSHBYTES_71 304402206cd3e5758183ffe47fa2e944cc7fe4d5611704d82315da47e6c0ca37e04a35db02200e2683816885b299cf8071d9f8cd888c86a36980635a1ef1e9d200865f39961001 OP_PUSHBYTES_33 0207548b85b02cb30556571cf805da3c918eb0b70f05e12ad163baab679f55659c",
      "is_coinbase": false,
      "sequence": 4294967295
    }
  ],
  "vout": [
    {
      "scriptpubkey": "00147d5a54f3de1d9bd0c28f554806041ca77ec14504",
      "scriptpubkey_asm": "OP_0 OP_PUSHBYTES_20 7d5a54f3de1d9bd0c28f554806041ca77ec14504",
      "scriptpubkey_type": "v0_p2wpkh",
      "scriptpubkey_address": "bc1q04d9fu77rkdaps5024yqvpqu5alvz3gypxhahj",
      "value": 602381000
    }
  ],
  "size": 481,
  "weight": 1924,
  "fee": 7835,
  "status": {
    "confirmed": true,
    "block_height": 834638,
    "block_hash": "000000000000000000025f742c626208ac87e0b7d15054abb4a19ca2d735a54e",
    "block_time": 1710405325
  },
  "hex": "0200000003bea156c16beedbc67fd2b70755fa02f68e5debb044ea6c4fa8467949c59ee158250000006946304302207f2ebad9700855932f3f04d6ed483a67774b7cb63a0c9aedc62eb317628992e8021f1542595ab1942b5a69a011f188a149c63684860fc8cdeefe9cab5e7ea741cf01210207548b85b02cb30556571cf805da3c918eb0b70f05e12ad163baab679f55659cffffffffc98b9a0d899ecf1777693c85c67eaae5642bdbc36c57556c779b6a79d26b66aa0b0000006a47304402201b690118d462a83dcbe86fef9dcf71aee9f9ef039b3d6a552a185e6c9868b65f02205f06fd43518b3468dac4b0df3fc252fe92d3640de6d62b5b8c9c41f619088dc501210207548b85b02cb30556571cf805da3c918eb0b70f05e12ad163baab679f55659cffffffff3b6e03b4cd96c4291b3b004f48475278190bbb0727bdced7e04fa8cc12ebdbc7110000006a47304402206cd3e5758183ffe47fa2e944cc7fe4d5611704d82315da47e6c0ca37e04a35db02200e2683816885b299cf8071d9f8cd888c86a36980635a1ef1e9d200865f39961001210207548b85b02cb30556571cf805da3c918eb0b70f05e12ad163baab679f55659cffffffff01c89ae723000000001600147d5a54f3de1d9bd0c28f554806041ca77ec1450400000000"
}