{
  "txid": "fe4327e8a50f82c4d9c5db51fa034a3481f9081c70c5e044c6c3aa5a90629021",
  "version": 1,
  "locktime": 0,
  "vin": [
    {
      "txid": "7bb685b4150e5b713abc9414b36864ecd86d6f112bad648e83b7ca10c78aacd2",
      "vout": 1,
      "prevout": {
        "scriptpubkey": "00147e033b53901fcce4839d3c3b4d856e91fab7290a",
        "scriptpubkey_asm": "OP_0 OP_PUSHBYTES_20 7e033b53901fcce4839d3c3b4d856e91fab7290a",
        "scriptpubkey_type": "v0_p2wpkh",
        "scriptpubkey_address": "bc1q0cpnk5usrlxwfqua8sa5mptwj8atw2g2mhusyg",
        "value": 350412
      },
      "scriptsig": "",
      "scriptsig_asm": "",
      "witness": [
        "304402200ad3a90685676c7ada88577b12d5daec756555f44d59f5d99edea40288206a3e022079ca66f22d6553b53d111a3b4b461662d3e29014ca82bb25b4626b40d657945701",
        "03794152bc0e0fcc6d81e6fe7a38d196cd9382f817ba48a7eff867f2b6727af657"
      ],
      "is_coinbase": false,
      "sequence": 4294967295
    }
  ],
  "vout": [
    {
      "scriptpubkey": "00146595611d4c1926653116912113d505dacb406f93",
      "scriptpubkey_asm": "OP_0 OP_PUSHBYTES_20 6595611d4c1926653116912113d505dacb406f93",
      "scriptpubkey_type": "v0_p2wpkh",
      "scriptpubkey_address": "bc1qvk2kz82vrynx2vgkjys384g9mt95qmunl950zf",
      "value": 200000
    },
    {
      "scriptpubkey": "00147e033b53901fcce4839d3c3b4d856e91fab7290a",
      "scriptpubkey_asm": "OP_0 OP_PUSHBYTES_20 7e033b53901fcce4839d3c3b4d856e91fab7290a",
      "scriptpubkey_type": "v0_p2wpkh",
      "scriptpubkey_address": "bc1q0cpnk5usrlxwfqua8sa5mptwj8atw2g2mhusyg",
      "value": 146605
    }
  ],
  "size": 222,
  "weight": 561,
  "fee": 3807,
  "status": {
    "confirmed": true,
    "block_height": 834638,
    "block_hash": "000000000000000000025f742c626208ac87e0b7d15054abb4a19ca2d735a54e",
    "block_time": 1710405325
  },
  "hex": "01000000000101d2ac8ac710cab7838e64ad2b116f6dd8ec6468b31494bc3a715b0e15b485b67b0100000000ffffffff02400d0300000000001600146595611d4c1926653116912113d505dacb406f93ad3c0200000000001600147e033b53901fcce4839d3c3b4d856e91fab7290a0247304402200ad3a90685676c7ada88577b12d5daec756555f44d59f5d99edea40288206a3e022079ca66f22d6553b53d111a3b4b461662d3e29014ca82bb25b4626b40d6579457012103794152bc0e0fcc6d81e6fe7a38d196cd9382f817ba48a7eff867f2b6727af65700000000"
}