{
  "txid": "fe4c776e320b074e04ee47d31c9bc5b86389700fb48766f37f10bd4f667df076",
  "version": 2,
  "locktime": 0,
  "vin": [
    {
      "txid": "83bef08c5823c2a9e9870fd0f316532ea067263ae12f85ace356cce1cc0a8261",
      "vout": 1,
      "prevout": {
        "scriptpubkey": "5120e7ddcf1cce238f708b9128b962480461d34e1e02efa4fd82e7c450c28ee2ac15",
        "scriptpubkey_asm": "OP_PUSHNUM_1 OP_PUSHBYTES_32 e7ddcf1cce238f708b9128b962480461d34e1e02efa4fd82e7c450c28ee2ac15",
        "scriptpubkey_type": "v1_p2tr",
        "scriptpubkey_address": "bc1pulwu78xwyw8hpzu39zukyjqyv8f5u8sza7j0mqh8c3gv9rhz4s2sy0u94w",
        "value": 208300
      },
      "scriptsig": "",
      "scriptsig_asm": "",
      "witness": [
        "655daf84bc0ddece574074d3e84df43e7bbeafc03f0d8aeaca338e9d7c57df859a54fff21ecd202a11e5b26573be5997657d34a7c19d1364c7563a231ffe32e9"
      ],
      "is_coinbase": false,
      "sequence": 4294967293
    }
  ],
  "vout": [
    {
      "scriptpubkey": "5120793f9586f4ee2f5a161feb85233bc5516124891f9c850bc5dc594e97298cf046",
      "scriptpubkey_asm": "OP_PUSHNUM_1 OP_PUSHBYTES_32 793f9586f4ee2f5a161feb85233bc5516124891f9c850bc5dc594e97298cf046",
      "scriptpubkey_type": "v1_p2tr",
      "scriptpubkey_address": "bc1p0yletph5ach459slawzjxw7929sjfzglnjzsh3wut98fw2vv7prq3y6r5p",
      "value": 2548
    },
    {
      "scriptpubkey": "5120e7ddcf1cce238f708b9128b962480461d34e1e02efa4fd82e7c450c28ee2ac15",
      "scriptpubkey_asm": "OP_PUSHNUM_1 OP_PUSHBYTES_32 e7ddcf1cce238f708b9128b962480461d34e1e02efa4fd82e7c450c28ee2ac15",
      "scriptpubkey_type": "v1_p2tr",
      "scriptpubkey_address": "bc1pulwu78xwyw8hpzu39zukyjqyv8f5u8sza7j0mqh8c3gv9rhz4s2sy0u94w",
      "value": 203750
    }
  ],
  "size": 205,
  "weight": 616,
  "fee": 2002,
  "status": {
    "confirmed": true,
    "block_height": 834460,
    "block_hash": "00000000000000000000484a79b643b2524bbce82e5d8a442013fa5b8905ed98",
    "block_time": 1710307468
  },
  "hex": "0200000000010161820acce1cc56e3ac852fe13a2667a02e5316f3d00f87e9a9c223588cf0be830100000000fdffffff02f409000000000000225120793f9586f4ee2f5a161feb85233bc5516124891f9c850bc5dc594e97298cf046e61b030000000000225120e7ddcf1cce238f708b9128b962480461d34e1e02efa4fd82e7c450c28ee2ac150140655daf84bc0ddece574074d3e84df43e7bbeafc03f0d8aeaca338e9d7c57df859a54fff21ecd202a11e5b26573be5997657d34a7c19d1364c7563a231ffe32e900000000"
}