{
  "txid": "fe4d72e05e76c5314204f83a4cc7d3e3f6f790ba6be60a0c5299d51957001393",
  "version": 1,
  "locktime": 0,
  "vin": [
    {
      "txid": "46265435dcdcf52575cb8d6ae40cfbc307a95e1f71678d7c6b534bf7139f74c6",
      "vout": 6,
      "prevout": {
        "scriptpubkey": "0014db8a397edcf261bb961fb067328fb157a07037d3",
        "scriptpubkey_asm": "OP_0 OP_PUSHBYTES_20 db8a397edcf261bb961fb067328fb157a07037d3",
        "scriptpubkey_type": "v0_p2wpkh",
        "scriptpubkey_address": "bc1qmw9rjlku7fsmh9slkpnn9ra327s8qd7nx8cctk",
        "value": 130685
      },
      "scriptsig": "",
      "scriptsig_asm": "",
      "witness": [
        "3044022043c83b43d182958accee445d1744e320fa8f94c25e39916f3614e0f66cc35b3b022058102708f99e32f19e2005137560f077606fe25676d9b72df74f27906e92d17501",
        "027e3d51159407db66e40ef713c302d3736d9cd9cdc33b69746a6bde09674f2e79"
      ],
      "is_coinbase": false,
      "sequence": 4294967293
    },
    {
      "txid": "46265435dcdcf52575cb8d6ae40cfbc307a95e1f71678d7c6b534bf7139f74c6",
      "vout": 5,
      "prevout": {
        "scriptpubkey": "0014423fdffd7f54bc724188c70eee7337ab166af0ba",
        "scriptpubkey_asm": "OP_0 OP_PUSHBYTES_20 423fdffd7f54bc724188c70eee7337ab166af0ba",
        "scriptpubkey_type": "v0_p2wpkh",
        "scriptpubkey_address": "bc1qgglalltl2j78ysvgcu8wuueh4vtx4u96e5sgap",
        "value": 65207
      },
      "scriptsig": "",
      "scriptsig_asm": "",
      "witness": [
        "3044022065c91b866030e531b8b34164550f70ef97c09b88582a93baf6cf17a7676bc424022022973ba547f6251d178e0f34a051ce0291228e446ef23210e4446201a653719b01",
        "03897b7ae16e66cafdc6c4ceb5fab29091d26e0030a31eb20832e1809b54213075"
      ],
      "is_coinbase": false,
      "sequence": 4294967293
    },
    {
      "txid": "d70350046aa7d36ed9aee2c53cae77ad935400bc51ea6d44b32f6a98a51ca477",
      "vout": 7,
      "prevout": {
        "scriptpubkey": "0014304580df6ac84824bc80d9090311dfb416ab7f22",
        "scriptpubkey_asm": "OP_0 OP_PUSHBYTES_20 304580df6ac84824bc80d9090311dfb416ab7f22",
        "scriptpubkey_type": "v0_p2wpkh",
        "scriptpubkey_address": "bc1qxpzcphm2epyzf0yqmyysxywlkst2klezs2fcf5",
        "value": 130556
      },
      "scriptsig": "",
      "scriptsig_asm": "",
      "witness": [
        "30440220235e7388bf939a8cd128ed845804edca41521b9768dcbb98274242b22b796af102204f9610a201ac20db3589e33611ef291c7f4366f6c27301093ed810a4ca04af5201",
        "02098eded47f85ab8766750984abefe399711b6f5793ead8bca1a608d0eac23949"
      ],
      "is_coinbase": false,
      "sequence": 4294967293
    }
  ],
  "vout": [
    {
      "scriptpubkey": "0014fee690646b41177d0bae6a8c95e621e76bc9f844",
      "scriptpubkey_asm": "OP_0 OP_PUSHBYTES_20 fee690646b41177d0bae6a8c95e621e76bc9f844",
      "scriptpubkey_type": "v0_p2wpkh",
      "scriptpubkey_address": "bc1qlmnfqertgyth6zawd2xfte3pua4un7zyff4r7j",
      "value": 8402
    },
    {
      "scriptpubkey": "0014bb9fa1e9b7d5b465c752c00c8956d0027cf1df1a",
      "scriptpubkey_asm": "OP_0 OP_PUSHBYTES_20 bb9fa1e9b7d5b465c752c00c8956d0027cf1df1a",
      "scriptpubkey_type": "v0_p2wpkh",
      "scriptpubkey_address": "bc1qhw06r6dh6k6xt36jcqxgj4ksqf70rhc6pasu0p",
      "value": 314168
    }
  ],
  "size": 518,
  "weight": 1103,
  "fee": 3878,
  "status": {
    "confirmed": true,
    "block_height": 834638,
    "block_hash": "000000000000000000025f742c626208ac87e0b7d15054abb4a19ca2d735a54e",
    "block_time": 1710405325
  },
  "hex": "01000000000103c6749f13f74b536b7c8d67711f5ea907c3fb0ce46a8dcb7525f5dcdc355426460600000000fdffffffc6749f13f74b536b7c8d67711f5ea907c3fb0ce46a8dcb7525f5dcdc355426460500000000fdffffff77a41ca5986a2fb3446dea51bc005493ad77ae3cc5e2aed96ed3a76a045003d70700000000fdffffff02d220000000000000160014fee690646b41177d0bae6a8c95e621e76bc9f84438cb040000000000160014bb9fa1e9b7d5b465c752c00c8956d0027cf1df1a02473044022043c83b43d182958accee445d1744e320fa8f94c25e39916f3614e0f66cc35b3b022058102708f99e32f19e2005137560f077606fe25676d9b72df74f27906e92d1750121027e3d51159407db66e40ef713c302d3736d9cd9cdc33b69746a6bde09674f2e7902473044022065c91b866030e531b8b34164550f70ef97c09b88582a93baf6cf17a7676bc424022022973ba547f6251d178e0f34a051ce0291228e446ef23210e4446201a653719b012103897b7ae16e66cafdc6c4ceb5fab29091d26e0030a31eb20832e1809b54213075024730440220235e7388bf939a8cd128ed845804edca41521b9768dcbb98274242b22b796af102204f9610a201ac20db3589e33611ef291c7f4366f6c27301093ed810a4ca04af52012102098eded47f85ab8766750984abefe399711b6f5793ead8bca1a608d0eac2394900000000"
}