{
  "txid": "fe576e9dca5bf6234612ef3d1ec5fe8c0beb657e900315427f23cc3adc2c6575",
  "version": 2,
  "locktime": 0,
  "vin": [
    {
      "txid": "b13bb5512a4904c28a6b7957b88edf574e8cb23551fc1dcfe22d6b239df42cf4",
      "vout": 94,
      "prevout": {
        "scriptpubkey": "5120faaa99a8a92576e7cf7cb538573426d59cd0071e9c7ef5fa3107d60c4637da9e",
        "scriptpubkey_asm": "OP_PUSHNUM_1 OP_PUSHBYTES_32 faaa99a8a92576e7cf7cb538573426d59cd0071e9c7ef5fa3107d60c4637da9e",
        "scriptpubkey_type": "v1_p2tr",
        "scriptpubkey_address": "bc1pl24fn29fy4mw0nmuk5u9wdpx6kwdqpc7n3l0t733qltqc33hm20qm3n2uv",
        "value": 2575
      },
      "scriptsig": "",
      "scriptsig_asm": "",
      "witness": [
        "71e236aea944918c14e63021510143fa91f4a5a8d1912922cb20e4d5bf2f6d1f6761baefb9e6241f04610835e5100002f64f9a54630d99fccb7c8e899182ef52",
        "206bcc5c5c33be6b45f5047eed0b1ac10d235b9112019e449c609b0f419eca3462ac0063036f726401010a746578742f706c61696e00367b2270223a226272632d3230222c226f70223a226d696e74222c227469636b223a2261616161222c22616d74223a223130303030227d68",
        "c06bcc5c5c33be6b45f5047eed0b1ac10d235b9112019e449c609b0f419eca3462"
      ],
      "is_coinbase": false,
      "sequence": 4261412863
    }
  ],
  "vout": [
    {
      "scriptpubkey": "0014ce0b5aa0dac72397a8aa5a85d90a2cfb46f0f630",
      "scriptpubkey_asm": "OP_0 OP_PUSHBYTES_20 ce0b5aa0dac72397a8aa5a85d90a2cfb46f0f630",
      "scriptpubkey_type": "v0_p2wpkh",
      "scriptpubkey_address": "bc1qec944gx6cu3e0292t2zajz3vldr0pa3sh356d9",
      "value": 546
    }
  ],
  "size": 295,
  "weight": 541,
  "fee": 2029,
  "status": {
    "confirmed": true,
    "block_height": 834464,
    "block_hash": "0000000000000000000177a0869a911a2b65c9bdcd5a8bcb02b68f305bee848e",
    "block_time": 1710308296
  },
  "hex": "02000000000101f42cf49d236b2de2cf1dfc5135b28c4e57df8eb857796b8ac204492a51b53bb15e00000000fffffffd012202000000000000160014ce0b5aa0dac72397a8aa5a85d90a2cfb46f0f630034071e236aea944918c14e63021510143fa91f4a5a8d1912922cb20e4d5bf2f6d1f6761baefb9e6241f04610835e5100002f64f9a54630d99fccb7c8e899182ef526e206bcc5c5c33be6b45f5047eed0b1ac10d235b9112019e449c609b0f419eca3462ac0063036f726401010a746578742f706c61696e00367b2270223a226272632d3230222c226f70223a226d696e74222c227469636b223a2261616161222c22616d74223a223130303030227d6821c06bcc5c5c33be6b45f5047eed0b1ac10d235b9112019e449c609b0f419eca346200000000"
}