{
  "txid": "fe6162242b8d0984d97beec785c34744f7fc08a693f61398ac733dc8c54657a2",
  "version": 2,
  "locktime": 0,
  "vin": [
    {
      "txid": "8486ecb4df0880316dd6e82b3971b4df187aff23765bc3a47f8d78bb53aa273c",
      "vout": 68,
      "prevout": {
        "scriptpubkey": "5120e84b9b4bbcef3aa4c7541180a60d3a642641854637c2db1f051d1794f3dc80c4",
        "scriptpubkey_asm": "OP_PUSHNUM_1 OP_PUSHBYTES_32 e84b9b4bbcef3aa4c7541180a60d3a642641854637c2db1f051d1794f3dc80c4",
        "scriptpubkey_type": "v1_p2tr",
        "scriptpubkey_address": "bc1pap9ekjauaua2f365zxq2vrf6vsnyrp2xxlpdk8c9r5tefu7usrzq35pz0p",
        "value": 2575
      },
      "scriptsig": "",
      "scriptsig_asm": "",
      "witness": [
        "03006710b915b04bfe789e3afb359b75b634b671d4219bdd03a38ef28db74104f02aee754cbe92789f5f26915d0451f6a2e7fc9ea6dda866996feb173010ab2d",
        "20b125eea5ca1e1f1f5ed798944a1fe2bd222008510e3b3d6cd6ddbbd01ab4d2a1ac0063036f726401010a746578742f706c61696e00367b2270223a226272632d3230222c226f70223a226d696e74222c227469636b223a2261616161222c22616d74223a223130303030227d68",
        "c1b125eea5ca1e1f1f5ed798944a1fe2bd222008510e3b3d6cd6ddbbd01ab4d2a1"
      ],
      "is_coinbase": false,
      "sequence": 4261412863
    }
  ],
  "vout": [
    {
      "scriptpubkey": "0014ddd7ef12ea6f78edcc1e8e7afa12c01ab59f3339",
      "scriptpubkey_asm": "OP_0 OP_PUSHBYTES_20 ddd7ef12ea6f78edcc1e8e7afa12c01ab59f3339",
      "scriptpubkey_type": "v0_p2wpkh",
      "scriptpubkey_address": "bc1qmht77yh2dauwmnq73ea05ykqr26e7veea8spz6",
      "value": 546
    }
  ],
  "size": 295,
  "weight": 541,
  "fee": 2029,
  "status": {
    "confirmed": true,
    "block_height": 834460,
    "block_hash": "00000000000000000000484a79b643b2524bbce82e5d8a442013fa5b8905ed98",
    "block_time": 1710307468
  },
  "hex": "020000000001013c27aa53bb788d7fa4c35b7623ff7a18dfb471392be8d66d318008dfb4ec86844400000000fffffffd012202000000000000160014ddd7ef12ea6f78edcc1e8e7afa12c01ab59f3339034003006710b915b04bfe789e3afb359b75b634b671d4219bdd03a38ef28db74104f02aee754cbe92789f5f26915d0451f6a2e7fc9ea6dda866996feb173010ab2d6e20b125eea5ca1e1f1f5ed798944a1fe2bd222008510e3b3d6cd6ddbbd01ab4d2a1ac0063036f726401010a746578742f706c61696e00367b2270223a226272632d3230222c226f70223a226d696e74222c227469636b223a2261616161222c22616d74223a223130303030227d6821c1b125eea5ca1e1f1f5ed798944a1fe2bd222008510e3b3d6cd6ddbbd01ab4d2a100000000"
}