{
  "txid": "fe67f3c3c7bd2b518863e241d77de378b0c6577ef9492284a5948db8370d7053",
  "version": 1,
  "locktime": 0,
  "vin": [
    {
      "txid": "0e617476e961d73c9c765619f1e800145daa411fc0aa5d95de8e87b511e898fa",
      "vout": 1,
      "prevout": {
        "scriptpubkey": "0014598a1299cc64f4d1ba0da78ca7c6726a8cad0668",
        "scriptpubkey_asm": "OP_0 OP_PUSHBYTES_20 598a1299cc64f4d1ba0da78ca7c6726a8cad0668",
        "scriptpubkey_type": "v0_p2wpkh",
        "scriptpubkey_address": "bc1qtx9p9xwvvn6drwsd57x203njd2x26pngxr5xxv",
        "value": 914991939
      },
      "scriptsig": "",
      "scriptsig_asm": "",
      "witness": [
        "3045022100982cd723ec0a30f23f2bf2ce61116014cc67d4449883639b4194d2edb5de1c540220626a541be718b0f31cb0efc4ac96ec0872e463446cfcc3cdadba1dc79878bb0301",
        "021981600c59fe19bdf4ee07dd9ab1729b7baa5c684b29026851a2997c4229a991"
      ],
      "is_coinbase": false,
      "sequence": 4294967295
    }
  ],
  "vout": [
    {
      "scriptpubkey": "76a914bff43b71ac66ff35342b044384b5a54207ed513688ac",
      "scriptpubkey_asm": "OP_DUP OP_HASH160 OP_PUSHBYTES_20 bff43b71ac66ff35342b044384b5a54207ed5136 OP_EQUALVERIFY OP_CHECKSIG",
      "scriptpubkey_type": "p2pkh",
      "scriptpubkey_address": "1JVxeC49JMKACAbQ3kxrHFqj59X1jYpSu7",
      "value": 1431900
    },
    {
      "scriptpubkey": "0014598a1299cc64f4d1ba0da78ca7c6726a8cad0668",
      "scriptpubkey_asm": "OP_0 OP_PUSHBYTES_20 598a1299cc64f4d1ba0da78ca7c6726a8cad0668",
      "scriptpubkey_type": "v0_p2wpkh",
      "scriptpubkey_address": "bc1qtx9p9xwvvn6drwsd57x203njd2x26pngxr5xxv",
      "value": 913557101
    }
  ],
  "size": 226,
  "weight": 574,
  "fee": 2938,
  "status": {
    "confirmed": true,
    "block_height": 834460,
    "block_hash": "00000000000000000000484a79b643b2524bbce82e5d8a442013fa5b8905ed98",
    "block_time": 1710307468
  },
  "hex": "01000000000101fa98e811b5878ede955daac01f41aa5d1400e8f11956769c3cd761e97674610e0100000000ffffffff025cd91500000000001976a914bff43b71ac66ff35342b044384b5a54207ed513688ac6dc6733600000000160014598a1299cc64f4d1ba0da78ca7c6726a8cad066802483045022100982cd723ec0a30f23f2bf2ce61116014cc67d4449883639b4194d2edb5de1c540220626a541be718b0f31cb0efc4ac96ec0872e463446cfcc3cdadba1dc79878bb030121021981600c59fe19bdf4ee07dd9ab1729b7baa5c684b29026851a2997c4229a99100000000"
}