{
  "txid": "fe6d83bd87053e0ddab426b5f1035dbf1daa40f29639d3e35e678513706077b7",
  "version": 2,
  "locktime": 0,
  "vin": [
    {
      "txid": "9fa22a2ee3d528c2dd270dababa8edcf6915b4903757cc9471084580630a8240",
      "vout": 1,
      "prevout": {
        "scriptpubkey": "0014fc5c731473956ee92ff7e0b6a9e471b4c2d14938",
        "scriptpubkey_asm": "OP_0 OP_PUSHBYTES_20 fc5c731473956ee92ff7e0b6a9e471b4c2d14938",
        "scriptpubkey_type": "v0_p2wpkh",
        "scriptpubkey_address": "bc1ql3w8x9rnj4hwjtlhuzm2ner3knpdzjfccnzuqj",
        "value": 2034923
      },
      "scriptsig": "",
      "scriptsig_asm": "",
      "witness": [
        "30440220527ec31851ab2976c56716f689d8c24a34b2795bb66e87ab8ce98f3329797f8802200c9d2ff8c72e07c111b147f0b8c189e63855d29129966ed6702f8317d1b475e501",
        "02b9504cdfa4f1625863ca1dd2f0bc3944d2f62aa9a7b3135973cac94678cf1f89"
      ],
      "is_coinbase": false,
      "sequence": 4294967293
    },
    {
      "txid": "0f9977c38ea923df5456c955ff829511d24ce52962a9c0ceab344a8445f823d8",
      "vout": 1,
      "prevout": {
        "scriptpubkey": "0014d3ef663f52c109f6d256a66d3738ab3b8b50a84a",
        "scriptpubkey_asm": "OP_0 OP_PUSHBYTES_20 d3ef663f52c109f6d256a66d3738ab3b8b50a84a",
        "scriptpubkey_type": "v0_p2wpkh",
        "scriptpubkey_address": "bc1q60hkv06jcyyld5jk5eknww9t8w94p2z20wwk5h",
        "value": 4849032
      },
      "scriptsig": "",
      "scriptsig_asm": "",
      "witness": [
        "3045022100e9e94cde89e133007ee40aa3f5edcdb6072212b8938ad62b7732113e7696ddbf02203bb4cb867e220fe514ac948e0f18f6c8e278862ada05a9735cf572eda403a68301",
        "0248ed8fbd9967867d1bcf44c3d57d7a67ac5854506d1d561fd85d063cd374f9eb"
      ],
      "is_coinbase": false,
      "sequence": 4294967293
    }
  ],
  "vout": [
    {
      "scriptpubkey": "a914d666c8ce3df7f005c5a6ec4672d03f1afd322ff087",
      "scriptpubkey_asm": "OP_HASH160 OP_PUSHBYTES_20 d666c8ce3df7f005c5a6ec4672d03f1afd322ff0 OP_EQUAL",
      "scriptpubkey_type": "p2sh",
      "scriptpubkey_address": "3MEffBRgcXfyMi1zKyZAEHuagSDQJkxiXN",
      "value": 3403669
    },
    {
      "scriptpubkey": "00149f202791d061eb65bc20567e9bcb7240597ddf39",
      "scriptpubkey_asm": "OP_0 OP_PUSHBYTES_20 9f202791d061eb65bc20567e9bcb7240597ddf39",
      "scriptpubkey_type": "v0_p2wpkh",
      "scriptpubkey_address": "bc1qnusz0ywsv84kt0pq2elfhjmjgpvhmheerjvzl6",
      "value": 3476573
    }
  ],
  "size": 372,
  "weight": 837,
  "fee": 3713,
  "status": {
    "confirmed": true,
    "block_height": 834638,
    "block_hash": "000000000000000000025f742c626208ac87e0b7d15054abb4a19ca2d735a54e",
    "block_time": 1710405325
  },
  "hex": "0200000000010240820a638045087194cc573790b41569cfeda8abab0d27ddc228d5e32e2aa29f0100000000fdffffffd823f845844a34abcec0a96229e54cd2119582ff55c95654df23a98ec377990f0100000000fdffffff0295ef33000000000017a914d666c8ce3df7f005c5a6ec4672d03f1afd322ff0875d0c3500000000001600149f202791d061eb65bc20567e9bcb7240597ddf39024730440220527ec31851ab2976c56716f689d8c24a34b2795bb66e87ab8ce98f3329797f8802200c9d2ff8c72e07c111b147f0b8c189e63855d29129966ed6702f8317d1b475e5012102b9504cdfa4f1625863ca1dd2f0bc3944d2f62aa9a7b3135973cac94678cf1f8902483045022100e9e94cde89e133007ee40aa3f5edcdb6072212b8938ad62b7732113e7696ddbf02203bb4cb867e220fe514ac948e0f18f6c8e278862ada05a9735cf572eda403a68301210248ed8fbd9967867d1bcf44c3d57d7a67ac5854506d1d561fd85d063cd374f9eb00000000"
}