{
  "txid": "fe784bf70453b9b2ddde668f2d474821507573434f84a46e1b1f6c28a5f1ecd7",
  "version": 1,
  "locktime": 0,
  "vin": [
    {
      "txid": "0220e42d60b954f858c1af751fd91a6d06211617ab8fca81d4c92453c5a973c6",
      "vout": 3,
      "prevout": {
        "scriptpubkey": "00144341af702ea15e5c2f7b8ae95106d5360479e374",
        "scriptpubkey_asm": "OP_0 OP_PUSHBYTES_20 4341af702ea15e5c2f7b8ae95106d5360479e374",
        "scriptpubkey_type": "v0_p2wpkh",
        "scriptpubkey_address": "bc1qgdq67upw5909ctmm3t54zpk4xcz8ncm5ggafcr",
        "value": 30362779
      },
      "scriptsig": "",
      "scriptsig_asm": "",
      "witness": [
        "304402200613928571a82ef4a1e0e039c25d8b234475a8ac4b85e9a268411932f940902302205596fb6901274ad6cefde2bf0eb411e522b1aab65ed28790f1faf37fdc922b6801",
        "026b7da7e93af51ba7f78e02ab9aef00747f989a51cd9aef4855c980a50840c970"
      ],
      "is_coinbase": false,
      "sequence": 4294967293
    }
  ],
  "vout": [
    {
      "scriptpubkey": "6a4c5058325b1056bbd88c79d8a9a1648ff834e11d75cd5053aaa1d1878c2cfa809d7cb75913b944fa322a1f943a4f5c9c103548622aa92e1fa448e7c83d244a39b9da02f16c000cbbf60001000cabd5000849",
      "scriptpubkey_asm": "OP_RETURN OP_PUSHDATA1 58325b1056bbd88c79d8a9a1648ff834e11d75cd5053aaa1d1878c2cfa809d7cb75913b944fa322a1f943a4f5c9c103548622aa92e1fa448e7c83d244a39b9da02f16c000cbbf60001000cabd5000849",
      "scriptpubkey_type": "op_return",
      "value": 0
    },
    {
      "scriptpubkey": "76a91423086a767de0143523e818d4273ddfe6d9e4bbcc88ac",
      "scriptpubkey_asm": "OP_DUP OP_HASH160 OP_PUSHBYTES_20 23086a767de0143523e818d4273ddfe6d9e4bbcc OP_EQUALVERIFY OP_CHECKSIG",
      "scriptpubkey_type": "p2pkh",
      "scriptpubkey_address": "14CEjTd5ci3228J45GdnGeUKLSSeCWUQxK",
      "value": 1000
    },
    {
      "scriptpubkey": "76a91498b9e4efbf33b27030357b166a45cd181f01003488ac",
      "scriptpubkey_asm": "OP_DUP OP_HASH160 OP_PUSHBYTES_20 98b9e4efbf33b27030357b166a45cd181f010034 OP_EQUALVERIFY OP_CHECKSIG",
      "scriptpubkey_type": "p2pkh",
      "scriptpubkey_address": "1EvYQKXfM1kqAH26wLAiPaqWfXHMarR7JD",
      "value": 1000
    },
    {
      "scriptpubkey": "00144341af702ea15e5c2f7b8ae95106d5360479e374",
      "scriptpubkey_asm": "OP_0 OP_PUSHBYTES_20 4341af702ea15e5c2f7b8ae95106d5360479e374",
      "scriptpubkey_type": "v0_p2wpkh",
      "scriptpubkey_address": "bc1qgdq67upw5909ctmm3t54zpk4xcz8ncm5ggafcr",
      "value": 30355864
    }
  ],
  "size": 351,
  "weight": 1077,
  "fee": 4915,
  "status": {
    "confirmed": true,
    "block_height": 834552,
    "block_hash": "00000000000000000001dd0468a70c94f619251d286585cff57aeb4bd9ede330",
    "block_time": 1710355598
  },
  "hex": "01000000000101c673a9c55324c9d481ca8fab171621066d1ad91f75afc158f854b9602de420020300000000fdffffff040000000000000000536a4c5058325b1056bbd88c79d8a9a1648ff834e11d75cd5053aaa1d1878c2cfa809d7cb75913b944fa322a1f943a4f5c9c103548622aa92e1fa448e7c83d244a39b9da02f16c000cbbf60001000cabd5000849e8030000000000001976a91423086a767de0143523e818d4273ddfe6d9e4bbcc88ace8030000000000001976a91498b9e4efbf33b27030357b166a45cd181f01003488ac9831cf01000000001600144341af702ea15e5c2f7b8ae95106d5360479e3740247304402200613928571a82ef4a1e0e039c25d8b234475a8ac4b85e9a268411932f940902302205596fb6901274ad6cefde2bf0eb411e522b1aab65ed28790f1faf37fdc922b680121026b7da7e93af51ba7f78e02ab9aef00747f989a51cd9aef4855c980a50840c97000000000"
}