{
  "txid": "fe7a7c15b26203eebfb146daefbd85c60f7afc83689a9f1bbc3002cc574aee48",
  "version": 2,
  "locktime": 0,
  "vin": [
    {
      "txid": "a58aea740c2eae4a198351046894c4b09040a56bac572c57d5b1b1cd97fb825b",
      "vout": 1,
      "prevout": {
        "scriptpubkey": "0014cc17db5305324173473aff7e3b5aefbedb65b3bd",
        "scriptpubkey_asm": "OP_0 OP_PUSHBYTES_20 cc17db5305324173473aff7e3b5aefbedb65b3bd",
        "scriptpubkey_type": "v0_p2wpkh",
        "scriptpubkey_address": "bc1qestak5c9xfqhx3e6lalrkkh0hmdktvaakn4tma",
        "value": 7236997
      },
      "scriptsig": "",
      "scriptsig_asm": "",
      "witness": [
        "3045022100ef84fc774e48b966ba8cf9bcab396f1929521072215568740bb3d66cbe09d27602201589ab8e1ad5342130af9ffaddb882465c5dc8f9e69ea30b26c2e7731c1989aa01",
        "03624a5540ba2d1a90bc06cea597dbfbc5b74fa264aa5c007918ab4be101084f41"
      ],
      "is_coinbase": false,
      "sequence": 4294967295
    }
  ],
  "vout": [
    {
      "scriptpubkey": "00147d420971759fe36a7f80058be8e3700d77a6dd74",
      "scriptpubkey_asm": "OP_0 OP_PUSHBYTES_20 7d420971759fe36a7f80058be8e3700d77a6dd74",
      "scriptpubkey_type": "v0_p2wpkh",
      "scriptpubkey_address": "bc1q04pqjut4nl3k5luqqk973cmsp4m6dht5hss2su",
      "value": 1500000
    },
    {
      "scriptpubkey": "0014698688f12545180c0e4ba9ab422c848ac4f0b09b",
      "scriptpubkey_asm": "OP_0 OP_PUSHBYTES_20 698688f12545180c0e4ba9ab422c848ac4f0b09b",
      "scriptpubkey_type": "v0_p2wpkh",
      "scriptpubkey_address": "bc1qdxrg3uf9g5vqcrjt4x45ytyy3tz0pvym9wrumw",
      "value": 5734486
    }
  ],
  "size": 223,
  "weight": 562,
  "fee": 2511,
  "status": {
    "confirmed": true,
    "block_height": 834638,
    "block_hash": "000000000000000000025f742c626208ac87e0b7d15054abb4a19ca2d735a54e",
    "block_time": 1710405325
  },
  "hex": "020000000001015b82fb97cdb1b1d5572c57ac6ba54090b0c49468045183194aae2e0c74ea8aa50100000000ffffffff0260e31600000000001600147d420971759fe36a7f80058be8e3700d77a6dd745680570000000000160014698688f12545180c0e4ba9ab422c848ac4f0b09b02483045022100ef84fc774e48b966ba8cf9bcab396f1929521072215568740bb3d66cbe09d27602201589ab8e1ad5342130af9ffaddb882465c5dc8f9e69ea30b26c2e7731c1989aa012103624a5540ba2d1a90bc06cea597dbfbc5b74fa264aa5c007918ab4be101084f4100000000"
}