{
  "txid": "fe804ade979ba0e485efd3e3b965b8d9bb283bbefa6be9acd0f779a23e605fb1",
  "version": 2,
  "locktime": 0,
  "vin": [
    {
      "txid": "0212bac5926ab5dc27a52a1fbfb07cd52391c2aba54a15ce0dd0f0281bfc82fa",
      "vout": 0,
      "prevout": {
        "scriptpubkey": "0014341f5b4cf9e88e68bba399a183627d602a80dfb5",
        "scriptpubkey_asm": "OP_0 OP_PUSHBYTES_20 341f5b4cf9e88e68bba399a183627d602a80dfb5",
        "scriptpubkey_type": "v0_p2wpkh",
        "scriptpubkey_address": "bc1qxs04kn8eaz8x3warnxscxcnavq4gpha4c7a4xx",
        "value": 7012124
      },
      "scriptsig": "",
      "scriptsig_asm": "",
      "witness": [
        "30450221009fc249830b164211db74cd9673bb0723994b884aeafc92b9d771eff0bf677824022011c940fa86e1c84a4ae680374519373ccf6a7e9c80627f8fb6ac72b6e1b23cd801",
        "032722f4997e8843f561749fdc0ec021a477845c3243a781516f1854d33e6f8058"
      ],
      "is_coinbase": false,
      "sequence": 4294967293
    },
    {
      "txid": "f1789aa5aa84af7046c9bc92b77571b515e1fcf33d0475da52f130cd75638b2c",
      "vout": 0,
      "prevout": {
        "scriptpubkey": "0014136de3a1c54ae593922d55345f945f3b1eda386b",
        "scriptpubkey_asm": "OP_0 OP_PUSHBYTES_20 136de3a1c54ae593922d55345f945f3b1eda386b",
        "scriptpubkey_type": "v0_p2wpkh",
        "scriptpubkey_address": "bc1qzdk78gw9ftje8y3d2569l9zl8v0d5wrt2cj8h8",
        "value": 929660
      },
      "scriptsig": "",
      "scriptsig_asm": "",
      "witness": [
        "30450221008e97a415f3ed38a2e799f45215d49a6cbf26413e618e7d38423070995ff8b1d102206802dd1bd18f39d4aa064a51e1235501262f04ce41dc1e2d1bab16c7b7a24ac401",
        "02e41b61bdd4e0a9280a138caa2c2f140de9a55d9f09e0959f3f565489899a12a2"
      ],
      "is_coinbase": false,
      "sequence": 4294967293
    }
  ],
  "vout": [
    {
      "scriptpubkey": "0014484073ca06a9e84b37f2e7d5b9e00eb20ffb9afe",
      "scriptpubkey_asm": "OP_0 OP_PUSHBYTES_20 484073ca06a9e84b37f2e7d5b9e00eb20ffb9afe",
      "scriptpubkey_type": "v0_p2wpkh",
      "scriptpubkey_address": "bc1qfpq88jsx485ykdljul2mncqwkg8lhxh7zdwelj",
      "value": 7820941
    },
    {
      "scriptpubkey": "0014e18350f83dd4db056be0e9f2235b0cbe6c015180",
      "scriptpubkey_asm": "OP_0 OP_PUSHBYTES_20 e18350f83dd4db056be0e9f2235b0cbe6c015180",
      "scriptpubkey_type": "v0_p2wpkh",
      "scriptpubkey_address": "bc1quxp4p7pa6nds26lqa8ezxkcvhekqz5vq4lpttl",
      "value": 115969
    }
  ],
  "size": 372,
  "weight": 834,
  "fee": 4874,
  "status": {
    "confirmed": true,
    "block_height": 834638,
    "block_hash": "000000000000000000025f742c626208ac87e0b7d15054abb4a19ca2d735a54e",
    "block_time": 1710405325
  },
  "hex": "02000000000102fa82fc1b28f0d00dce154aa5abc29123d57cb0bf1f2aa527dcb56a92c5ba12020000000000fdffffff2c8b6375cd30f152da75043df3fce115b57175b792bcc94670af84aaa59a78f10000000000fdffffff028d56770000000000160014484073ca06a9e84b37f2e7d5b9e00eb20ffb9afe01c5010000000000160014e18350f83dd4db056be0e9f2235b0cbe6c015180024830450221009fc249830b164211db74cd9673bb0723994b884aeafc92b9d771eff0bf677824022011c940fa86e1c84a4ae680374519373ccf6a7e9c80627f8fb6ac72b6e1b23cd80121032722f4997e8843f561749fdc0ec021a477845c3243a781516f1854d33e6f8058024830450221008e97a415f3ed38a2e799f45215d49a6cbf26413e618e7d38423070995ff8b1d102206802dd1bd18f39d4aa064a51e1235501262f04ce41dc1e2d1bab16c7b7a24ac4012102e41b61bdd4e0a9280a138caa2c2f140de9a55d9f09e0959f3f565489899a12a200000000"
}