{
  "txid": "fea026eab20472a594d471e66a4f36a3164cd84f75e8188981b98cbfe8e6d2ea",
  "version": 2,
  "locktime": 0,
  "vin": [
    {
      "txid": "ad35eda15cb5dbece768bc8c674ce144f816f8f8aa37d961b6ae014564888aa8",
      "vout": 2,
      "prevout": {
        "scriptpubkey": "5120628f7770e0ee8fb405a54cbe3e9f24b892c508b9e620556b130f443912311ed3",
        "scriptpubkey_asm": "OP_PUSHNUM_1 OP_PUSHBYTES_32 628f7770e0ee8fb405a54cbe3e9f24b892c508b9e620556b130f443912311ed3",
        "scriptpubkey_type": "v1_p2tr",
        "scriptpubkey_address": "bc1pv28hwu8qa68mgpd9fjlra8eyhzfv2z9eucs926cnpazrjy33rmfswhtkjr",
        "value": 186000
      },
      "scriptsig": "",
      "scriptsig_asm": "",
      "witness": [
        "56159fd4f67c30784b62d2a5b58d39ce44a3c016caf517db5a05f8d4aafa7922e67dce6447db2950d23fc3bf1b3df13a5aeb7b93dcdce09360ca870894056dea"
      ],
      "is_coinbase": false,
      "sequence": 2147483649
    },
    {
      "txid": "5afe2ca1eabe9fb89119370111f3ba8424886c68774c2b207d0b639fa7980392",
      "vout": 2,
      "prevout": {
        "scriptpubkey": "5120628f7770e0ee8fb405a54cbe3e9f24b892c508b9e620556b130f443912311ed3",
        "scriptpubkey_asm": "OP_PUSHNUM_1 OP_PUSHBYTES_32 628f7770e0ee8fb405a54cbe3e9f24b892c508b9e620556b130f443912311ed3",
        "scriptpubkey_type": "v1_p2tr",
        "scriptpubkey_address": "bc1pv28hwu8qa68mgpd9fjlra8eyhzfv2z9eucs926cnpazrjy33rmfswhtkjr",
        "value": 18778
      },
      "scriptsig": "",
      "scriptsig_asm": "",
      "witness": [
        "7a36a1b09b3a2a95c8f98ea42b213e1499c0907c3a4fdb956cace0745a13ce600bce5cd76f1f6c53bfb839f699bb29a26dc94961ba1e3591e84c34c7d8af1910"
      ],
      "is_coinbase": false,
      "sequence": 2147483649
    }
  ],
  "vout": [
    {
      "scriptpubkey": "a914ea398163401230968725d1c55d6d949b34213da487",
      "scriptpubkey_asm": "OP_HASH160 OP_PUSHBYTES_20 ea398163401230968725d1c55d6d949b34213da4 OP_EQUAL",
      "scriptpubkey_type": "p2sh",
      "scriptpubkey_address": "3P3UvyimAFiVHuSnvzyRG6bAMQGMFwi4fw",
      "value": 202423
    }
  ],
  "size": 258,
  "weight": 630,
  "fee": 2355,
  "status": {
    "confirmed": true,
    "block_height": 834638,
    "block_hash": "000000000000000000025f742c626208ac87e0b7d15054abb4a19ca2d735a54e",
    "block_time": 1710405325
  },
  "hex": "02000000000102a88a88644501aeb661d937aaf8f816f844e14c678cbc68e7ecdbb55ca1ed35ad020000000001000080920398a79f630b7d202b4c77686c882484baf31101371991b89fbeeaa12cfe5a02000000000100008001b71603000000000017a914ea398163401230968725d1c55d6d949b34213da487014056159fd4f67c30784b62d2a5b58d39ce44a3c016caf517db5a05f8d4aafa7922e67dce6447db2950d23fc3bf1b3df13a5aeb7b93dcdce09360ca870894056dea01407a36a1b09b3a2a95c8f98ea42b213e1499c0907c3a4fdb956cace0745a13ce600bce5cd76f1f6c53bfb839f699bb29a26dc94961ba1e3591e84c34c7d8af191000000000"
}