{
  "txid": "fea6e9ce4923da1ad89a8b28fd808496d370e0ed3ce2edb58866bb0cf94f9c80",
  "version": 2,
  "locktime": 0,
  "vin": [
    {
      "txid": "efb34e29ee7a2fccd7836798c3c72170d76fb6a9ae1225ad6a3f8b3973eac49a",
      "vout": 1,
      "prevout": {
        "scriptpubkey": "0014c6e207f35a1490e4bf467e8457db9b935e33358a",
        "scriptpubkey_asm": "OP_0 OP_PUSHBYTES_20 c6e207f35a1490e4bf467e8457db9b935e33358a",
        "scriptpubkey_type": "v0_p2wpkh",
        "scriptpubkey_address": "bc1qcm3q0u66zjgwf06x06z90kumjd0rxdv20pfytl",
        "value": 66847
      },
      "scriptsig": "",
      "scriptsig_asm": "",
      "witness": [
        "304402204fad57f4f02f634f7557f69f84b2149642d685e34970ee9a861fb7e7f0eb02f902202c4a3041064dd7d7c50af88912de897ac94209b0a5ca1b7d351d74401948a43e01",
        "035751368d7507d173fb32a10843bfaaaada40bb566ba55ed18762cc8942c3ab0e"
      ],
      "is_coinbase": false,
      "sequence": 4294967293
    }
  ],
  "vout": [
    {
      "scriptpubkey": "0014fd74cfa93c2f5a20a549aab702a10e5210c8ef27",
      "scriptpubkey_asm": "OP_0 OP_PUSHBYTES_20 fd74cfa93c2f5a20a549aab702a10e5210c8ef27",
      "scriptpubkey_type": "v0_p2wpkh",
      "scriptpubkey_address": "bc1ql46vl2fu9adzpf2f42ms9ggw2ggv3me83gpnaz",
      "value": 59300
    },
    {
      "scriptpubkey": "0014c6e207f35a1490e4bf467e8457db9b935e33358a",
      "scriptpubkey_asm": "OP_0 OP_PUSHBYTES_20 c6e207f35a1490e4bf467e8457db9b935e33358a",
      "scriptpubkey_type": "v0_p2wpkh",
      "scriptpubkey_address": "bc1qcm3q0u66zjgwf06x06z90kumjd0rxdv20pfytl",
      "value": 5503
    }
  ],
  "size": 222,
  "weight": 561,
  "fee": 2044,
  "status": {
    "confirmed": true,
    "block_height": 834638,
    "block_hash": "000000000000000000025f742c626208ac87e0b7d15054abb4a19ca2d735a54e",
    "block_time": 1710405325
  },
  "hex": "020000000001019ac4ea73398b3f6aad2512aea9b66fd77021c7c3986783d7cc2f7aee294eb3ef0100000000fdffffff02a4e7000000000000160014fd74cfa93c2f5a20a549aab702a10e5210c8ef277f15000000000000160014c6e207f35a1490e4bf467e8457db9b935e33358a0247304402204fad57f4f02f634f7557f69f84b2149642d685e34970ee9a861fb7e7f0eb02f902202c4a3041064dd7d7c50af88912de897ac94209b0a5ca1b7d351d74401948a43e0121035751368d7507d173fb32a10843bfaaaada40bb566ba55ed18762cc8942c3ab0e00000000"
}