{
  "txid": "fea9879e7da3c571ce7b413841442c9d2f0ca04984cf23177c9cb9c52f801c58",
  "version": 1,
  "locktime": 0,
  "vin": [
    {
      "txid": "e5d715807411043e9deb4deedb4fb0fcc2284607205a5116bdafa8909e3572bd",
      "vout": 115,
      "prevout": {
        "scriptpubkey": "76a91455656c27c5ce3ff99bacef2f2635e4291879105588ac",
        "scriptpubkey_asm": "OP_DUP OP_HASH160 OP_PUSHBYTES_20 55656c27c5ce3ff99bacef2f2635e42918791055 OP_EQUALVERIFY OP_CHECKSIG",
        "scriptpubkey_type": "p2pkh",
        "scriptpubkey_address": "18nXwGGJJgQvwgFTYFmKTSVyr9g5gSNJGc",
        "value": 2666809
      },
      "scriptsig": "483045022100a32e1707191bd0cd38c5cb88ade694aaea6392a1eb9f2dda0ff84a4b547a77be02201676ed05016e33892fad48bd65944d6da5abd623dc36d3fba7485f1c9422e6ab0121032ec78f459fb634f28eb61ab33423d58edc8e5501654d0d5a72b2611c5fbcbcd6",
      "scriptsig_asm": "OP_PUSHBYTES_72 3045022100a32e1707191bd0cd38c5cb88ade694aaea6392a1eb9f2dda0ff84a4b547a77be02201676ed05016e33892fad48bd65944d6da5abd623dc36d3fba7485f1c9422e6ab01 OP_PUSHBYTES_33 032ec78f459fb634f28eb61ab33423d58edc8e5501654d0d5a72b2611c5fbcbcd6",
      "is_coinbase": false,
      "sequence": 4294967295
    }
  ],
  "vout": [
    {
      "scriptpubkey": "76a914574db9e8d8b7ef1a70e5657b7f2cf1aa5e4ba1e188ac",
      "scriptpubkey_asm": "OP_DUP OP_HASH160 OP_PUSHBYTES_20 574db9e8d8b7ef1a70e5657b7f2cf1aa5e4ba1e1 OP_EQUALVERIFY OP_CHECKSIG",
      "scriptpubkey_type": "p2pkh",
      "scriptpubkey_address": "18xcuCexi7A2uMpzna7Z8rS9E5yJTXgcSQ",
      "value": 2650000
    },
    {
      "scriptpubkey": "76a91455656c27c5ce3ff99bacef2f2635e4291879105588ac",
      "scriptpubkey_asm": "OP_DUP OP_HASH160 OP_PUSHBYTES_20 55656c27c5ce3ff99bacef2f2635e42918791055 OP_EQUALVERIFY OP_CHECKSIG",
      "scriptpubkey_type": "p2pkh",
      "scriptpubkey_address": "18nXwGGJJgQvwgFTYFmKTSVyr9g5gSNJGc",
      "value": 12289
    }
  ],
  "size": 226,
  "weight": 904,
  "fee": 4520,
  "status": {
    "confirmed": true,
    "block_height": 834638,
    "block_hash": "000000000000000000025f742c626208ac87e0b7d15054abb4a19ca2d735a54e",
    "block_time": 1710405325
  },
  "hex": "0100000001bd72359e90a8afbd16515a20074628c2fcb04fdbee4deb9d3e0411748015d7e5730000006b483045022100a32e1707191bd0cd38c5cb88ade694aaea6392a1eb9f2dda0ff84a4b547a77be02201676ed05016e33892fad48bd65944d6da5abd623dc36d3fba7485f1c9422e6ab0121032ec78f459fb634f28eb61ab33423d58edc8e5501654d0d5a72b2611c5fbcbcd6ffffffff02906f2800000000001976a914574db9e8d8b7ef1a70e5657b7f2cf1aa5e4ba1e188ac01300000000000001976a91455656c27c5ce3ff99bacef2f2635e4291879105588ac00000000"
}