{
  "txid": "feb3a69ce75b51da3a120fbb66e6255e9cd97520defabb79c1b812b3374a9fae",
  "version": 2,
  "locktime": 0,
  "vin": [
    {
      "txid": "ff0f651d86fd8a4d5ff7b775cd0e6f3491ad3a09e177595c7d078c7c0269e64c",
      "vout": 4,
      "prevout": {
        "scriptpubkey": "5120742288b396237ebbaffece721aceefa81ceca33331dc368ebb51c44ea24a965f",
        "scriptpubkey_asm": "OP_PUSHNUM_1 OP_PUSHBYTES_32 742288b396237ebbaffece721aceefa81ceca33331dc368ebb51c44ea24a965f",
        "scriptpubkey_type": "v1_p2tr",
        "scriptpubkey_address": "bc1pws3g3vukydlthtl7eeep4nh04qwwegenx8wrdr4m28zyagj2je0sdnu6ta",
        "value": 51969532
      },
      "scriptsig": "",
      "scriptsig_asm": "",
      "witness": [
        "d3005e5ccda78e20b2e88a54ffcfcc84d502aedad7b85c1cc64ffc489b3e5d2ad55afe2733cd76c1fde9beac3d3d809cf6478a0e064aa92caac678ad2018f759"
      ],
      "is_coinbase": false,
      "sequence": 4294967293
    }
  ],
  "vout": [
    {
      "scriptpubkey": "5120daabf5514833b9f964e750762e908fc6f2f8e7f16a69122f7ff076c32dbe44d8",
      "scriptpubkey_asm": "OP_PUSHNUM_1 OP_PUSHBYTES_32 daabf5514833b9f964e750762e908fc6f2f8e7f16a69122f7ff076c32dbe44d8",
      "scriptpubkey_type": "v1_p2tr",
      "scriptpubkey_address": "bc1pm24l252gxwulje882pmzayy0cme03el3df53ytml7pmvxtd7gnvqe9pxeu",
      "value": 2856
    },
    {
      "scriptpubkey": "5120742288b396237ebbaffece721aceefa81ceca33331dc368ebb51c44ea24a965f",
      "scriptpubkey_asm": "OP_PUSHNUM_1 OP_PUSHBYTES_32 742288b396237ebbaffece721aceefa81ceca33331dc368ebb51c44ea24a965f",
      "scriptpubkey_type": "v1_p2tr",
      "scriptpubkey_address": "bc1pws3g3vukydlthtl7eeep4nh04qwwegenx8wrdr4m28zyagj2je0sdnu6ta",
      "value": 51964366
    }
  ],
  "size": 205,
  "weight": 616,
  "fee": 2310,
  "status": {
    "confirmed": true,
    "block_height": 834460,
    "block_hash": "00000000000000000000484a79b643b2524bbce82e5d8a442013fa5b8905ed98",
    "block_time": 1710307468
  },
  "hex": "020000000001014ce669027c8c077d5c5977e1093aad91346f0ecd75b7f75f4d8afd861d650fff0400000000fdffffff02280b000000000000225120daabf5514833b9f964e750762e908fc6f2f8e7f16a69122f7ff076c32dbe44d8cee9180300000000225120742288b396237ebbaffece721aceefa81ceca33331dc368ebb51c44ea24a965f0140d3005e5ccda78e20b2e88a54ffcfcc84d502aedad7b85c1cc64ffc489b3e5d2ad55afe2733cd76c1fde9beac3d3d809cf6478a0e064aa92caac678ad2018f75900000000"
}