{
  "txid": "fed864de018531a2a256ea3e70335887cdf910ea7e6adbf50d9e74546d900770",
  "version": 2,
  "locktime": 0,
  "vin": [
    {
      "txid": "768168b8b056017599f1532bc86c9ac482699f7796f43d096ea329825ed91c5d",
      "vout": 1,
      "prevout": {
        "scriptpubkey": "00149c628aaca2a3bd3373ebfdc29b33ca816d23094e",
        "scriptpubkey_asm": "OP_0 OP_PUSHBYTES_20 9c628aaca2a3bd3373ebfdc29b33ca816d23094e",
        "scriptpubkey_type": "v0_p2wpkh",
        "scriptpubkey_address": "bc1qn33g4t9z5w7nxultlhpfkv72s9kjxz2wksp96r",
        "value": 88070
      },
      "scriptsig": "",
      "scriptsig_asm": "",
      "witness": [
        "3045022100a6139473fb960fc20ff54364ef011b7bc4e1a1c7f358291d5ecdc932578b9b6202201a4a91ba720eb9da1bf147001100ab79b2e1d6522a361b4cc1c7f71ee3bda31e01",
        "021d52e1142b0255b98d210866dfa6c5160426b4a6aec58f4559972a8009c8ed0f"
      ],
      "is_coinbase": false,
      "sequence": 4294967295
    }
  ],
  "vout": [
    {
      "scriptpubkey": "a914d4b9e44b352df0276bb1bddbd5ba9978d6410b4487",
      "scriptpubkey_asm": "OP_HASH160 OP_PUSHBYTES_20 d4b9e44b352df0276bb1bddbd5ba9978d6410b44 OP_EQUAL",
      "scriptpubkey_type": "p2sh",
      "scriptpubkey_address": "3M5osCUKjTrTkausBCBfVXkChvJFUFXYzB",
      "value": 78260
    },
    {
      "scriptpubkey": "0014fc3967f2b87d497e7c8eff08a452524afd019b7d",
      "scriptpubkey_asm": "OP_0 OP_PUSHBYTES_20 fc3967f2b87d497e7c8eff08a452524afd019b7d",
      "scriptpubkey_type": "v0_p2wpkh",
      "scriptpubkey_address": "bc1qlsuk0u4c04yhulywluy2g5jjft7srxmaqxlvsr",
      "value": 8273
    }
  ],
  "size": 224,
  "weight": 566,
  "fee": 1537,
  "status": {
    "confirmed": true,
    "block_height": 834464,
    "block_hash": "0000000000000000000177a0869a911a2b65c9bdcd5a8bcb02b68f305bee848e",
    "block_time": 1710308296
  },
  "hex": "020000000001015d1cd95e8229a36e093df496779f6982c49a6cc82b53f199750156b0b86881760100000000ffffffff02b43101000000000017a914d4b9e44b352df0276bb1bddbd5ba9978d6410b44875120000000000000160014fc3967f2b87d497e7c8eff08a452524afd019b7d02483045022100a6139473fb960fc20ff54364ef011b7bc4e1a1c7f358291d5ecdc932578b9b6202201a4a91ba720eb9da1bf147001100ab79b2e1d6522a361b4cc1c7f71ee3bda31e0121021d52e1142b0255b98d210866dfa6c5160426b4a6aec58f4559972a8009c8ed0f00000000"
}