{
  "txid": "fee479dc4e0dc80efbb2574755d6f36f9dad68ea1c2a0a5dfb8bdf3b0a675fe9",
  "version": 2,
  "locktime": 0,
  "vin": [
    {
      "txid": "1b5cd4220e85862d26b59e1550e8718773f9b3e3a0b27229d46b1e98207463f9",
      "vout": 0,
      "prevout": {
        "scriptpubkey": "5120bf282277391229e7e8512fd5420a312366c05e8feed720391fe633b49a604016",
        "scriptpubkey_asm": "OP_PUSHNUM_1 OP_PUSHBYTES_32 bf282277391229e7e8512fd5420a312366c05e8feed720391fe633b49a604016",
        "scriptpubkey_type": "v1_p2tr",
        "scriptpubkey_address": "bc1phu5zyaeezg5706z39l25yz33ydnvqh50amtjqwglucemfxnqgqtqn9uz4m",
        "value": 546
      },
      "scriptsig": "",
      "scriptsig_asm": "",
      "witness": [
        "e8dc2f2390fa2a067caa709ec36a56d2d88863850feb89f3e379d42e7813f34592b7a19f9d7be1355d473c13ba81df8dd118668bd8b3b25d839db7d3363b35cf"
      ],
      "is_coinbase": false,
      "sequence": 2147483649
    },
    {
      "txid": "e834e952c0ab927a6aa78a7fcd137b3c216e2751bd5e30a01a9f921a098653a3",
      "vout": 1,
      "prevout": {
        "scriptpubkey": "5120bf282277391229e7e8512fd5420a312366c05e8feed720391fe633b49a604016",
        "scriptpubkey_asm": "OP_PUSHNUM_1 OP_PUSHBYTES_32 bf282277391229e7e8512fd5420a312366c05e8feed720391fe633b49a604016",
        "scriptpubkey_type": "v1_p2tr",
        "scriptpubkey_address": "bc1phu5zyaeezg5706z39l25yz33ydnvqh50amtjqwglucemfxnqgqtqn9uz4m",
        "value": 54823
      },
      "scriptsig": "",
      "scriptsig_asm": "",
      "witness": [
        "601e03b0d3792e089482a197395b7eab790a89b252497d7ba10f829a8ed3f53de0a5d54b76cca2e405c835097e66e16c28d74b9947af88727856f943c84483e3"
      ],
      "is_coinbase": false,
      "sequence": 2147483649
    }
  ],
  "vout": [
    {
      "scriptpubkey": "5120bf282277391229e7e8512fd5420a312366c05e8feed720391fe633b49a604016",
      "scriptpubkey_asm": "OP_PUSHNUM_1 OP_PUSHBYTES_32 bf282277391229e7e8512fd5420a312366c05e8feed720391fe633b49a604016",
      "scriptpubkey_type": "v1_p2tr",
      "scriptpubkey_address": "bc1phu5zyaeezg5706z39l25yz33ydnvqh50amtjqwglucemfxnqgqtqn9uz4m",
      "value": 546
    },
    {
      "scriptpubkey": "5120bf282277391229e7e8512fd5420a312366c05e8feed720391fe633b49a604016",
      "scriptpubkey_asm": "OP_PUSHNUM_1 OP_PUSHBYTES_32 bf282277391229e7e8512fd5420a312366c05e8feed720391fe633b49a604016",
      "scriptpubkey_type": "v1_p2tr",
      "scriptpubkey_address": "bc1phu5zyaeezg5706z39l25yz33ydnvqh50amtjqwglucemfxnqgqtqn9uz4m",
      "value": 52502
    }
  ],
  "size": 312,
  "weight": 846,
  "fee": 2321,
  "status": {
    "confirmed": true,
    "block_height": 834464,
    "block_hash": "0000000000000000000177a0869a911a2b65c9bdcd5a8bcb02b68f305bee848e",
    "block_time": 1710308296
  },
  "hex": "02000000000102f9637420981e6bd42972b2a0e3b3f9738771e850159eb5262d86850e22d45c1b000000000001000080a35386091a929f1aa0305ebd51276e213c7b13cd7f8aa76a7a92abc052e934e8010000000001000080022202000000000000225120bf282277391229e7e8512fd5420a312366c05e8feed720391fe633b49a60401616cd000000000000225120bf282277391229e7e8512fd5420a312366c05e8feed720391fe633b49a6040160140e8dc2f2390fa2a067caa709ec36a56d2d88863850feb89f3e379d42e7813f34592b7a19f9d7be1355d473c13ba81df8dd118668bd8b3b25d839db7d3363b35cf0140601e03b0d3792e089482a197395b7eab790a89b252497d7ba10f829a8ed3f53de0a5d54b76cca2e405c835097e66e16c28d74b9947af88727856f943c84483e300000000"
}