{
  "txid": "fee9585fcf70f3984ddeeb6c8e1c36e998d0a20ae44961416a84410d859a4648",
  "version": 2,
  "locktime": 0,
  "vin": [
    {
      "txid": "b046cc5bfd9ffc464fd4bb0ad9b9c60e19354682384394909551a26c6fbfd250",
      "vout": 0,
      "prevout": {
        "scriptpubkey": "00148fca603183266a9afe9e92872aa00822439f7959",
        "scriptpubkey_asm": "OP_0 OP_PUSHBYTES_20 8fca603183266a9afe9e92872aa00822439f7959",
        "scriptpubkey_type": "v0_p2wpkh",
        "scriptpubkey_address": "bc1q3l9xqvvrye4f4l57j2rj4gqgyfpe772e9uax2g",
        "value": 198343
      },
      "scriptsig": "",
      "scriptsig_asm": "",
      "witness": [
        "304402205ffde800e242e9c3ae1e913b1c3dc018701cfd0d15ac1f52bdf81f26a747622402207f98d65ef69f1729bcfd090386a6b5158c66e964304c026a477e15cdc4c6eaad01",
        "03785fd954e5d040e2ef03b0b27fbf18f72d0f058dd157f1d2a65b9f1c101a8eed"
      ],
      "is_coinbase": false,
      "sequence": 4294967295
    },
    {
      "txid": "abdeaac4808126461f244223573e5926d53eabcdb0fadc2a5df2d414df26e752",
      "vout": 0,
      "prevout": {
        "scriptpubkey": "00148fca603183266a9afe9e92872aa00822439f7959",
        "scriptpubkey_asm": "OP_0 OP_PUSHBYTES_20 8fca603183266a9afe9e92872aa00822439f7959",
        "scriptpubkey_type": "v0_p2wpkh",
        "scriptpubkey_address": "bc1q3l9xqvvrye4f4l57j2rj4gqgyfpe772e9uax2g",
        "value": 61827
      },
      "scriptsig": "",
      "scriptsig_asm": "",
      "witness": [
        "30440220212a8f78a633d94806b878e04e1651c609ea09ad10e51094cf8be717de99172902200a5e5540a39589a3668da41ed4b54775d73533ba760e5d01b0af1f6add8f3a4201",
        "03785fd954e5d040e2ef03b0b27fbf18f72d0f058dd157f1d2a65b9f1c101a8eed"
      ],
      "is_coinbase": false,
      "sequence": 4294967295
    },
    {
      "txid": "073c93ac432a93bb4d1a8347ff6936464ea263c05d8d38b39ae519ea542ba7ee",
      "vout": 0,
      "prevout": {
        "scriptpubkey": "00148fca603183266a9afe9e92872aa00822439f7959",
        "scriptpubkey_asm": "OP_0 OP_PUSHBYTES_20 8fca603183266a9afe9e92872aa00822439f7959",
        "scriptpubkey_type": "v0_p2wpkh",
        "scriptpubkey_address": "bc1q3l9xqvvrye4f4l57j2rj4gqgyfpe772e9uax2g",
        "value": 60787
      },
      "scriptsig": "",
      "scriptsig_asm": "",
      "witness": [
        "304402200f77ade172ee0e241b4337ba763c9e23a7b7846f1f39c673e40c6fcda2191ee702202063476cba67e451339dcc5acbd6fde72ce323b1449b348de12086d6957e331f01",
        "03785fd954e5d040e2ef03b0b27fbf18f72d0f058dd157f1d2a65b9f1c101a8eed"
      ],
      "is_coinbase": false,
      "sequence": 4294967295
    }
  ],
  "vout": [
    {
      "scriptpubkey": "a914762a5c78a6437e80270968cc261a3a3c7e66cf0687",
      "scriptpubkey_asm": "OP_HASH160 OP_PUSHBYTES_20 762a5c78a6437e80270968cc261a3a3c7e66cf06 OP_EQUAL",
      "scriptpubkey_type": "p2sh",
      "scriptpubkey_address": "3CTpQVHztW2mJw4kLedz4UGVQbgzvdAssU",
      "value": 318181
    }
  ],
  "size": 488,
  "weight": 983,
  "fee": 2776,
  "status": {
    "confirmed": true,
    "block_height": 834460,
    "block_hash": "00000000000000000000484a79b643b2524bbce82e5d8a442013fa5b8905ed98",
    "block_time": 1710307468
  },
  "hex": "0200000000010350d2bf6f6ca2519590944338824635190ec6b9d90abbd44f46fc9ffd5bcc46b00000000000ffffffff52e726df14d4f25d2adcfab0cdab3ed526593e572342241f46268180c4aadeab0000000000ffffffffeea72b54ea19e59ab3388d5dc063a24e463669ff47831a4dbb932a43ac933c070000000000ffffffff01e5da04000000000017a914762a5c78a6437e80270968cc261a3a3c7e66cf06870247304402205ffde800e242e9c3ae1e913b1c3dc018701cfd0d15ac1f52bdf81f26a747622402207f98d65ef69f1729bcfd090386a6b5158c66e964304c026a477e15cdc4c6eaad012103785fd954e5d040e2ef03b0b27fbf18f72d0f058dd157f1d2a65b9f1c101a8eed024730440220212a8f78a633d94806b878e04e1651c609ea09ad10e51094cf8be717de99172902200a5e5540a39589a3668da41ed4b54775d73533ba760e5d01b0af1f6add8f3a42012103785fd954e5d040e2ef03b0b27fbf18f72d0f058dd157f1d2a65b9f1c101a8eed0247304402200f77ade172ee0e241b4337ba763c9e23a7b7846f1f39c673e40c6fcda2191ee702202063476cba67e451339dcc5acbd6fde72ce323b1449b348de12086d6957e331f012103785fd954e5d040e2ef03b0b27fbf18f72d0f058dd157f1d2a65b9f1c101a8eed00000000"
}