{
  "txid": "ff0539ac4defb4eb74e8da337dad1d7162668b08b01862e64d16ba6b79e4142b",
  "version": 2,
  "locktime": 0,
  "vin": [
    {
      "txid": "f099f4a8eaaf064ea8732adac0f535d0392a6ce79e0ef430dc26c94e055a0492",
      "vout": 1,
      "prevout": {
        "scriptpubkey": "76a91492f6eb1fd7b33f0ded1732a472aa3b4df5d6037088ac",
        "scriptpubkey_asm": "OP_DUP OP_HASH160 OP_PUSHBYTES_20 92f6eb1fd7b33f0ded1732a472aa3b4df5d60370 OP_EQUALVERIFY OP_CHECKSIG",
        "scriptpubkey_type": "p2pkh",
        "scriptpubkey_address": "1EQ5TCjKuXPoeA7oqS5DDd4wuq1nKgcaCw",
        "value": 4896
      },
      "scriptsig": "4730440220792e8d7f4d145acc86d2c9fa5dc98253d7016d55fec26aa675e24a35fdff568602201f843dce44c59d4b49cc54752f0f64c8012af58333d2ea79b6dda28fa85558950121021ca771e3ea72365aed2c990e46adfda556960e83831b9fa1c85a0c7714514948",
      "scriptsig_asm": "OP_PUSHBYTES_71 30440220792e8d7f4d145acc86d2c9fa5dc98253d7016d55fec26aa675e24a35fdff568602201f843dce44c59d4b49cc54752f0f64c8012af58333d2ea79b6dda28fa855589501 OP_PUSHBYTES_33 021ca771e3ea72365aed2c990e46adfda556960e83831b9fa1c85a0c7714514948",
      "is_coinbase": false,
      "sequence": 4294967295
    },
    {
      "txid": "a840a5f068887c0a8b96caadc2fec869ee9cde2beff8f0519b8f78d8ef9119e8",
      "vout": 205,
      "prevout": {
        "scriptpubkey": "76a914edaa39c8b375a2c8af484856e9d4d63f521d2a9588ac",
        "scriptpubkey_asm": "OP_DUP OP_HASH160 OP_PUSHBYTES_20 edaa39c8b375a2c8af484856e9d4d63f521d2a95 OP_EQUALVERIFY OP_CHECKSIG",
        "scriptpubkey_type": "p2pkh",
        "scriptpubkey_address": "1Nff4xLaMnoxjeEsiLqTHmW36BhkRZipcr",
        "value": 186254
      },
      "scriptsig": "47304402205ce81e85e294297440055e3af33a8954516e849c1c36e7f52b331a7ce36196d8022016272185ee0eeb39e0f1f34c82ed652fc2224346e639e0665d83d5ba3f327e4b0121023160cd4671bac5665920227afa2cac5ef1307cbab1202e5191f4eabebfe39ee5",
      "scriptsig_asm": "OP_PUSHBYTES_71 304402205ce81e85e294297440055e3af33a8954516e849c1c36e7f52b331a7ce36196d8022016272185ee0eeb39e0f1f34c82ed652fc2224346e639e0665d83d5ba3f327e4b01 OP_PUSHBYTES_33 023160cd4671bac5665920227afa2cac5ef1307cbab1202e5191f4eabebfe39ee5",
      "is_coinbase": false,
      "sequence": 4294967295
    }
  ],
  "vout": [
    {
      "scriptpubkey": "76a914a68e1037bf83faded389e43510e68af377dbec3d88ac",
      "scriptpubkey_asm": "OP_DUP OP_HASH160 OP_PUSHBYTES_20 a68e1037bf83faded389e43510e68af377dbec3d OP_EQUALVERIFY OP_CHECKSIG",
      "scriptpubkey_type": "p2pkh",
      "scriptpubkey_address": "1GBfMaZ4y1jDmcsFdeMdJUR8tgJt5xjVcJ",
      "value": 68032
    },
    {
      "scriptpubkey": "76a9143ff6f3e0e632994f5a19364e9c652037e48a716888ac",
      "scriptpubkey_asm": "OP_DUP OP_HASH160 OP_PUSHBYTES_20 3ff6f3e0e632994f5a19364e9c652037e48a7168 OP_EQUALVERIFY OP_CHECKSIG",
      "scriptpubkey_type": "p2pkh",
      "scriptpubkey_address": "16qDQf4itxJTZJkdb9dLjXERoz21HViDhY",
      "value": 110284
    }
  ],
  "size": 372,
  "weight": 1488,
  "fee": 12834,
  "status": {
    "confirmed": true,
    "block_height": 834638,
    "block_hash": "000000000000000000025f742c626208ac87e0b7d15054abb4a19ca2d735a54e",
    "block_time": 1710405325
  },
  "hex": "020000000292045a054ec926dc30f40e9ee76c2a39d035f5c0da2a73a84e06afeaa8f499f0010000006a4730440220792e8d7f4d145acc86d2c9fa5dc98253d7016d55fec26aa675e24a35fdff568602201f843dce44c59d4b49cc54752f0f64c8012af58333d2ea79b6dda28fa85558950121021ca771e3ea72365aed2c990e46adfda556960e83831b9fa1c85a0c7714514948ffffffffe81991efd8788f9b51f0f8ef2bde9cee69c8fec2adca968b0a7c8868f0a540a8cd0000006a47304402205ce81e85e294297440055e3af33a8954516e849c1c36e7f52b331a7ce36196d8022016272185ee0eeb39e0f1f34c82ed652fc2224346e639e0665d83d5ba3f327e4b0121023160cd4671bac5665920227afa2cac5ef1307cbab1202e5191f4eabebfe39ee5ffffffff02c0090100000000001976a914a68e1037bf83faded389e43510e68af377dbec3d88acccae0100000000001976a9143ff6f3e0e632994f5a19364e9c652037e48a716888ac00000000"
}