{
  "txid": "ff0f62bb8a40886ac861660b18af1b333a8eee725591cc0a7242650c28b515d9",
  "version": 2,
  "locktime": 0,
  "vin": [
    {
      "txid": "6ef1ebb001c3079c65d006c0323070b5bac0f9ea34cc658ed09d6b2fb708c274",
      "vout": 0,
      "prevout": {
        "scriptpubkey": "5120b846a463e00c0c37f81d88ffabd6faac06561a60ad24ee559285873ebf330987",
        "scriptpubkey_asm": "OP_PUSHNUM_1 OP_PUSHBYTES_32 b846a463e00c0c37f81d88ffabd6faac06561a60ad24ee559285873ebf330987",
        "scriptpubkey_type": "v1_p2tr",
        "scriptpubkey_address": "bc1phpr2gclqpsxr07qa3rl6h4h64sr9vxnq45jwu4vjskrna0enpxrstks9dq",
        "value": 250000
      },
      "scriptsig": "",
      "scriptsig_asm": "",
      "witness": [
        "6a4d717307e3c82fde67940d2c55fcde2a382857447a494950f33becfd304a8a5c33b648e32d385f980656881fb7b7c33477230993617c28dcc653109e5cc31d"
      ],
      "is_coinbase": false,
      "sequence": 4294967295
    }
  ],
  "vout": [
    {
      "scriptpubkey": "76a914d334967b3e4d0cc2545f7d0fb71000b5ca61a4fc88ac",
      "scriptpubkey_asm": "OP_DUP OP_HASH160 OP_PUSHBYTES_20 d334967b3e4d0cc2545f7d0fb71000b5ca61a4fc OP_EQUALVERIFY OP_CHECKSIG",
      "scriptpubkey_type": "p2pkh",
      "scriptpubkey_address": "1LFkaLq4VePKTNdySsgqgitaT1CNaHUgKC",
      "value": 248368
    }
  ],
  "size": 153,
  "weight": 408,
  "fee": 1632,
  "status": {
    "confirmed": true,
    "block_height": 834638,
    "block_hash": "000000000000000000025f742c626208ac87e0b7d15054abb4a19ca2d735a54e",
    "block_time": 1710405325
  },
  "hex": "0200000000010174c208b72f6b9dd08e65cc34eaf9c0bab5703032c006d0659c07c301b0ebf16e0000000000ffffffff0130ca0300000000001976a914d334967b3e4d0cc2545f7d0fb71000b5ca61a4fc88ac01406a4d717307e3c82fde67940d2c55fcde2a382857447a494950f33becfd304a8a5c33b648e32d385f980656881fb7b7c33477230993617c28dcc653109e5cc31d00000000"
}