{
  "txid": "ff11ef06ca9069766cca030f1be542cef8f1864f0236dfb07457a3bb949c3b45",
  "version": 2,
  "locktime": 0,
  "vin": [
    {
      "txid": "be67cc02ca820092249c9ef2c338890afbba86a8d324ec6585ca6e4e3e7d34c3",
      "vout": 5,
      "prevout": {
        "scriptpubkey": "512005b0de56f31db8c2007055862a9b4e98cad7244961d90538303347d304d4aa57",
        "scriptpubkey_asm": "OP_PUSHNUM_1 OP_PUSHBYTES_32 05b0de56f31db8c2007055862a9b4e98cad7244961d90538303347d304d4aa57",
        "scriptpubkey_type": "v1_p2tr",
        "scriptpubkey_address": "bc1pqkcdu4hnrkuvyqrs2krz4x6wnr9dwfzfv8vs2wpsxdraxpx54ftsnl2w5g",
        "value": 91315
      },
      "scriptsig": "",
      "scriptsig_asm": "",
      "witness": [
        "2d0a6ab538892262ff5001c1e6462a8c35401fa1a2362fb4b204ef952381ef70fc626f791ece52b9c823cfdcfb7e689a4ae422709d5ace0381032e135d07ea40"
      ],
      "is_coinbase": false,
      "sequence": 4294967293
    }
  ],
  "vout": [
    {
      "scriptpubkey": "5120ab71745472051894656fa47aefcc1485ecb8cc4ac77701ae3dfe7bdce43874fd",
      "scriptpubkey_asm": "OP_PUSHNUM_1 OP_PUSHBYTES_32 ab71745472051894656fa47aefcc1485ecb8cc4ac77701ae3dfe7bdce43874fd",
      "scriptpubkey_type": "v1_p2tr",
      "scriptpubkey_address": "bc1p4dchg4rjq5vfget053awlnq5shkt3nz2camsrt3aleaaeepcwn7sxmsnm7",
      "value": 2142
    },
    {
      "scriptpubkey": "5120ab71745472051894656fa47aefcc1485ecb8cc4ac77701ae3dfe7bdce43874fd",
      "scriptpubkey_asm": "OP_PUSHNUM_1 OP_PUSHBYTES_32 ab71745472051894656fa47aefcc1485ecb8cc4ac77701ae3dfe7bdce43874fd",
      "scriptpubkey_type": "v1_p2tr",
      "scriptpubkey_address": "bc1p4dchg4rjq5vfget053awlnq5shkt3nz2camsrt3aleaaeepcwn7sxmsnm7",
      "value": 2142
    },
    {
      "scriptpubkey": "5120ab71745472051894656fa47aefcc1485ecb8cc4ac77701ae3dfe7bdce43874fd",
      "scriptpubkey_asm": "OP_PUSHNUM_1 OP_PUSHBYTES_32 ab71745472051894656fa47aefcc1485ecb8cc4ac77701ae3dfe7bdce43874fd",
      "scriptpubkey_type": "v1_p2tr",
      "scriptpubkey_address": "bc1p4dchg4rjq5vfget053awlnq5shkt3nz2camsrt3aleaaeepcwn7sxmsnm7",
      "value": 2142
    },
    {
      "scriptpubkey": "5120ab71745472051894656fa47aefcc1485ecb8cc4ac77701ae3dfe7bdce43874fd",
      "scriptpubkey_asm": "OP_PUSHNUM_1 OP_PUSHBYTES_32 ab71745472051894656fa47aefcc1485ecb8cc4ac77701ae3dfe7bdce43874fd",
      "scriptpubkey_type": "v1_p2tr",
      "scriptpubkey_address": "bc1p4dchg4rjq5vfget053awlnq5shkt3nz2camsrt3aleaaeepcwn7sxmsnm7",
      "value": 2142
    },
    {
      "scriptpubkey": "5120ab71745472051894656fa47aefcc1485ecb8cc4ac77701ae3dfe7bdce43874fd",
      "scriptpubkey_asm": "OP_PUSHNUM_1 OP_PUSHBYTES_32 ab71745472051894656fa47aefcc1485ecb8cc4ac77701ae3dfe7bdce43874fd",
      "scriptpubkey_type": "v1_p2tr",
      "scriptpubkey_address": "bc1p4dchg4rjq5vfget053awlnq5shkt3nz2camsrt3aleaaeepcwn7sxmsnm7",
      "value": 2142
    },
    {
      "scriptpubkey": "5120ab71745472051894656fa47aefcc1485ecb8cc4ac77701ae3dfe7bdce43874fd",
      "scriptpubkey_asm": "OP_PUSHNUM_1 OP_PUSHBYTES_32 ab71745472051894656fa47aefcc1485ecb8cc4ac77701ae3dfe7bdce43874fd",
      "scriptpubkey_type": "v1_p2tr",
      "scriptpubkey_address": "bc1p4dchg4rjq5vfget053awlnq5shkt3nz2camsrt3aleaaeepcwn7sxmsnm7",
      "value": 2142
    },
    {
      "scriptpubkey": "5120ab71745472051894656fa47aefcc1485ecb8cc4ac77701ae3dfe7bdce43874fd",
      "scriptpubkey_asm": "OP_PUSHNUM_1 OP_PUSHBYTES_32 ab71745472051894656fa47aefcc1485ecb8cc4ac77701ae3dfe7bdce43874fd",
      "scriptpubkey_type": "v1_p2tr",
      "scriptpubkey_address": "bc1p4dchg4rjq5vfget053awlnq5shkt3nz2camsrt3aleaaeepcwn7sxmsnm7",
      "value": 2142
    },
    {
      "scriptpubkey": "5120ab71745472051894656fa47aefcc1485ecb8cc4ac77701ae3dfe7bdce43874fd",
      "scriptpubkey_asm": "OP_PUSHNUM_1 OP_PUSHBYTES_32 ab71745472051894656fa47aefcc1485ecb8cc4ac77701ae3dfe7bdce43874fd",
      "scriptpubkey_type": "v1_p2tr",
      "scriptpubkey_address": "bc1p4dchg4rjq5vfget053awlnq5shkt3nz2camsrt3aleaaeepcwn7sxmsnm7",
      "value": 2142
    },
    {
      "scriptpubkey": "5120ab71745472051894656fa47aefcc1485ecb8cc4ac77701ae3dfe7bdce43874fd",
      "scriptpubkey_asm": "OP_PUSHNUM_1 OP_PUSHBYTES_32 ab71745472051894656fa47aefcc1485ecb8cc4ac77701ae3dfe7bdce43874fd",
      "scriptpubkey_type": "v1_p2tr",
      "scriptpubkey_address": "bc1p4dchg4rjq5vfget053awlnq5shkt3nz2camsrt3aleaaeepcwn7sxmsnm7",
      "value": 2142
    },
    {
      "scriptpubkey": "5120ab71745472051894656fa47aefcc1485ecb8cc4ac77701ae3dfe7bdce43874fd",
      "scriptpubkey_asm": "OP_PUSHNUM_1 OP_PUSHBYTES_32 ab71745472051894656fa47aefcc1485ecb8cc4ac77701ae3dfe7bdce43874fd",
      "scriptpubkey_type": "v1_p2tr",
      "scriptpubkey_address": "bc1p4dchg4rjq5vfget053awlnq5shkt3nz2camsrt3aleaaeepcwn7sxmsnm7",
      "value": 2142
    },
    {
      "scriptpubkey": "5120ab71745472051894656fa47aefcc1485ecb8cc4ac77701ae3dfe7bdce43874fd",
      "scriptpubkey_asm": "OP_PUSHNUM_1 OP_PUSHBYTES_32 ab71745472051894656fa47aefcc1485ecb8cc4ac77701ae3dfe7bdce43874fd",
      "scriptpubkey_type": "v1_p2tr",
      "scriptpubkey_address": "bc1p4dchg4rjq5vfget053awlnq5shkt3nz2camsrt3aleaaeepcwn7sxmsnm7",
      "value": 2142
    },
    {
      "scriptpubkey": "5120ab71745472051894656fa47aefcc1485ecb8cc4ac77701ae3dfe7bdce43874fd",
      "scriptpubkey_asm": "OP_PUSHNUM_1 OP_PUSHBYTES_32 ab71745472051894656fa47aefcc1485ecb8cc4ac77701ae3dfe7bdce43874fd",
      "scriptpubkey_type": "v1_p2tr",
      "scriptpubkey_address": "bc1p4dchg4rjq5vfget053awlnq5shkt3nz2camsrt3aleaaeepcwn7sxmsnm7",
      "value": 2142
    },
    {
      "scriptpubkey": "5120ab71745472051894656fa47aefcc1485ecb8cc4ac77701ae3dfe7bdce43874fd",
      "scriptpubkey_asm": "OP_PUSHNUM_1 OP_PUSHBYTES_32 ab71745472051894656fa47aefcc1485ecb8cc4ac77701ae3dfe7bdce43874fd",
      "scriptpubkey_type": "v1_p2tr",
      "scriptpubkey_address": "bc1p4dchg4rjq5vfget053awlnq5shkt3nz2camsrt3aleaaeepcwn7sxmsnm7",
      "value": 2142
    },
    {
      "scriptpubkey": "5120ab71745472051894656fa47aefcc1485ecb8cc4ac77701ae3dfe7bdce43874fd",
      "scriptpubkey_asm": "OP_PUSHNUM_1 OP_PUSHBYTES_32 ab71745472051894656fa47aefcc1485ecb8cc4ac77701ae3dfe7bdce43874fd",
      "scriptpubkey_type": "v1_p2tr",
      "scriptpubkey_address": "bc1p4dchg4rjq5vfget053awlnq5shkt3nz2camsrt3aleaaeepcwn7sxmsnm7",
      "value": 2142
    },
    {
      "scriptpubkey": "5120ab71745472051894656fa47aefcc1485ecb8cc4ac77701ae3dfe7bdce43874fd",
      "scriptpubkey_asm": "OP_PUSHNUM_1 OP_PUSHBYTES_32 ab71745472051894656fa47aefcc1485ecb8cc4ac77701ae3dfe7bdce43874fd",
      "scriptpubkey_type": "v1_p2tr",
      "scriptpubkey_address": "bc1p4dchg4rjq5vfget053awlnq5shkt3nz2camsrt3aleaaeepcwn7sxmsnm7",
      "value": 2142
    },
    {
      "scriptpubkey": "5120ab71745472051894656fa47aefcc1485ecb8cc4ac77701ae3dfe7bdce43874fd",
      "scriptpubkey_asm": "OP_PUSHNUM_1 OP_PUSHBYTES_32 ab71745472051894656fa47aefcc1485ecb8cc4ac77701ae3dfe7bdce43874fd",
      "scriptpubkey_type": "v1_p2tr",
      "scriptpubkey_address": "bc1p4dchg4rjq5vfget053awlnq5shkt3nz2camsrt3aleaaeepcwn7sxmsnm7",
      "value": 2142
    },
    {
      "scriptpubkey": "5120ab71745472051894656fa47aefcc1485ecb8cc4ac77701ae3dfe7bdce43874fd",
      "scriptpubkey_asm": "OP_PUSHNUM_1 OP_PUSHBYTES_32 ab71745472051894656fa47aefcc1485ecb8cc4ac77701ae3dfe7bdce43874fd",
      "scriptpubkey_type": "v1_p2tr",
      "scriptpubkey_address": "bc1p4dchg4rjq5vfget053awlnq5shkt3nz2camsrt3aleaaeepcwn7sxmsnm7",
      "value": 2142
    },
    {
      "scriptpubkey": "5120ab71745472051894656fa47aefcc1485ecb8cc4ac77701ae3dfe7bdce43874fd",
      "scriptpubkey_asm": "OP_PUSHNUM_1 OP_PUSHBYTES_32 ab71745472051894656fa47aefcc1485ecb8cc4ac77701ae3dfe7bdce43874fd",
      "scriptpubkey_type": "v1_p2tr",
      "scriptpubkey_address": "bc1p4dchg4rjq5vfget053awlnq5shkt3nz2camsrt3aleaaeepcwn7sxmsnm7",
      "value": 2142
    },
    {
      "scriptpubkey": "5120ab71745472051894656fa47aefcc1485ecb8cc4ac77701ae3dfe7bdce43874fd",
      "scriptpubkey_asm": "OP_PUSHNUM_1 OP_PUSHBYTES_32 ab71745472051894656fa47aefcc1485ecb8cc4ac77701ae3dfe7bdce43874fd",
      "scriptpubkey_type": "v1_p2tr",
      "scriptpubkey_address": "bc1p4dchg4rjq5vfget053awlnq5shkt3nz2camsrt3aleaaeepcwn7sxmsnm7",
      "value": 2142
    },
    {
      "scriptpubkey": "5120ab71745472051894656fa47aefcc1485ecb8cc4ac77701ae3dfe7bdce43874fd",
      "scriptpubkey_asm": "OP_PUSHNUM_1 OP_PUSHBYTES_32 ab71745472051894656fa47aefcc1485ecb8cc4ac77701ae3dfe7bdce43874fd",
      "scriptpubkey_type": "v1_p2tr",
      "scriptpubkey_address": "bc1p4dchg4rjq5vfget053awlnq5shkt3nz2camsrt3aleaaeepcwn7sxmsnm7",
      "value": 2142
    },
    {
      "scriptpubkey": "5120ab71745472051894656fa47aefcc1485ecb8cc4ac77701ae3dfe7bdce43874fd",
      "scriptpubkey_asm": "OP_PUSHNUM_1 OP_PUSHBYTES_32 ab71745472051894656fa47aefcc1485ecb8cc4ac77701ae3dfe7bdce43874fd",
      "scriptpubkey_type": "v1_p2tr",
      "scriptpubkey_address": "bc1p4dchg4rjq5vfget053awlnq5shkt3nz2camsrt3aleaaeepcwn7sxmsnm7",
      "value": 2142
    },
    {
      "scriptpubkey": "5120ab71745472051894656fa47aefcc1485ecb8cc4ac77701ae3dfe7bdce43874fd",
      "scriptpubkey_asm": "OP_PUSHNUM_1 OP_PUSHBYTES_32 ab71745472051894656fa47aefcc1485ecb8cc4ac77701ae3dfe7bdce43874fd",
      "scriptpubkey_type": "v1_p2tr",
      "scriptpubkey_address": "bc1p4dchg4rjq5vfget053awlnq5shkt3nz2camsrt3aleaaeepcwn7sxmsnm7",
      "value": 2142
    },
    {
      "scriptpubkey": "5120ab71745472051894656fa47aefcc1485ecb8cc4ac77701ae3dfe7bdce43874fd",
      "scriptpubkey_asm": "OP_PUSHNUM_1 OP_PUSHBYTES_32 ab71745472051894656fa47aefcc1485ecb8cc4ac77701ae3dfe7bdce43874fd",
      "scriptpubkey_type": "v1_p2tr",
      "scriptpubkey_address": "bc1p4dchg4rjq5vfget053awlnq5shkt3nz2camsrt3aleaaeepcwn7sxmsnm7",
      "value": 2142
    },
    {
      "scriptpubkey": "5120ab71745472051894656fa47aefcc1485ecb8cc4ac77701ae3dfe7bdce43874fd",
      "scriptpubkey_asm": "OP_PUSHNUM_1 OP_PUSHBYTES_32 ab71745472051894656fa47aefcc1485ecb8cc4ac77701ae3dfe7bdce43874fd",
      "scriptpubkey_type": "v1_p2tr",
      "scriptpubkey_address": "bc1p4dchg4rjq5vfget053awlnq5shkt3nz2camsrt3aleaaeepcwn7sxmsnm7",
      "value": 2142
    },
    {
      "scriptpubkey": "5120ab71745472051894656fa47aefcc1485ecb8cc4ac77701ae3dfe7bdce43874fd",
      "scriptpubkey_asm": "OP_PUSHNUM_1 OP_PUSHBYTES_32 ab71745472051894656fa47aefcc1485ecb8cc4ac77701ae3dfe7bdce43874fd",
      "scriptpubkey_type": "v1_p2tr",
      "scriptpubkey_address": "bc1p4dchg4rjq5vfget053awlnq5shkt3nz2camsrt3aleaaeepcwn7sxmsnm7",
      "value": 2142
    },
    {
      "scriptpubkey": "5120ab71745472051894656fa47aefcc1485ecb8cc4ac77701ae3dfe7bdce43874fd",
      "scriptpubkey_asm": "OP_PUSHNUM_1 OP_PUSHBYTES_32 ab71745472051894656fa47aefcc1485ecb8cc4ac77701ae3dfe7bdce43874fd",
      "scriptpubkey_type": "v1_p2tr",
      "scriptpubkey_address": "bc1p4dchg4rjq5vfget053awlnq5shkt3nz2camsrt3aleaaeepcwn7sxmsnm7",
      "value": 2142
    },
    {
      "scriptpubkey": "5120ab71745472051894656fa47aefcc1485ecb8cc4ac77701ae3dfe7bdce43874fd",
      "scriptpubkey_asm": "OP_PUSHNUM_1 OP_PUSHBYTES_32 ab71745472051894656fa47aefcc1485ecb8cc4ac77701ae3dfe7bdce43874fd",
      "scriptpubkey_type": "v1_p2tr",
      "scriptpubkey_address": "bc1p4dchg4rjq5vfget053awlnq5shkt3nz2camsrt3aleaaeepcwn7sxmsnm7",
      "value": 2142
    },
    {
      "scriptpubkey": "5120ab71745472051894656fa47aefcc1485ecb8cc4ac77701ae3dfe7bdce43874fd",
      "scriptpubkey_asm": "OP_PUSHNUM_1 OP_PUSHBYTES_32 ab71745472051894656fa47aefcc1485ecb8cc4ac77701ae3dfe7bdce43874fd",
      "scriptpubkey_type": "v1_p2tr",
      "scriptpubkey_address": "bc1p4dchg4rjq5vfget053awlnq5shkt3nz2camsrt3aleaaeepcwn7sxmsnm7",
      "value": 2142
    },
    {
      "scriptpubkey": "5120ab71745472051894656fa47aefcc1485ecb8cc4ac77701ae3dfe7bdce43874fd",
      "scriptpubkey_asm": "OP_PUSHNUM_1 OP_PUSHBYTES_32 ab71745472051894656fa47aefcc1485ecb8cc4ac77701ae3dfe7bdce43874fd",
      "scriptpubkey_type": "v1_p2tr",
      "scriptpubkey_address": "bc1p4dchg4rjq5vfget053awlnq5shkt3nz2camsrt3aleaaeepcwn7sxmsnm7",
      "value": 2142
    },
    {
      "scriptpubkey": "5120ab71745472051894656fa47aefcc1485ecb8cc4ac77701ae3dfe7bdce43874fd",
      "scriptpubkey_asm": "OP_PUSHNUM_1 OP_PUSHBYTES_32 ab71745472051894656fa47aefcc1485ecb8cc4ac77701ae3dfe7bdce43874fd",
      "scriptpubkey_type": "v1_p2tr",
      "scriptpubkey_address": "bc1p4dchg4rjq5vfget053awlnq5shkt3nz2camsrt3aleaaeepcwn7sxmsnm7",
      "value": 2142
    },
    {
      "scriptpubkey": "512005b0de56f31db8c2007055862a9b4e98cad7244961d90538303347d304d4aa57",
      "scriptpubkey_asm": "OP_PUSHNUM_1 OP_PUSHBYTES_32 05b0de56f31db8c2007055862a9b4e98cad7244961d90538303347d304d4aa57",
      "scriptpubkey_type": "v1_p2tr",
      "scriptpubkey_address": "bc1pqkcdu4hnrkuvyqrs2krz4x6wnr9dwfzfv8vs2wpsxdraxpx54ftsnl2w5g",
      "value": 10243
    }
  ],
  "size": 1452,
  "weight": 5604,
  "fee": 16812,
  "status": {
    "confirmed": true,
    "block_height": 834460,
    "block_hash": "00000000000000000000484a79b643b2524bbce82e5d8a442013fa5b8905ed98",
    "block_time": 1710307468
  },
  "hex": "02000000000101c3347d3e4e6eca8565ec24d3a886bafb0a8938c3f29e9c24920082ca02cc67be0500000000fdffffff1f5e08000000000000225120ab71745472051894656fa47aefcc1485ecb8cc4ac77701ae3dfe7bdce43874fd5e08000000000000225120ab71745472051894656fa47aefcc1485ecb8cc4ac77701ae3dfe7bdce43874fd5e08000000000000225120ab71745472051894656fa47aefcc1485ecb8cc4ac77701ae3dfe7bdce43874fd5e08000000000000225120ab71745472051894656fa47aefcc1485ecb8cc4ac77701ae3dfe7bdce43874fd5e08000000000000225120ab71745472051894656fa47aefcc1485ecb8cc4ac77701ae3dfe7bdce43874fd5e08000000000000225120ab71745472051894656fa47aefcc1485ecb8cc4ac77701ae3dfe7bdce43874fd5e08000000000000225120ab71745472051894656fa47aefcc1485ecb8cc4ac77701ae3dfe7bdce43874fd5e08000000000000225120ab71745472051894656fa47aefcc1485ecb8cc4ac77701ae3dfe7bdce43874fd5e08000000000000225120ab71745472051894656fa47aefcc1485ecb8cc4ac77701ae3dfe7bdce43874fd5e08000000000000225120ab71745472051894656fa47aefcc1485ecb8cc4ac77701ae3dfe7bdce43874fd5e08000000000000225120ab71745472051894656fa47aefcc1485ecb8cc4ac77701ae3dfe7bdce43874fd5e08000000000000225120ab71745472051894656fa47aefcc1485ecb8cc4ac77701ae3dfe7bdce43874fd5e08000000000000225120ab71745472051894656fa47aefcc1485ecb8cc4ac77701ae3dfe7bdce43874fd5e08000000000000225120ab71745472051894656fa47aefcc1485ecb8cc4ac77701ae3dfe7bdce43874fd5e08000000000000225120ab71745472051894656fa47aefcc1485ecb8cc4ac77701ae3dfe7bdce43874fd5e08000000000000225120ab71745472051894656fa47aefcc1485ecb8cc4ac77701ae3dfe7bdce43874fd5e08000000000000225120ab71745472051894656fa47aefcc1485ecb8cc4ac77701ae3dfe7bdce43874fd5e08000000000000225120ab71745472051894656fa47aefcc1485ecb8cc4ac77701ae3dfe7bdce43874fd5e08000000000000225120ab71745472051894656fa47aefcc1485ecb8cc4ac77701ae3dfe7bdce43874fd5e08000000000000225120ab71745472051894656fa47aefcc1485ecb8cc4ac77701ae3dfe7bdce43874fd5e08000000000000225120ab71745472051894656fa47aefcc1485ecb8cc4ac77701ae3dfe7bdce43874fd5e08000000000000225120ab71745472051894656fa47aefcc1485ecb8cc4ac77701ae3dfe7bdce43874fd5e08000000000000225120ab71745472051894656fa47aefcc1485ecb8cc4ac77701ae3dfe7bdce43874fd5e08000000000000225120ab71745472051894656fa47aefcc1485ecb8cc4ac77701ae3dfe7bdce43874fd5e08000000000000225120ab71745472051894656fa47aefcc1485ecb8cc4ac77701ae3dfe7bdce43874fd5e08000000000000225120ab71745472051894656fa47aefcc1485ecb8cc4ac77701ae3dfe7bdce43874fd5e08000000000000225120ab71745472051894656fa47aefcc1485ecb8cc4ac77701ae3dfe7bdce43874fd5e08000000000000225120ab71745472051894656fa47aefcc1485ecb8cc4ac77701ae3dfe7bdce43874fd5e08000000000000225120ab71745472051894656fa47aefcc1485ecb8cc4ac77701ae3dfe7bdce43874fd5e08000000000000225120ab71745472051894656fa47aefcc1485ecb8cc4ac77701ae3dfe7bdce43874fd032800000000000022512005b0de56f31db8c2007055862a9b4e98cad7244961d90538303347d304d4aa5701402d0a6ab538892262ff5001c1e6462a8c35401fa1a2362fb4b204ef952381ef70fc626f791ece52b9c823cfdcfb7e689a4ae422709d5ace0381032e135d07ea4000000000"
}