{
  "txid": "ff172907aaae2527caaa32041be1b2362dd3794f364285655441265109aa2a7e",
  "version": 2,
  "locktime": 0,
  "vin": [
    {
      "txid": "ea1d2213b5a65c2e44dc1d25fa9d35f9aef977ab2047c581a8c4691a71cd2b0b",
      "vout": 0,
      "prevout": {
        "scriptpubkey": "5120061e9fec33172f230c1dfa1a7f8fb06e2ad5fa39018c14baf1440462aec19add",
        "scriptpubkey_asm": "OP_PUSHNUM_1 OP_PUSHBYTES_32 061e9fec33172f230c1dfa1a7f8fb06e2ad5fa39018c14baf1440462aec19add",
        "scriptpubkey_type": "v1_p2tr",
        "scriptpubkey_address": "bc1pqc0flmpnzuhjxrqalgd8lrasdc4dt73eqxxpfwh3gszx9tkpntwshpwfd0",
        "value": 18390
      },
      "scriptsig": "",
      "scriptsig_asm": "",
      "witness": [
        "5dad5f4db07f473ff7bf28072aeb339d0aec256eb655c68b4051f1c74e797ddf7a22e6be3b5fd0a7a76de53094fec2291281a522e72638389ab31c0a423bd33b",
        "2015659463ff2c9d618c4e0d2a42d9889b0a4f06f0a8f7723044f75844f764a1acac0063036f7264010109696d6167652f706e67004d080289504e470d0a1a0a0000000d49484452000001f4000001f40803000000fc082fb800000039504c54457e390f512b145b899dffc501682a01050405722d042020201b1a1a5b8697d4d0cf5277862c35394f5a5dfff3595c78807d44215c8ea2ccb0311346a0e6000000097048597300000b1300000b1301009a9c1800000fc549444154789ced9d8b7aaaba1646adbbab094738bbaef77fd8fdb55ae59270b10426f31fa36abdb5950efe9910229e2a90e3b4f70b80ed41ba20481704e982205d10a40b827441902e08d20541ba20481704e982205d10a40b827441902e08d20541ba20481704e982205d10a40b827441902e08d20541ba20481704e982205d10a40b827441a6a45f377a1d6046faf9d2605d50fa79b3970256ca3bce1d42474e10a40b827441902e08d20541ba20481704e982205d10a40b827441902e08d20541ba20481704e982205d10a40b827441902e08d20541ba20481704e982205d10a40b827441902e08d20541ba20481704e982205d10a40b827441902e08d20541ba20481704e982205d10a40b827441902e08d20541ba20481704e982205d10a40b827441902e08d2053127fd2c41b52be6a45f24a876c59af47388330831fc96b8da935ef8cbf1b26bd60f293d1c9d88f4c5d20f6f3d221de91b4379df0392de81f2be01247d0f487a0792be01247d0f487a0792be01247d0f487a0792be01247d0f487a0792be014d0802247d0f487a1776b8b84ffaf9da875dabdea59f2f751f89a48766d7b934fb4abf367fe63876e77c482d94f426ce4ab67beb514b3acebf40ba60d28356d25f29efc11d514b3af5fd1b2de9245d34e961f6a5dbfa5e4b49bfcb9c653cdcaf0577442de9b4e9df6849a74dd74cfadc26fdb97e0477d452d213ddb4e17679ef6a7047d4923e949bedb3d37bd76bd33d57f7a897f4301af3c1a31eadd752d2e9bd8b267d32ecfd221fdcd19c95a48759596fad132e9d072de9c9deda54073eb8a39192feccf09c6df5fba53f1a29e939bd43d524ddf35eb684fcee1dc11f8d78d29361ef45df1d8d94f4303222935d0ffcd148491fe167ce046dba37e989663cb797c571750f8249efee2dcfd775bff5bd911e914bcd99f03f2f3268491fa597f2c7aa10dcd14849cfce861da9f0c11f8d94f49cdac7ae738dfade4849efb7deb346e0fdd14849cfab6dcf8feadf76472325bd5dbed3532612f7ba236a491fade3893b7cf6dea3d674a9feaef4c7d8eb08c11d514b7a3edc83611acf6d7a2d253d3dee36beaf2db8236a499f18794f9781e08e5a4a7a6ea4355ff63d3a8f5ad247929d92efb5bed752d29f3b5192353ed9b80777442de913ad77fab1e08e5a4a7a72c75aef0d2dfd670477442de9a329cfcea671475d69ce9c19dd62ef243eb8236a49cf35dba3f70577d452d253ddf3ec7d3f0fb8236a496fdb9df3a665a7d66b29e953339f539befc11d4d0802d18df4eb79fceb7cbeb6daf4c7b65b7fc2cccf3546e48e20bd692e4d73bbc89c2f33dec02851dea393a49f2ff70fe5f93372eea67bfc9dca4b1afdc351574ea4afe1e8b642ccd9f97a6ceaca8bf471927b501f47f74e3cc33375e54b7ac89c7f1e5bb0a5b6e8d987a2ae3492dea6d7a64fbcb129383a7b949ecfe5f4884c77377b72779c03823fe9716c054ff4d6f3479ff049b87ff7237d3ae6e99bb9075a63f25eced19df4e9c426a5a6eece3ce486baf297f4d40adef338b4e9d4af4e9b9e5ed4e1a3fd36bdf5e873857158dfebca7bef3d51ab4752dd6ffe3c115c4a6f2fdd94bdc12a30bec6b8a2ae9cb5e9194dad32de2be2d9a7774a848773fcf9ee477a9a4ce07b396fad303eb3ddc58ff4a7bd4c756f85bd7dc7f046778d70b31684c7b21c43fa798aebc4d87bd7dc0c8fc31f38fab9c511a49f2fa19efc4acbec2d71fb09c3923ef2645fd4d511a42f58a0cccadd7d42ea7af25e37f53db42efd491f2ce8e3eab8ed09b50e8a7b782c8c2fe96bd577c793a6823be9cfe51af3b5cca50bfba173cb91f44eb3d55fd2747d9f6edf87bfe188e7036eb2bddaa6df97b4a7334c3700c14fc4931c487a4ec0b0af92d7d57e5eba0390be7a68f9a1bf000791fe94353cb5166dfe720f7e6886d64317f7034a9fcf8c8886919bed9f397cc4bb786bd3c7ab7bbb2b937e4ef7e7d3bfffb0fac3e0c51f437abf17daba32d3c5588760f88c5cbb714d0802fce21e8e25bded2225e5f14857d0e2800eaabd17c2e3daa1a4e71764dcd4737d68ad098f248439bfe7b0f643e2c51f5cfa7001fbd756a4d59cb45b9665d743f276e24fac76fd79c7cf3d47905edda4775e77ba954f88ef14ff31060d43e2c6e077e58ac1689108532f60bdeb696c4a3f77bf1e494f194c56e6ce7ded673c1d8e7778d627745f6422e19b6151fa6540f6e5273398289b133ff7bcbfc4d13e6652e26fa75f9041e9973ad45dd2ddab25256df23fff5343de14b854f6a44fb779c967b46b79a2e60f4b79a2b8bf7dbcf739b9e3f35a59937ebed4b313db359c7bf2c82ad2e7ed5d41fab93258def3d21fbafa453e15f3acdd7c9f0fe9c6a4f7552debaa253bea833b916e48faf8d6762ee6c93edfe86f42bae1f23ea2b3776fbebaa77e14e936a4e7abf870c87172202c57f47f1e40fa7ed2fb1363ee6edada26d78531dbd91f46bad1f29e1bcc1c5e1fdb564b0ff820dd88f439e398f9363e2db775bb731fd28df6de7b51cdf5ccfb9db9897587ed74036d7ab751cf580b4b62def19fd90420e956923eacd023dbdde9984f0ed522dd44d20b305de649ba85a40fb7d99e0f0cf799f5afe5ee60878b51e9afcc64ed589dde6c1b42d24d6eb2dd55d6930724e94ebdc8ad19ad2fa49b6bd3bb77cd98f073ce8df184d1dde7ec4f37d3a6776f8445d25363eef77b906e4efa48d76caef4893e1dd26d491fdd75feabf23e3ed44e7937d14d0802a6a7c65b7f279da45b6ed333057e499b9e9c22459b7ea05dabe1e5a40f4777bea0bcdb1b9c1944fc71fb97e5fde79722ddf076facbbdf709906eafbce7e7c5cc963e3e550ae90718867dbd4d4fef9e41fa21b6d3ef0f2c959ef96d48b798f49c7a0667fcbf97ad37fbe1376dfad43c4846e48c4e81a6f7ee31e9df3bb8dba7e7c56ddff78ca45fd9643b8ef4f325fc89b17b7a5edcbf27a45faa4bf784f4e348afaaa669eaeee9fbfcb8523775d3ff994bef88258f839674de0ad5674693ce4109b6917ebef6f8bae3fc7d713f5fafaf1c6a6e4eb70de947fa30be39d287079441ba7be924dd6e9bfe0a6387a45ab24f8df2be3624dd04ee934e79976bd3bbd3eb28ef2a495ff8d606daf443277db816205d25e94897db4eefbc7395a4bb4e7afa5dca48f7257dc667fb20dd7f9b9e580948bae3a4e73af248772a3d3f1f8ebd6c3f7c5eabf3620e50ded3ef7cdcfbb353acd0bcc06577e95fd3e8069f4194efc1ddf903af53ef2f7d4c71f6b15f2c32d4fb4b9f9c1a9f5a0130e74c7a98b1c9f69b6596a73628bdb31735d3859717e74d7af2d32d7bf7fd6aa1d5a90d4a1f3da4281d39d7d207e372ed75618545d7a5b62b3d7b8048a43b943ef289d58f477ebbdcd2d406a54f1f4318e95ea5778a3c83331ad24723bfe6ff408efa586d3ae5ddabf4c431e706157e958557a5b62e9da46b48a7bc0b4a9f4cfa8c4a90e7edfb14321351c2e0c8274d08022bb524f1f1d773df862f29711816bfd2dfdea7be5ee431b5ec74fa4c726afed7a759e5fffce7ed34c9f46b59e9c534678bd25f3ab6c82a6f60dc537a8f0f31e9859c1f4bfaa998f41ae97ad21ba4237d3694f76590f436b4e93928ef74e4bea04da7f7fe2274e4a64a2abdf72774e4964147ae0d1db91c74e4e8c87d41478e8edc8bd0919b2aa974e49ed0915b061db9898312b097ed9bbf6ef7b29d871fd3137694fe99f83fc7e1575c7c7a2fd47b5f3eb1271a68d3074747bafe5bcaf99c7ffc479fd37e7c0e67f6f45fdde7e5052c1e526c57e907e3f35a55e785a7d741ba09dc1c3c90a4cf07e98ae5fd5c6d08493701d2497a6148ba09483a492f0c4937014927e98521e92620e924bd3024dd04249da41786a49b80a493f4c29074139074925e18926e02924ed20b43d24d40d2497a6148ba09483a492f0c4937014927e98521e92620e924bd3024dd04249da41786a49b80a493f4c29074131c34e9e7bf33e0a004dea4ffd3e7ff7dfeaef4a12e27777c221de96521e92620e924bd3024dd04249da493747aef6b43793701e59df25e18926e02924ed20b43d24d40d2497a6148ba09483a492f0c4937014927e9074efa80bf4d977f1b2651f8977ebe7679f1c31f4eeef8742cbdff3348bf8374925e18926e02924ed20b43d24d40d2497a6148ba09483a492f0c4937014927e98521e92620e924bd3024dd04249da41786a49be0f37a544d0802e97ffffe33f1b5e3aed58fb7329c06bcf46b2ed5310f34749e6647e9ef2116f93a0d78e1978458572e8e2e35836da597e19492be18a497931ed73f23dd76d25f48e03448b72d3dac9ff38874dbd28b043d9074d3d25bf53daef71de9a6a5af68baf51de9a6a53f4585d5ccd3a61fa2f71e57ce3a49b72dbd0011e9c6a5f7421ed7f88e74e3d27bc57905e8bd1fa1f7fee87fadf39da45b97beee386c6444ee38dbe931d7387fefe25ccef02fbdb40ab16bb554d247fee9e1ebe205921db9e99feaaf5f482f9af431369b39137abb6e905e4afab31d0ebdd3dd41426021beadb721e9db273dde827eda8ab7fe7604d2b76ed3e3fd72eba4b7bc237daf36fdedb41594f7e5acde7b8fb4e9aa3367de4e5bf1761f15a0f7be63d26f50de497ae1a4dfa0f7bed7767abcfdf3374e7adb3bbd778d363db47700217d9f363dd2a6d3a66f3322c7d8bb569b1e9e03ff94778936bd076dba569b1e91ae3722f70d49dfab4d7f3f6d05e57d3925921e43787b7fdb8a4ee79dc38f94933e410cb7b96be54ff72972ed9590f25e4a7a9937a8bfc6636aeefd26b361cb257dac49df13a4efd2a6876d4a7b7b256bcdbb477ab1a48f698f61633a7f10e93b257d0f18862d9ef4f1721bb72eef0fef91a417936e2beab1fd8228ef05933eea600f982e55b6bccfabb6fb40d277497ad8ba4da7bc6f94f451e3fbc0767a51e906898f2b0cc316923e63842ceeb3d9864d0802f49d921e4bc579eaaf32efbd6479dfbd8fde87edf44d926e729bedebefd3a697911e4d6eb1c5db1f477aa9a49babef811d2e85cbbb3de57728efe5a4fffc7f83a1d3c33be5bd907483518f3f2d3bd2cb25dd26ec4f2fd9a61b3cdd20e952498fb74bcabb4e9bfe0dbdf772e5fde7ff1b6c9d6eaf8ba4176bd3cd12915e2ae916b547cafb3c48faef38556a9fc0188d9d6eaf8bf25e48bac5ea7e07e905936e15a41792be7b218f2327ca3b492f8b52478e365d50bacdde7bfc3a51de0b49371cf480f46249b7ab3dd29123e965116bd3ad42d2cb25ddeea9de326c24dd04482f96743a729a498f264f24bd609b6e96489b5e2ae956b547a493f4d288b5e9bbb7dee9269da417936eb5ba07a4174dba55f174e48a49bf7f5c47fccd57fbea6a207d061fcb313df65ed7cd967da94376e43e76a3b9560e38a4f4fdac3748df4bfa6ece3f904ed20fca21cb3b4917944e9b2e289da40b4a27e982d249baa074922e289da40b4a27e982d249baa074922e289da40b4a27e982d249baa074922e289da40b4a27e982d249baa074922e289da40b4a27e982d249baa074922e289da40b4a27e982d249baa074922e289da40b4a27e982d249baa074922e289da40b4a27e982d249baa074922e289da40b4a27e982d249baa074922e289da40b4a27e982d249baa074922e289da40b4a27e982d249baa074922e289da40b4a27e982d249baa074922e289da41857bfe23fd6c77030f72454170000000049454e44ae42608268",
        "c015659463ff2c9d618c4e0d2a42d9889b0a4f06f0a8f7723044f75844f764a1ac"
      ],
      "is_coinbase": false,
      "sequence": 4294967293
    }
  ],
  "vout": [
    {
      "scriptpubkey": "512092d0c4be49414c8ce960e04bd67b94f223e9ce71227bcb9ae8584d3d87f33a1e",
      "scriptpubkey_asm": "OP_PUSHNUM_1 OP_PUSHBYTES_32 92d0c4be49414c8ce960e04bd67b94f223e9ce71227bcb9ae8584d3d87f33a1e",
      "scriptpubkey_type": "v1_p2tr",
      "scriptpubkey_address": "bc1pjtgvf0jfg9xge6tqup9av7u57g37nnn3yfauhxhgtpxnmpln8g0qek58d9",
      "value": 600
    }
  ],
  "size": 4462,
  "weight": 4744,
  "fee": 17790,
  "status": {
    "confirmed": true,
    "block_height": 834460,
    "block_hash": "00000000000000000000484a79b643b2524bbce82e5d8a442013fa5b8905ed98",
    "block_time": 1710307468
  },
  "hex": "020000000001010b2bcd711a69c4a881c54720ab77f9aef9359dfa251ddc442e5ca6b513221dea0000000000fdffffff01580200000000000022512092d0c4be49414c8ce960e04bd67b94f223e9ce71227bcb9ae8584d3d87f33a1e03405dad5f4db07f473ff7bf28072aeb339d0aec256eb655c68b4051f1c74e797ddf7a22e6be3b5fd0a7a76de53094fec2291281a522e72638389ab31c0a423bd33bfda7102015659463ff2c9d618c4e0d2a42d9889b0a4f06f0a8f7723044f75844f764a1acac0063036f7264010109696d6167652f706e67004d080289504e470d0a1a0a0000000d49484452000001f4000001f40803000000fc082fb800000039504c54457e390f512b145b899dffc501682a01050405722d042020201b1a1a5b8697d4d0cf5277862c35394f5a5dfff3595c78807d44215c8ea2ccb0311346a0e6000000097048597300000b1300000b1301009a9c1800000fc549444154789ced9d8b7aaaba1646adbbab094738bbaef77fd8fdb55ae59270b10426f31fa36abdb5950efe9910229e2a90e3b4f70b80ed41ba20481704e982205d10a40b827441902e08d20541ba20481704e982205d10a40b827441902e08d20541ba20481704e982205d10a40b827441902e08d20541ba20481704e982205d10a40b827441a6a45f377a1d6046faf9d2605d50fa79b3970256ca3bce1d42474e10a40b827441902e08d20541ba20481704e982205d10a40b827441902e08d20541ba20481704e982205d10a40b827441902e08d20541ba20481704e982205d10a40b827441902e08d20541ba20481704e982205d10a40b827441902e08d20541ba20481704e982205d10a40b827441902e08d20541ba20481704e982205d10a40b827441902e08d2053127fd2c41b52be6a45f24a876c59af47388330831fc96b8da935ef8cbf1b26bd60f293d1c9d88f4c5d20f6f3d221de91b4379df0392de81f2be01247d0f487a0792be01247d0f487a0792be01247d0f487a0792be01247d0f487a0792be014d0802247d0f487a1776b8b84ffaf9da875dabdea59f2f751f89a48766d7b934fb4abf367fe63876e77c482d94f426ce4ab67beb514b3acebf40ba60d28356d25f29efc11d514b3af5fd1b2de9245d34e961f6a5dbfa5e4b49bfcb9c653cdcaf0577442de9b4e9df6849a74dd74cfadc26fdb97e0477d452d213ddb4e17679ef6a7047d4923e949bedb3d37bd76bd33d57f7a897f4301af3c1a31eadd752d2e9bd8b267d32ecfd221fdcd19c95a48759596fad132e9d072de9c9deda54073eb8a39192feccf09c6df5fba53f1a29e939bd43d524ddf35eb684fcee1dc11f8d78d29361ef45df1d8d94f4303222935d0ffcd148491fe167ce046dba37e989663cb797c571750f8249efee2dcfd775bff5bd911e914bcd99f03f2f3268491fa597f2c7aa10dcd14849cfce861da9f0c11f8d94f49cdac7ae738dfade4849efb7deb346e0fdd14849cfab6dcf8feadf76472325bd5dbed3532612f7ba236a491fade3893b7cf6dea3d674a9feaef4c7d8eb08c11d514b7a3edc83611acf6d7a2d253d3dee36beaf2db8236a499f18794f9781e08e5a4a7a6ea4355ff63d3a8f5ad247929d92efb5bed752d29f3b5192353ed9b80777442de913ad77fab1e08e5a4a7a72c75aef0d2dfd670477442de9a329cfcea671475d69ce9c19dd62ef243eb8236a49cf35dba3f70577d452d253ddf3ec7d3f0fb8236a496fdb9df3a665a7d66b29e953339f539befc11d4d0802d18df4eb79fceb7cbeb6daf4c7b65b7fc2cccf3546e48e20bd692e4d73bbc89c2f33dec02851dea393a49f2ff70fe5f93372eea67bfc9dca4b1afdc351574ea4afe1e8b642ccd9f97a6ceaca8bf471927b501f47f74e3cc33375e54b7ac89c7f1e5bb0a5b6e8d987a2ae3492dea6d7a64fbcb129383a7b949ecfe5f4884c77377b72779c03823fe9716c054ff4d6f3479ff049b87ff7237d3ae6e99bb9075a63f25eced19df4e9c426a5a6eece3ce486baf297f4d40adef338b4e9d4af4e9b9e5ed4e1a3fd36bdf5e873857158dfebca7bef3d51ab4752dd6ffe3c115c4a6f2fdd94bdc12a30bec6b8a2ae9cb5e9194dad32de2be2d9a7774a848773fcf9ee477a9a4ce07b396fad303eb3ddc58ff4a7bd4c756f85bd7dc7f046778d70b31684c7b21c43fa798aebc4d87bd7dc0c8fc31f38fab9c511a49f2fa19efc4acbec2d71fb09c3923ef2645fd4d511a42f58a0cccadd7d42ea7af25e37f53db42efd491f2ce8e3eab8ed09b50e8a7b782c8c2fe96bd577c793a6823be9cfe51af3b5cca50bfba173cb91f44eb3d55fd2747d9f6edf87bfe188e7036eb2bddaa6df97b4a7334c3700c14fc4931c487a4ec0b0af92d7d57e5eba0390be7a68f9a1bf000791fe94353cb5166dfe720f7e6886d64317f7034a9fcf8c8886919bed9f397cc4bb786bd3c7ab7bbb2b937e4ef7e7d3bfffb0fac3e0c51f437abf17daba32d3c5588760f88c5cbb714d0802fce21e8e25bded2225e5f14857d0e2800eaabd17c2e3daa1a4e71764dcd4737d68ad098f248439bfe7b0f643e2c51f5cfa7001fbd756a4d59cb45b9665d743f276e24fac76fd79c7cf3d47905edda4775e77ba954f88ef14ff31060d43e2c6e077e58ac1689108532f60bdeb696c4a3f77bf1e494f194c56e6ce7ded673c1d8e7778d627745f6422e19b6151fa6540f6e5273398289b133ff7bcbfc4d13e6652e26fa75f9041e9973ad45dd2ddab25256df23fff5343de14b854f6a44fb779c967b46b79a2e60f4b79a2b8bf7dbcf739b9e3f35a59937ebed4b313db359c7bf2c82ad2e7ed5d41fab93258def3d21fbafa453e15f3acdd7c9f0fe9c6a4f7552debaa253bea833b916e48faf8d6762ee6c93edfe86f42bae1f23ea2b3776fbebaa77e14e936a4e7abf870c87172202c57f47f1e40fa7ed2fb1363ee6edada26d78531dbd91f46bad1f29e1bcc1c5e1fdb564b0ff820dd88f439e398f9363e2db775bb731fd28df6de7b51cdf5ccfb9db9897587ed74036d7ab751cf580b4b62def19fd90420e956923eacd023dbdde9984f0ed522dd44d20b305de649ba85a40fb7d99e0f0cf799f5afe5ee60878b51e9afcc64ed589dde6c1b42d24d6eb2dd55d6930724e94ebdc8ad19ad2fa49b6bd3bb77cd98f073ce8df184d1dde7ec4f37d3a6776f8445d25363eef77b906e4efa48d76caef4893e1dd26d491fdd75feabf23e3ed44e7937d14d0802a6a7c65b7f279da45b6ed333057e499b9e9c22459b7ea05dabe1e5a40f4777bea0bcdb1b9c1944fc71fb97e5fde79722ddf076facbbdf709906eafbce7e7c5cc963e3e550ae90718867dbd4d4fef9e41fa21b6d3ef0f2c959ef96d48b798f49c7a0667fcbf97ad37fbe1376dfad43c4846e48c4e81a6f7ee31e9df3bb8dba7e7c56ddff78ca45fd9643b8ef4f325fc89b17b7a5edcbf27a45faa4bf784f4e348afaaa669eaeee9fbfcb8523775d3ff994bef88258f839674de0ad5674693ce4109b6917ebef6f8bae3fc7d713f5fafaf1c6a6e4eb70de947fa30be39d287079441ba7be924dd6e9bfe0a6387a45ab24f8df2be3624dd04ee934e79976bd3bbd3eb28ef2a495ff8d606daf443277db816205d25e94897db4eefbc7395a4bb4e7afa5dca48f7257dc667fb20dd7f9b9e580948bae3a4e73af248772a3d3f1f8ebd6c3f7c5eabf3620e50ded3ef7cdcfbb353acd0bcc06577e95fd3e8069f4194efc1ddf903af53ef2f7d4c71f6b15f2c32d4fb4b9f9c1a9f5a0130e74c7a98b1c9f69b6596a73628bdb31735d3859717e74d7af2d32d7bf7fd6aa1d5a90d4a1f3da4281d39d7d207e372ed75618545d7a5b62b3d7b8048a43b943ef289d58f477ebbdcd2d406a54f1f4318e95ea5778a3c83331ad24723bfe6ff408efa586d3ae5ddabf4c431e706157e958557a5b62e9da46b48a7bc0b4a9f4cfa8c4a90e7edfb14321351c2e0c8274d08022bb524f1f1d773df862f29711816bfd2dfdea7be5ee431b5ec74fa4c726afed7a759e5fffce7ed34c9f46b59e9c534678bd25f3ab6c82a6f60dc537a8f0f31e9859c1f4bfaa998f41ae97ad21ba4237d3694f76590f436b4e93928ef74e4bea04da7f7fe2274e4a64a2abdf72774e4964147ae0d1db91c74e4e8c87d41478e8edc8bd0919b2aa974e49ed0915b061db9898312b097ed9bbf6ef7b29d871fd3137694fe99f83fc7e1575c7c7a2fd47b5f3eb1271a68d3074747bafe5bcaf99c7ffc479fd37e7c0e67f6f45fdde7e5052c1e526c57e907e3f35a55e785a7d741ba09dc1c3c90a4cf07e98ae5fd5c6d08493701d2497a6148ba09483a492f0c4937014927e98521e92620e924bd3024dd04249da41786a49b80a493f4c29074139074925e18926e02924ed20b43d24d40d2497a6148ba09483a492f0c4937014927e98521e92620e924bd3024dd04249da41786a49b80a493f4c29074131c34e9e7bf33e0a004dea4ffd3e7ff7dfeaef4a12e27777c221de96521e92620e924bd3024dd04249da493747aef6b43793701e59df25e18926e02924ed20b43d24d40d2497a6148ba09483a492f0c4937014927e9074efa80bf4d977f1b2651f8977ebe7679f1c31f4eeef8742cbdff3348bf8374925e18926e02924ed20b43d24d40d2497a6148ba09483a492f0c4937014927e98521e92620e924bd3024dd04249da41786a49be0f37a544d0802e97ffffe33f1b5e3aed58fb7329c06bcf46b2ed5310f34749e6647e9ef2116f93a0d78e1978458572e8e2e35836da597e19492be18a497931ed73f23dd76d25f48e03448b72d3dac9ff38874dbd28b043d9074d3d25bf53daef71de9a6a5af68baf51de9a6a53f4585d5ccd3a61fa2f71e57ce3a49b72dbd0011e9c6a5f7421ed7f88e74e3d27bc57905e8bd1fa1f7fee87fadf39da45b97beee386c6444ee38dbe931d7387fefe25ccef02fbdb40ab16bb554d247fee9e1ebe205921db9e99feaaf5f482f9af431369b39137abb6e905e4afab31d0ebdd3dd41426021beadb721e9db273dde827eda8ab7fe7604d2b76ed3e3fd72eba4b7bc237daf36fdedb41594f7e5acde7b8fb4e9aa3367de4e5bf1761f15a0f7be63d26f50de497ae1a4dfa0f7bed7767abcfdf3374e7adb3bbd778d363db47700217d9f363dd2a6d3a66f3322c7d8bb569b1e9e03ff94778936bd076dba569b1e91ae3722f70d49dfab4d7f3f6d05e57d3925921e43787b7fdb8a4ee79dc38f94933e410cb7b96be54ff72972ed9590f25e4a7a9937a8bfc6636aeefd26b361cb257dac49df13a4efd2a6876d4a7b7b256bcdbb477ab1a48f698f61633a7f10e93b257d0f18862d9ef4f1721bb72eef0fef91a417936e2beab1fd8228ef05933eea600f982e55b6bccfabb6fb40d277497ad8ba4da7bc6f94f451e3fbc0767a51e906898f2b0cc316923e63842ceeb3d9864d0802f49d921e4bc579eaaf32efbd6479dfbd8fde87edf44d926e729bedebefd3a697911e4d6eb1c5db1f477aa9a49babef811d2e85cbbb3de57728efe5a4fffc7f83a1d3c33be5bd907483518f3f2d3bd2cb25dd26ec4f2fd9a61b3cdd20e952498fb74bcabb4e9bfe0dbdf772e5fde7ff1b6c9d6eaf8ba4176bd3cd12915e2ae916b547cafb3c48faef38556a9fc0188d9d6eaf8bf25e48bac5ea7e07e905936e15a41792be7b218f2327ca3b492f8b52478e365d50bacdde7bfc3a51de0b49371cf480f46249b7ab3dd29123e965116bd3ad42d2cb25ddeea9de326c24dd04482f96743a729a498f264f24bd609b6e96489b5e2ae956b547a493f4d288b5e9bbb7dee9269da417936eb5ba07a4174dba55f174e48a49bf7f5c47fccd57fbea6a207d061fcb313df65ed7cd967da94376e43e76a3b9560e38a4f4fdac3748df4bfa6ece3f904ed20fca21cb3b4917944e9b2e289da40b4a27e982d249baa074922e289da40b4a27e982d249baa074922e289da40b4a27e982d249baa074922e289da40b4a27e982d249baa074922e289da40b4a27e982d249baa074922e289da40b4a27e982d249baa074922e289da40b4a27e982d249baa074922e289da40b4a27e982d249baa074922e289da40b4a27e982d249baa074922e289da40b4a27e982d249baa074922e289da40b4a27e982d249baa074922e289da40b4a27e982d249baa074922e289da41857bfe23fd6c77030f72454170000000049454e44ae4260826821c015659463ff2c9d618c4e0d2a42d9889b0a4f06f0a8f7723044f75844f764a1ac00000000"
}