{
  "txid": "ff1c53cc990d72ca0945b9b9a90b3441b5dffe8945e66b15d726d8cc5eadb90d",
  "version": 1,
  "locktime": 0,
  "vin": [
    {
      "txid": "0af0d8c2c32293ae43b3ecf8435694e904ad610e0a96bdf6ff193d22bb3df1c7",
      "vout": 0,
      "prevout": {
        "scriptpubkey": "5120b3de48de80282fdb13e48d04cc3edac813b16e241adacc4545ecce1cff8cfe6a",
        "scriptpubkey_asm": "OP_PUSHNUM_1 OP_PUSHBYTES_32 b3de48de80282fdb13e48d04cc3edac813b16e241adacc4545ecce1cff8cfe6a",
        "scriptpubkey_type": "v1_p2tr",
        "scriptpubkey_address": "bc1pk00y3h5q9qhakyly35zvc0k6eqfmzm3yrtdvc329an8peluvle4qnm9c5g",
        "value": 2425
      },
      "scriptsig": "",
      "scriptsig_asm": "",
      "witness": [
        "814611da7dbd46637337c452501442e5dd18cd52aac6cfdb2dccac95f3b36c67a16fe73d5c01daecbcb37c3637bb50f188dacfe898773db3c6f9486db400975983",
        "20be11f1d0580232188e877ef283eb5a1efd4e9e5290a2633605d666f59ad3fff2ac00630461746f6d03646d742ca16461726773a36b6d696e745f7469636b657263627463656e6f6e63651a0079acd66474696d651a65eae3a668",
        "c1be11f1d0580232188e877ef283eb5a1efd4e9e5290a2633605d666f59ad3fff2"
      ],
      "is_coinbase": false,
      "sequence": 4294967293
    }
  ],
  "vout": [
    {
      "scriptpubkey": "0014027bc455b49578636e080eabed6048b02ab3985f",
      "scriptpubkey_asm": "OP_0 OP_PUSHBYTES_20 027bc455b49578636e080eabed6048b02ab3985f",
      "scriptpubkey_type": "v0_p2wpkh",
      "scriptpubkey_address": "bc1qqfaug4d5j4uxxmsgp6476czgkq4t8xzl6u3zjv",
      "value": 1000
    }
  ],
  "size": 277,
  "weight": 523,
  "fee": 1425,
  "status": {
    "confirmed": true,
    "block_height": 834464,
    "block_hash": "0000000000000000000177a0869a911a2b65c9bdcd5a8bcb02b68f305bee848e",
    "block_time": 1710308296
  },
  "hex": "01000000000101c7f13dbb223d19fff6bd960a0e61ad04e9945643f8ecb343ae9322c3c2d8f00a0000000000fdffffff01e803000000000000160014027bc455b49578636e080eabed6048b02ab3985f0341814611da7dbd46637337c452501442e5dd18cd52aac6cfdb2dccac95f3b36c67a16fe73d5c01daecbcb37c3637bb50f188dacfe898773db3c6f9486db4009759835b20be11f1d0580232188e877ef283eb5a1efd4e9e5290a2633605d666f59ad3fff2ac00630461746f6d03646d742ca16461726773a36b6d696e745f7469636b657263627463656e6f6e63651a0079acd66474696d651a65eae3a66821c1be11f1d0580232188e877ef283eb5a1efd4e9e5290a2633605d666f59ad3fff200000000"
}