{
  "txid": "ff32fba38600d2e83875e6b0c1cf302873b7b33e9e15ccc50c4f1e7285c3b0e4",
  "version": 2,
  "locktime": 0,
  "vin": [
    {
      "txid": "d79f51c3002c4bbd2ea91d2ae637225e4192e0e77e9ebffa0ea05848af5d256e",
      "vout": 1,
      "prevout": {
        "scriptpubkey": "512006060919d05ff85bcbec45b1730c611bfbd3c6f32d4037abbea15b7906cfcd4a",
        "scriptpubkey_asm": "OP_PUSHNUM_1 OP_PUSHBYTES_32 06060919d05ff85bcbec45b1730c611bfbd3c6f32d4037abbea15b7906cfcd4a",
        "scriptpubkey_type": "v1_p2tr",
        "scriptpubkey_address": "bc1pqcrqjxwstlu9hjlvgkchxrrpr0aa83hn94qr02a759dhjpk0e49qgp8gnq",
        "value": 546
      },
      "scriptsig": "",
      "scriptsig_asm": "",
      "witness": [
        "6f8b7b2e231de5337ae3f0daea3cd557aa6ff561bcd4fcc418a391502274981b0f83590223f3929a7f3b39e949ef350164f9e900170eb463918dfc5c49d22cb7"
      ],
      "is_coinbase": false,
      "sequence": 2147483649
    },
    {
      "txid": "e2ab70b9ceb215297281ab1147f423d37344bd8e5843d23ff86528304abc6c7f",
      "vout": 0,
      "prevout": {
        "scriptpubkey": "512006060919d05ff85bcbec45b1730c611bfbd3c6f32d4037abbea15b7906cfcd4a",
        "scriptpubkey_asm": "OP_PUSHNUM_1 OP_PUSHBYTES_32 06060919d05ff85bcbec45b1730c611bfbd3c6f32d4037abbea15b7906cfcd4a",
        "scriptpubkey_type": "v1_p2tr",
        "scriptpubkey_address": "bc1pqcrqjxwstlu9hjlvgkchxrrpr0aa83hn94qr02a759dhjpk0e49qgp8gnq",
        "value": 90000
      },
      "scriptsig": "",
      "scriptsig_asm": "",
      "witness": [
        "c19c773717f07f4c71fbab1d6e38756694ea50768f214cd4eb5c0f7f8743b1ee748d8557cd6dab6e6bdfc7ac013d816b5c308234312d693f8b120ae794958ebf"
      ],
      "is_coinbase": false,
      "sequence": 2147483649
    }
  ],
  "vout": [
    {
      "scriptpubkey": "51204f0381072854918e77c1f8c2989b3ae826c2d711100d6f4854f1bd83ebe4d86b",
      "scriptpubkey_asm": "OP_PUSHNUM_1 OP_PUSHBYTES_32 4f0381072854918e77c1f8c2989b3ae826c2d711100d6f4854f1bd83ebe4d86b",
      "scriptpubkey_type": "v1_p2tr",
      "scriptpubkey_address": "bc1pfupczpeg2jgcua7plrpf3xe6aqnv94c3zqxk7jz57x7c86lymp4s83hqe8",
      "value": 546
    },
    {
      "scriptpubkey": "512006060919d05ff85bcbec45b1730c611bfbd3c6f32d4037abbea15b7906cfcd4a",
      "scriptpubkey_asm": "OP_PUSHNUM_1 OP_PUSHBYTES_32 06060919d05ff85bcbec45b1730c611bfbd3c6f32d4037abbea15b7906cfcd4a",
      "scriptpubkey_type": "v1_p2tr",
      "scriptpubkey_address": "bc1pqcrqjxwstlu9hjlvgkchxrrpr0aa83hn94qr02a759dhjpk0e49qgp8gnq",
      "value": 87046
    }
  ],
  "size": 312,
  "weight": 846,
  "fee": 2954,
  "status": {
    "confirmed": true,
    "block_height": 834460,
    "block_hash": "00000000000000000000484a79b643b2524bbce82e5d8a442013fa5b8905ed98",
    "block_time": 1710307468
  },
  "hex": "020000000001026e255daf4858a00efabf9e7ee7e092415e2237e62a1da92ebd4b2c00c3519fd70100000000010000807f6cbc4a302865f83fd243588ebd4473d323f44711ab81722915b2ceb970abe20000000000010000800222020000000000002251204f0381072854918e77c1f8c2989b3ae826c2d711100d6f4854f1bd83ebe4d86b065401000000000022512006060919d05ff85bcbec45b1730c611bfbd3c6f32d4037abbea15b7906cfcd4a01406f8b7b2e231de5337ae3f0daea3cd557aa6ff561bcd4fcc418a391502274981b0f83590223f3929a7f3b39e949ef350164f9e900170eb463918dfc5c49d22cb70140c19c773717f07f4c71fbab1d6e38756694ea50768f214cd4eb5c0f7f8743b1ee748d8557cd6dab6e6bdfc7ac013d816b5c308234312d693f8b120ae794958ebf00000000"
}