{
  "txid": "ff3b31b767765ba551a4b150a76101060c2fe2c2e9bb68335b505313d4b4bf49",
  "version": 2,
  "locktime": 0,
  "vin": [
    {
      "txid": "447febac30e331f2ab0e582c0a1f67b5cf7a664f5c1ddbddd4564cc55b6ad922",
      "vout": 0,
      "prevout": {
        "scriptpubkey": "00141318037d9dd634a1c2c6c92d58ea62b4f1cbe280",
        "scriptpubkey_asm": "OP_0 OP_PUSHBYTES_20 1318037d9dd634a1c2c6c92d58ea62b4f1cbe280",
        "scriptpubkey_type": "v0_p2wpkh",
        "scriptpubkey_address": "bc1qzvvqxlva6c62rskxeyk436nzkncuhc5q39fmu4",
        "value": 1492689
      },
      "scriptsig": "",
      "scriptsig_asm": "",
      "witness": [
        "3045022100ebd319d9f461b930ef7824cc6e56d3c36e8a99ee5b35ba39838bb8914e9d34710220343f5269d480fe6aedc7fc18d6ebd93dc3c7a65aa3b5e9ff347a4aace2b51e3d01",
        "023206b43e7bc7ca0e3df9875f3045e86975a3e167585d5769bd5898e78ce2cae9"
      ],
      "is_coinbase": false,
      "sequence": 4294967295
    }
  ],
  "vout": [
    {
      "scriptpubkey": "0014092cf4f4912bd561307cafc20ca30350940f69f1",
      "scriptpubkey_asm": "OP_0 OP_PUSHBYTES_20 092cf4f4912bd561307cafc20ca30350940f69f1",
      "scriptpubkey_type": "v0_p2wpkh",
      "scriptpubkey_address": "bc1qpyk0fay3902kzvru4lpqegcr2z2q76036748yq",
      "value": 54380
    },
    {
      "scriptpubkey": "00141318037d9dd634a1c2c6c92d58ea62b4f1cbe280",
      "scriptpubkey_asm": "OP_0 OP_PUSHBYTES_20 1318037d9dd634a1c2c6c92d58ea62b4f1cbe280",
      "scriptpubkey_type": "v0_p2wpkh",
      "scriptpubkey_address": "bc1qzvvqxlva6c62rskxeyk436nzkncuhc5q39fmu4",
      "value": 1435577
    }
  ],
  "size": 223,
  "weight": 562,
  "fee": 2732,
  "status": {
    "confirmed": true,
    "block_height": 834638,
    "block_hash": "000000000000000000025f742c626208ac87e0b7d15054abb4a19ca2d735a54e",
    "block_time": 1710405325
  },
  "hex": "0200000000010122d96a5bc54c56d4dddb1d5c4f667acfb5671f0a2c580eabf231e330aceb7f440000000000ffffffff026cd4000000000000160014092cf4f4912bd561307cafc20ca30350940f69f1b9e71500000000001600141318037d9dd634a1c2c6c92d58ea62b4f1cbe28002483045022100ebd319d9f461b930ef7824cc6e56d3c36e8a99ee5b35ba39838bb8914e9d34710220343f5269d480fe6aedc7fc18d6ebd93dc3c7a65aa3b5e9ff347a4aace2b51e3d0121023206b43e7bc7ca0e3df9875f3045e86975a3e167585d5769bd5898e78ce2cae900000000"
}