{
  "txid": "ff4a2e6d271e7dad0a8d505147f8e3039909926b5ba2ee76e511107857e52cb8",
  "version": 2,
  "locktime": 0,
  "vin": [
    {
      "txid": "acc3ba00869acb582a3f2904ce3a11dd3779350ce234063fc7d0959246213364",
      "vout": 39,
      "prevout": {
        "scriptpubkey": "5120001c59d87b84da0f8e4d9356d100dd5410620c69b6258fa5a92ef473cfe1f800",
        "scriptpubkey_asm": "OP_PUSHNUM_1 OP_PUSHBYTES_32 001c59d87b84da0f8e4d9356d100dd5410620c69b6258fa5a92ef473cfe1f800",
        "scriptpubkey_type": "v1_p2tr",
        "scriptpubkey_address": "bc1pqqw9nkrmsndqlrjdjdtdzqxa2sgxyrrfkcjclfdf9m688nlplqqqn6kysx",
        "value": 1806
      },
      "scriptsig": "",
      "scriptsig_asm": "",
      "witness": [
        "c6306f493e520fb50524e6a39e2165c862c203825c883609bd1a1dde296d28a1a200098267e5cfb24d3c51f5d102c249dd566bb5ee61b4fafa7b7d8be2a996cb",
        "2039a705c14c676526b36d0f55c7896e01f131152bdb367ad30444775e064b419fac0063036f726401010a746578742f706c61696e00357b2270223a226272632d3230222c226f70223a226d696e74222c227469636b223a22646f6765222c22616d74223a2234323030227d68",
        "c139a705c14c676526b36d0f55c7896e01f131152bdb367ad30444775e064b419f"
      ],
      "is_coinbase": false,
      "sequence": 4261412863
    }
  ],
  "vout": [
    {
      "scriptpubkey": "00147a665de7a370f4c9b372ab1fae587500a5bcbdb4",
      "scriptpubkey_asm": "OP_0 OP_PUSHBYTES_20 7a665de7a370f4c9b372ab1fae587500a5bcbdb4",
      "scriptpubkey_type": "v0_p2wpkh",
      "scriptpubkey_address": "bc1q0fn9mearwr6vnvmj4v06ukr4qzjme0d565dzcx",
      "value": 294
    }
  ],
  "size": 294,
  "weight": 540,
  "fee": 1512,
  "status": {
    "confirmed": true,
    "block_height": 834460,
    "block_hash": "00000000000000000000484a79b643b2524bbce82e5d8a442013fa5b8905ed98",
    "block_time": 1710307468
  },
  "hex": "02000000000101643321469295d0c73f0634e20c357937dd113ace04293f2a58cb9a8600bac3ac2700000000fffffffd0126010000000000001600147a665de7a370f4c9b372ab1fae587500a5bcbdb40340c6306f493e520fb50524e6a39e2165c862c203825c883609bd1a1dde296d28a1a200098267e5cfb24d3c51f5d102c249dd566bb5ee61b4fafa7b7d8be2a996cb6d2039a705c14c676526b36d0f55c7896e01f131152bdb367ad30444775e064b419fac0063036f726401010a746578742f706c61696e00357b2270223a226272632d3230222c226f70223a226d696e74222c227469636b223a22646f6765222c22616d74223a2234323030227d6821c139a705c14c676526b36d0f55c7896e01f131152bdb367ad30444775e064b419f00000000"
}