{
  "txid": "ff4cbe61d1509efea59ec719e1e373381e8506ba45f30143194db878d7f007be",
  "version": 2,
  "locktime": 0,
  "vin": [
    {
      "txid": "3f69fae8ca9bdd774ca5294e86509449f431bb44e2206cae9f7f495b7952d9e2",
      "vout": 3,
      "prevout": {
        "scriptpubkey": "51201942b05666ffce921a40f7858d37268d9b5ba9db3d7bb363c65dc97e529c91ef",
        "scriptpubkey_asm": "OP_PUSHNUM_1 OP_PUSHBYTES_32 1942b05666ffce921a40f7858d37268d9b5ba9db3d7bb363c65dc97e529c91ef",
        "scriptpubkey_type": "v1_p2tr",
        "scriptpubkey_address": "bc1pr9ptq4nxll8fyxjq77zc6dex3kd4h2wm84amxc7xthyhu55uj8hs8mkjqt",
        "value": 2996
      },
      "scriptsig": "",
      "scriptsig_asm": "",
      "witness": [
        "8bec26816464ec552d793d89f70bff5db8724ffb23c79dc53db35f15767482a57cb39c68bf5073e3f3479786b0c61cfb37263191d1dabff5a86c1a080eb7b549",
        "20578f6fabf6ac85c651f82a458cc968ce8a248f785a528fa7c08e09e36728f307ac0063036f726401011e6170706c69636174696f6e2f6a736f6e3b636861727365743d7574662d38004cb77b2270223a22706f772d3230222c226f70223a226d696e74222c227469636b223a2250455045222c22616d74223a2231303030222c22736f6c7574696f6e223a22504550453a334d524d3246744a42504c46315958564766504d33656556746675364446734762623a303030303030303030303030303030303030303139393431613561653132383937363539383134343239323533333030353762306461393666336465613163353a3133313137323731313635227d68",
        "c06b70a06f37e9fa1ff7e7bec8bd1210228b25051d0c17b5264cdd8c73b544f454"
      ],
      "is_coinbase": false,
      "sequence": 4294967295
    }
  ],
  "vout": [
    {
      "scriptpubkey": "a914d86bcd8c487ad519e95c6557e7463d579cce14a287",
      "scriptpubkey_asm": "OP_HASH160 OP_PUSHBYTES_20 d86bcd8c487ad519e95c6557e7463d579cce14a2 OP_EQUAL",
      "scriptpubkey_type": "p2sh",
      "scriptpubkey_address": "3MRM2FtJBPLF1YXVGfPM3eeVtfu6DFsGbb",
      "value": 546
    }
  ],
  "size": 448,
  "weight": 697,
  "fee": 2450,
  "status": {
    "confirmed": true,
    "block_height": 834460,
    "block_hash": "00000000000000000000484a79b643b2524bbce82e5d8a442013fa5b8905ed98",
    "block_time": 1710307468
  },
  "hex": "02000000000101e2d952795b497f9fae6c20e244bb31f4499450864e29a54c77dd9bcae8fa693f0300000000ffffffff01220200000000000017a914d86bcd8c487ad519e95c6557e7463d579cce14a28703408bec26816464ec552d793d89f70bff5db8724ffb23c79dc53db35f15767482a57cb39c68bf5073e3f3479786b0c61cfb37263191d1dabff5a86c1a080eb7b549fd040120578f6fabf6ac85c651f82a458cc968ce8a248f785a528fa7c08e09e36728f307ac0063036f726401011e6170706c69636174696f6e2f6a736f6e3b636861727365743d7574662d38004cb77b2270223a22706f772d3230222c226f70223a226d696e74222c227469636b223a2250455045222c22616d74223a2231303030222c22736f6c7574696f6e223a22504550453a334d524d3246744a42504c46315958564766504d33656556746675364446734762623a303030303030303030303030303030303030303139393431613561653132383937363539383134343239323533333030353762306461393666336465613163353a3133313137323731313635227d6821c06b70a06f37e9fa1ff7e7bec8bd1210228b25051d0c17b5264cdd8c73b544f45400000000"
}