{
  "txid": "ff57e13ab35ad743d9c3bb4b7a08e5680309fe1e345eb8088c03e102b8374ecf",
  "version": 2,
  "locktime": 0,
  "vin": [
    {
      "txid": "0ad82719c5568c4acd81b83e609db57306639901211bd5a5b68a6fc3de4e1473",
      "vout": 2,
      "prevout": {
        "scriptpubkey": "51207b6558129e2d68d30a20b683edfeb0d9b626ba587577c84d0a22c79649773580",
        "scriptpubkey_asm": "OP_PUSHNUM_1 OP_PUSHBYTES_32 7b6558129e2d68d30a20b683edfeb0d9b626ba587577c84d0a22c79649773580",
        "scriptpubkey_type": "v1_p2tr",
        "scriptpubkey_address": "bc1p0dj4sy57945dxz3qk6p7ml4smxmzdwjcw4musng2ytrevjthxkqq6l6p67",
        "value": 2834
      },
      "scriptsig": "",
      "scriptsig_asm": "",
      "witness": [
        "1ff92ce50e57664b82351ecb86da3e715c9be8eb11b62ba042eca29bbc3fe5cfb0838efad731bac437ba060a87ac3665666563dc4ba602f720fdb320bf267e06",
        "20bf185737c780d974cbbdbc1bcb2c7b2eb58394af021f8e139cef205912d33af4ac0063036f726401011e6170706c69636174696f6e2f6a736f6e3b636861727365743d7574662d38004cbf7b2270223a22706f772d3230222c226f70223a226d696e74222c227469636b223a2250455045222c22616d74223a2231303030222c22736f6c7574696f6e223a22504550453a6263317173637064736c337671777466366a733538786832307637717775716839336e777737783763793a303030303030303030303030303030303030303139393431613561653132383937363539383134343239323533333030353762306461393666336465613163353a3238333130303134373433227d68",
        "c0962df30d9be27fcd73fd9a4053b3728334e273f9929aba028483b2e810075667"
      ],
      "is_coinbase": false,
      "sequence": 4294967295
    }
  ],
  "vout": [
    {
      "scriptpubkey": "00148602d87e2c03969d4a1439aea7b3c0770172c66e",
      "scriptpubkey_asm": "OP_0 OP_PUSHBYTES_20 8602d87e2c03969d4a1439aea7b3c0770172c66e",
      "scriptpubkey_type": "v0_p2wpkh",
      "scriptpubkey_address": "bc1qscpdsl3vqwtf6js58xh20v7qwuqh93nww7x7cy",
      "value": 546
    }
  ],
  "size": 455,
  "weight": 701,
  "fee": 2288,
  "status": {
    "confirmed": true,
    "block_height": 834460,
    "block_hash": "00000000000000000000484a79b643b2524bbce82e5d8a442013fa5b8905ed98",
    "block_time": 1710307468
  },
  "hex": "0200000000010173144edec36f8ab6a5d51b210199630673b59d603eb881cd4a8c56c51927d80a0200000000ffffffff0122020000000000001600148602d87e2c03969d4a1439aea7b3c0770172c66e03401ff92ce50e57664b82351ecb86da3e715c9be8eb11b62ba042eca29bbc3fe5cfb0838efad731bac437ba060a87ac3665666563dc4ba602f720fdb320bf267e06fd0c0120bf185737c780d974cbbdbc1bcb2c7b2eb58394af021f8e139cef205912d33af4ac0063036f726401011e6170706c69636174696f6e2f6a736f6e3b636861727365743d7574662d38004cbf7b2270223a22706f772d3230222c226f70223a226d696e74222c227469636b223a2250455045222c22616d74223a2231303030222c22736f6c7574696f6e223a22504550453a6263317173637064736c337671777466366a733538786832307637717775716839336e777737783763793a303030303030303030303030303030303030303139393431613561653132383937363539383134343239323533333030353762306461393666336465613163353a3238333130303134373433227d6821c0962df30d9be27fcd73fd9a4053b3728334e273f9929aba028483b2e81007566700000000"
}