{
  "txid": "ff58846e06d32ccbc92dc8055499a5700dbac3278322de87584a5641e14dd84e",
  "version": 1,
  "locktime": 0,
  "vin": [
    {
      "txid": "d1283ec7f6a2bcb65a5905033168258ca282e806c9dc7164415519a5ef041b14",
      "vout": 0,
      "prevout": {
        "scriptpubkey": "76a91496bc8310635539000a65a7cc95cb773c0cc7009788ac",
        "scriptpubkey_asm": "OP_DUP OP_HASH160 OP_PUSHBYTES_20 96bc8310635539000a65a7cc95cb773c0cc70097 OP_EQUALVERIFY OP_CHECKSIG",
        "scriptpubkey_type": "p2pkh",
        "scriptpubkey_address": "1Ek2BpKHUbr6SrrWq4P3Tf2jB6UCST2bwx",
        "value": 1103367
      },
      "scriptsig": "4730440220200b9a61529151f9f264a04e9aa17bb6e1d53fb345747c44885b1e185a82c17502200e41059f8ab4d3b3709dcb91b050c344b06c5086f05598d62bc06a8b746db4290121025f0ba0cdc8aa97ec1fffd01fac34d3a7f700baf07658048263a2c925825e8d33",
      "scriptsig_asm": "OP_PUSHBYTES_71 30440220200b9a61529151f9f264a04e9aa17bb6e1d53fb345747c44885b1e185a82c17502200e41059f8ab4d3b3709dcb91b050c344b06c5086f05598d62bc06a8b746db42901 OP_PUSHBYTES_33 025f0ba0cdc8aa97ec1fffd01fac34d3a7f700baf07658048263a2c925825e8d33",
      "is_coinbase": false,
      "sequence": 4294967295
    }
  ],
  "vout": [
    {
      "scriptpubkey": "76a914e5977cf916acdba010b9d847b9682135aa3ea81a88ac",
      "scriptpubkey_asm": "OP_DUP OP_HASH160 OP_PUSHBYTES_20 e5977cf916acdba010b9d847b9682135aa3ea81a OP_EQUALVERIFY OP_CHECKSIG",
      "scriptpubkey_type": "p2pkh",
      "scriptpubkey_address": "1MvyDWhroVV7BAL1twmwvY88DdvBEmPbG7",
      "value": 1100665
    }
  ],
  "size": 191,
  "weight": 764,
  "fee": 2702,
  "status": {
    "confirmed": true,
    "block_height": 834460,
    "block_hash": "00000000000000000000484a79b643b2524bbce82e5d8a442013fa5b8905ed98",
    "block_time": 1710307468
  },
  "hex": "0100000001141b04efa51955416471dcc906e882a28c2568310305595ab6bca2f6c73e28d1000000006a4730440220200b9a61529151f9f264a04e9aa17bb6e1d53fb345747c44885b1e185a82c17502200e41059f8ab4d3b3709dcb91b050c344b06c5086f05598d62bc06a8b746db4290121025f0ba0cdc8aa97ec1fffd01fac34d3a7f700baf07658048263a2c925825e8d33ffffffff0179cb1000000000001976a914e5977cf916acdba010b9d847b9682135aa3ea81a88ac00000000"
}