{
  "txid": "ff5e0b9d91d323cd52385e821996268bbb03f0f2c58b7cfa689c63982d50c603",
  "version": 2,
  "locktime": 0,
  "vin": [
    {
      "txid": "796154afa4abac52e7ad6818f2101a7d3bb2cadf517d8b9945d3a94b7a37bbcb",
      "vout": 3,
      "prevout": {
        "scriptpubkey": "0014e27725ff317aa4f2011157028b93d04ae48fe2fe",
        "scriptpubkey_asm": "OP_0 OP_PUSHBYTES_20 e27725ff317aa4f2011157028b93d04ae48fe2fe",
        "scriptpubkey_type": "v0_p2wpkh",
        "scriptpubkey_address": "bc1qufmjtle302j0yqg32upghy7sftjglch7umur40",
        "value": 145333
      },
      "scriptsig": "",
      "scriptsig_asm": "",
      "witness": [
        "3045022100f8e7cfb49496e951942ebddf724d96d3965254514174ee3dc054b8984179a697022002dffe0c58566bb6df519a67fd7df765a43585184f50e40d46abaafedb31147601",
        "02fb4fee8b08d2fb0fdc68e7452dbf082aa64adb92275eb73782bfdbec4f128d68"
      ],
      "is_coinbase": false,
      "sequence": 4294967295
    }
  ],
  "vout": [
    {
      "scriptpubkey": "00145efd30dc1221e98c5d1d30aa74f88debb6a82e8e",
      "scriptpubkey_asm": "OP_0 OP_PUSHBYTES_20 5efd30dc1221e98c5d1d30aa74f88debb6a82e8e",
      "scriptpubkey_type": "v0_p2wpkh",
      "scriptpubkey_address": "bc1qtm7nphqjy85cchgaxz48f7ydawm2st5wzd95ec",
      "value": 333
    },
    {
      "scriptpubkey": "512102c35542d3fd76a8aa9c8dbe145c4b0126785446fe617ec0af9c50f1b96ab654b02103eaedbfcc240c5df4c69ad4124354d68970e6b161942de0e92e341fc931b1d2882102020202020202020202020202020202020202020202020202020202020202020253ae",
      "scriptpubkey_asm": "OP_PUSHNUM_1 OP_PUSHBYTES_33 02c35542d3fd76a8aa9c8dbe145c4b0126785446fe617ec0af9c50f1b96ab654b0 OP_PUSHBYTES_33 03eaedbfcc240c5df4c69ad4124354d68970e6b161942de0e92e341fc931b1d288 OP_PUSHBYTES_33 020202020202020202020202020202020202020202020202020202020202020202 OP_PUSHNUM_3 OP_CHECKMULTISIG",
      "scriptpubkey_type": "unknown",
      "value": 801
    },
    {
      "scriptpubkey": "512103aa1ea9e6a41f15eeae94a77b44f4b2c8dc9cd1a1792454505b0bf898b22a58bb2103253782a65648d005686ec447ac7ca968943701a8d2e5b461c9be53026f8883872102020202020202020202020202020202020202020202020202020202020202020253ae",
      "scriptpubkey_asm": "OP_PUSHNUM_1 OP_PUSHBYTES_33 03aa1ea9e6a41f15eeae94a77b44f4b2c8dc9cd1a1792454505b0bf898b22a58bb OP_PUSHBYTES_33 03253782a65648d005686ec447ac7ca968943701a8d2e5b461c9be53026f888387 OP_PUSHBYTES_33 020202020202020202020202020202020202020202020202020202020202020202 OP_PUSHNUM_3 OP_CHECKMULTISIG",
      "scriptpubkey_type": "unknown",
      "value": 801
    },
    {
      "scriptpubkey": "0014e27725ff317aa4f2011157028b93d04ae48fe2fe",
      "scriptpubkey_asm": "OP_0 OP_PUSHBYTES_20 e27725ff317aa4f2011157028b93d04ae48fe2fe",
      "scriptpubkey_type": "v0_p2wpkh",
      "scriptpubkey_address": "bc1qufmjtle302j0yqg32upghy7sftjglch7umur40",
      "value": 127184
    }
  ],
  "size": 451,
  "weight": 1474,
  "fee": 16214,
  "status": {
    "confirmed": true,
    "block_height": 834638,
    "block_hash": "000000000000000000025f742c626208ac87e0b7d15054abb4a19ca2d735a54e",
    "block_time": 1710405325
  },
  "hex": "02000000000101cbbb377a4ba9d345998b7d51dfcab23b7d1a10f21868ade752acaba4af5461790300000000ffffffff044d010000000000001600145efd30dc1221e98c5d1d30aa74f88debb6a82e8e210300000000000069512102c35542d3fd76a8aa9c8dbe145c4b0126785446fe617ec0af9c50f1b96ab654b02103eaedbfcc240c5df4c69ad4124354d68970e6b161942de0e92e341fc931b1d2882102020202020202020202020202020202020202020202020202020202020202020253ae210300000000000069512103aa1ea9e6a41f15eeae94a77b44f4b2c8dc9cd1a1792454505b0bf898b22a58bb2103253782a65648d005686ec447ac7ca968943701a8d2e5b461c9be53026f8883872102020202020202020202020202020202020202020202020202020202020202020253aed0f0010000000000160014e27725ff317aa4f2011157028b93d04ae48fe2fe02483045022100f8e7cfb49496e951942ebddf724d96d3965254514174ee3dc054b8984179a697022002dffe0c58566bb6df519a67fd7df765a43585184f50e40d46abaafedb311476012102fb4fee8b08d2fb0fdc68e7452dbf082aa64adb92275eb73782bfdbec4f128d6800000000"
}