{
  "txid": "ff62d5f62620cf352bf58ac18af4051dff9d20d796c3a906f446bd307830d447",
  "version": 1,
  "locktime": 0,
  "vin": [
    {
      "txid": "d5833ca215cb5e505307beea00709b7dff056b01c3591b842a454a146510206c",
      "vout": 1,
      "prevout": {
        "scriptpubkey": "001421a9854c4214e65ee2b1166db503c0776bf9d4c1",
        "scriptpubkey_asm": "OP_0 OP_PUSHBYTES_20 21a9854c4214e65ee2b1166db503c0776bf9d4c1",
        "scriptpubkey_type": "v0_p2wpkh",
        "scriptpubkey_address": "bc1qyx5c2nzzznn9ac43zekm2q7qwa4ln4xpgtcevv",
        "value": 28674
      },
      "scriptsig": "",
      "scriptsig_asm": "",
      "witness": [
        "304402201404c182fcdf78c3488f6f5ac149246760199e84b8ea20313dd8312af766d36f022018f2f3716300f468dcaadeee5fc9d75c5326dc448f9d0682c4e2ad2e11c5866701",
        "03ecbea1e7fe939f9b953608a5030ea326861528384b0cf5d987ddc01044a16ae8"
      ],
      "is_coinbase": false,
      "sequence": 4294967295
    }
  ],
  "vout": [
    {
      "scriptpubkey": "a91466814b8ab682b28d0ce4de498c3eb7f30728a4ab87",
      "scriptpubkey_asm": "OP_HASH160 OP_PUSHBYTES_20 66814b8ab682b28d0ce4de498c3eb7f30728a4ab OP_EQUAL",
      "scriptpubkey_type": "p2sh",
      "scriptpubkey_address": "3B31jh12NSGzGRoHMDdpaXRnhu9B6gD35q",
      "value": 20445
    },
    {
      "scriptpubkey": "001426bbeb583241338f128597d28836f1e5ae9cbbb5",
      "scriptpubkey_asm": "OP_0 OP_PUSHBYTES_20 26bbeb583241338f128597d28836f1e5ae9cbbb5",
      "scriptpubkey_type": "v0_p2wpkh",
      "scriptpubkey_address": "bc1qy6a7kkpjgyec7y59jlfgsdh3ukhfewa4gv85nt",
      "value": 6117
    }
  ],
  "size": 223,
  "weight": 565,
  "fee": 2112,
  "status": {
    "confirmed": true,
    "block_height": 834638,
    "block_hash": "000000000000000000025f742c626208ac87e0b7d15054abb4a19ca2d735a54e",
    "block_time": 1710405325
  },
  "hex": "010000000001016c201065144a452a841b59c3016b05ff7d9b7000eabe0753505ecb15a23c83d50100000000ffffffff02dd4f00000000000017a91466814b8ab682b28d0ce4de498c3eb7f30728a4ab87e51700000000000016001426bbeb583241338f128597d28836f1e5ae9cbbb50247304402201404c182fcdf78c3488f6f5ac149246760199e84b8ea20313dd8312af766d36f022018f2f3716300f468dcaadeee5fc9d75c5326dc448f9d0682c4e2ad2e11c58667012103ecbea1e7fe939f9b953608a5030ea326861528384b0cf5d987ddc01044a16ae800000000"
}