{
  "txid": "ff683683b0d0f61a24df7fb771d7c6727e2185c486115bd65b08f353168335ff",
  "version": 1,
  "locktime": 0,
  "vin": [
    {
      "txid": "888888807e7ffbc9956c7bdb9bc03892d41dbd36bcb88b03077a788ee4623c2d",
      "vout": 0,
      "prevout": {
        "scriptpubkey": "51200c4a7004606867079344ab959dc506880bc66ae099bc831506ddaa60179c4d6d",
        "scriptpubkey_asm": "OP_PUSHNUM_1 OP_PUSHBYTES_32 0c4a7004606867079344ab959dc506880bc66ae099bc831506ddaa60179c4d6d",
        "scriptpubkey_type": "v1_p2tr",
        "scriptpubkey_address": "bc1pp398qprqdpns0y6y4w2em3gx3q9uv6hqnx7gx9gxmk4xq9uuf4ksaqz9fd",
        "value": 11627
      },
      "scriptsig": "",
      "scriptsig_asm": "",
      "witness": [
        "c1950f36c68e2ea4eb3d7e2a58a36f3178374082f4b8ae7095fc46a2df85caceedeac7fd7f51544d230e1841f5521d9687127f212038998f8797134a4ba895c883",
        "206e52c938c29c99e9a77647b2895f750d08ffac8b4128f105ecf15445f35d3cc5ac00630461746f6d03646d7442a16461726773a468626974776f726b6367383838383838386b6d696e745f7469636b657268696e66696e697479656e6f6e63651a0055b84e6474696d651a65dc501468",
        "c16e52c938c29c99e9a77647b2895f750d08ffac8b4128f105ecf15445f35d3cc5"
      ],
      "is_coinbase": false,
      "sequence": 4294967293
    }
  ],
  "vout": [
    {
      "scriptpubkey": "5120bf94882e5d0c036449dc3f1782adc8fe707e6d03ea0ecdd97e048b8da94a44b1",
      "scriptpubkey_asm": "OP_PUSHNUM_1 OP_PUSHBYTES_32 bf94882e5d0c036449dc3f1782adc8fe707e6d03ea0ecdd97e048b8da94a44b1",
      "scriptpubkey_type": "v1_p2tr",
      "scriptpubkey_address": "bc1ph72gstjapspkgjwu8utc9twglec8umgrag8vmkt7qj9cm222gjcsurlt3p",
      "value": 9999
    }
  ],
  "size": 311,
  "weight": 593,
  "fee": 1628,
  "status": {
    "confirmed": true,
    "block_height": 834464,
    "block_hash": "0000000000000000000177a0869a911a2b65c9bdcd5a8bcb02b68f305bee848e",
    "block_time": 1710308296
  },
  "hex": "010000000001012d3c62e48e787a07038bb8bc36bd1dd49238c09bdb7b6c95c9fb7f7e808888880000000000fdffffff010f27000000000000225120bf94882e5d0c036449dc3f1782adc8fe707e6d03ea0ecdd97e048b8da94a44b10341c1950f36c68e2ea4eb3d7e2a58a36f3178374082f4b8ae7095fc46a2df85caceedeac7fd7f51544d230e1841f5521d9687127f212038998f8797134a4ba895c88371206e52c938c29c99e9a77647b2895f750d08ffac8b4128f105ecf15445f35d3cc5ac00630461746f6d03646d7442a16461726773a468626974776f726b6367383838383838386b6d696e745f7469636b657268696e66696e697479656e6f6e63651a0055b84e6474696d651a65dc50146821c16e52c938c29c99e9a77647b2895f750d08ffac8b4128f105ecf15445f35d3cc500000000"
}