{
  "txid": "ff781f5ccdff7a07a3edb2bb9cc262183bd0750b67d1cbd8233425299482974c",
  "version": 2,
  "locktime": 0,
  "vin": [
    {
      "txid": "0c4be02e95be5bd6f039557302bc854f14105fe44eebe78796cba5febbddcc28",
      "vout": 0,
      "prevout": {
        "scriptpubkey": "51204abde5bc4c654e84a94691163de911bcd48a887a3456a6365e5c083dc07d84c2",
        "scriptpubkey_asm": "OP_PUSHNUM_1 OP_PUSHBYTES_32 4abde5bc4c654e84a94691163de911bcd48a887a3456a6365e5c083dc07d84c2",
        "scriptpubkey_type": "v1_p2tr",
        "scriptpubkey_address": "bc1pf277t0zvv48gf22xjytrm6g3hn2g4zr6x3t2vdj7tsyrmsrasnpqhfavx4",
        "value": 996520
      },
      "scriptsig": "",
      "scriptsig_asm": "",
      "witness": [
        "40ddc794d11a77ef5a4a1bf4bb68e04ec7a06913c2e30d346fbdcf57b235a3b988861fd02703c73ad24e8bce172479acb999f4f85a82f9fa6959f819b8f74754"
      ],
      "is_coinbase": false,
      "sequence": 4294967295
    }
  ],
  "vout": [
    {
      "scriptpubkey": "a914d1d1d836c05a9691419da13116f152f56485b45f87",
      "scriptpubkey_asm": "OP_HASH160 OP_PUSHBYTES_20 d1d1d836c05a9691419da13116f152f56485b45f OP_EQUAL",
      "scriptpubkey_type": "p2sh",
      "scriptpubkey_address": "3LpSXtniZQvz7huUJD2h1t4rzJphFwxBvE",
      "value": 250000
    },
    {
      "scriptpubkey": "51204abde5bc4c654e84a94691163de911bcd48a887a3456a6365e5c083dc07d84c2",
      "scriptpubkey_asm": "OP_PUSHNUM_1 OP_PUSHBYTES_32 4abde5bc4c654e84a94691163de911bcd48a887a3456a6365e5c083dc07d84c2",
      "scriptpubkey_type": "v1_p2tr",
      "scriptpubkey_address": "bc1pf277t0zvv48gf22xjytrm6g3hn2g4zr6x3t2vdj7tsyrmsrasnpqhfavx4",
      "value": 744232
    }
  ],
  "size": 194,
  "weight": 572,
  "fee": 2288,
  "status": {
    "confirmed": true,
    "block_height": 834638,
    "block_hash": "000000000000000000025f742c626208ac87e0b7d15054abb4a19ca2d735a54e",
    "block_time": 1710405325
  },
  "hex": "0200000000010128ccddbbfea5cb9687e7eb4ee45f10144f85bc02735539f0d65bbe952ee04b0c0000000000ffffffff0290d003000000000017a914d1d1d836c05a9691419da13116f152f56485b45f87285b0b00000000002251204abde5bc4c654e84a94691163de911bcd48a887a3456a6365e5c083dc07d84c2014040ddc794d11a77ef5a4a1bf4bb68e04ec7a06913c2e30d346fbdcf57b235a3b988861fd02703c73ad24e8bce172479acb999f4f85a82f9fa6959f819b8f7475400000000"
}