{
  "txid": "ff8209519db4c18f015cdd52200e7dbe27a0d8091df4c6e711b6192549f14e66",
  "version": 2,
  "locktime": 0,
  "vin": [
    {
      "txid": "d18ed70056c00a6cd5de0ccb10b1ae8f7dd5250f9d0f22c727aba826d03302c8",
      "vout": 4,
      "prevout": {
        "scriptpubkey": "51207cfec7705b571e816bb0676e8b7cb4d7f61105cb62e573f4de5ba716e9a23250",
        "scriptpubkey_asm": "OP_PUSHNUM_1 OP_PUSHBYTES_32 7cfec7705b571e816bb0676e8b7cb4d7f61105cb62e573f4de5ba716e9a23250",
        "scriptpubkey_type": "v1_p2tr",
        "scriptpubkey_address": "bc1p0nlvwuzm2u0gz6asvahgkl956lmpzpwtvtjh8ax7twn3d6dzxfgqa22zsg",
        "value": 3010
      },
      "scriptsig": "",
      "scriptsig_asm": "",
      "witness": [
        "29d9e2cfae316069ddf8d42cdbcaa3fe8f2959174ce21d0915666ecc2de92c0783b264097b86b69e9d99fee29a10063ffaa33f1f55e3cdf3eccaa9f61d72ecd1",
        "205ae571c4e277a2d3ddad9969056980fc4d901b3744d57541dff9151af2073f77ac0063036f726401011e6170706c69636174696f6e2f6a736f6e3b636861727365743d7574662d38004cbf7b2270223a22706f772d3230222c226f70223a226d696e74222c227469636b223a2250455045222c22616d74223a2231303030222c22736f6c7574696f6e223a22504550453a6263317168337833756334707a796478716436757776376e3732676874787a33753937306564663078613a303030303030303030303030303030303030303139393431613561653132383937363539383134343239323533333030353762306461393666336465613163353a3137323536373834333438227d68",
        "c0e5c6b8d70510d88b341fcdd9a2aa08913e89d9e736480c530fde3fe13419cdab"
      ],
      "is_coinbase": false,
      "sequence": 4294967295
    }
  ],
  "vout": [
    {
      "scriptpubkey": "0014bc4d1e62a1111a60375c733d3f291759851e17cf",
      "scriptpubkey_asm": "OP_0 OP_PUSHBYTES_20 bc4d1e62a1111a60375c733d3f291759851e17cf",
      "scriptpubkey_type": "v0_p2wpkh",
      "scriptpubkey_address": "bc1qh3x3uc4pzydxqd6uwv7n72ghtxz3u970edf0xa",
      "value": 546
    }
  ],
  "size": 455,
  "weight": 701,
  "fee": 2464,
  "status": {
    "confirmed": true,
    "block_height": 834460,
    "block_hash": "00000000000000000000484a79b643b2524bbce82e5d8a442013fa5b8905ed98",
    "block_time": 1710307468
  },
  "hex": "02000000000101c80233d026a8ab27c7220f9d0f25d57d8faeb110cb0cded56c0ac05600d78ed10400000000ffffffff012202000000000000160014bc4d1e62a1111a60375c733d3f291759851e17cf034029d9e2cfae316069ddf8d42cdbcaa3fe8f2959174ce21d0915666ecc2de92c0783b264097b86b69e9d99fee29a10063ffaa33f1f55e3cdf3eccaa9f61d72ecd1fd0c01205ae571c4e277a2d3ddad9969056980fc4d901b3744d57541dff9151af2073f77ac0063036f726401011e6170706c69636174696f6e2f6a736f6e3b636861727365743d7574662d38004cbf7b2270223a22706f772d3230222c226f70223a226d696e74222c227469636b223a2250455045222c22616d74223a2231303030222c22736f6c7574696f6e223a22504550453a6263317168337833756334707a796478716436757776376e3732676874787a33753937306564663078613a303030303030303030303030303030303030303139393431613561653132383937363539383134343239323533333030353762306461393666336465613163353a3137323536373834333438227d6821c0e5c6b8d70510d88b341fcdd9a2aa08913e89d9e736480c530fde3fe13419cdab00000000"
}