{
  "txid": "ffa24ec2bdb879d45b685b1e8f53d814c802cd7711d003a25b9b4628669896b8",
  "version": 1,
  "locktime": 0,
  "vin": [
    {
      "txid": "bc68679a47354f118799f38492f924ad509b4aafbb84606ab46e25ab4e1800c0",
      "vout": 1,
      "prevout": {
        "scriptpubkey": "0014fd44c9f3906b58498b57a065cc5ffa86e4308892",
        "scriptpubkey_asm": "OP_0 OP_PUSHBYTES_20 fd44c9f3906b58498b57a065cc5ffa86e4308892",
        "scriptpubkey_type": "v0_p2wpkh",
        "scriptpubkey_address": "bc1ql4zvnuusddvynz6h5pjuchl6smjrpzyjsg6vpm",
        "value": 36284
      },
      "scriptsig": "",
      "scriptsig_asm": "",
      "witness": [
        "304402203d19e5938fff00fea1fa24116f544a828072eeffac46ad535549764949b2aeff022031de6f494eac0fa4fbb297295e33e81b08864b934f9007fc3152d0c0664c834b01",
        "03dc3569c16d7022ce5162f2a0137da09011e9d48153ee2a2ab093eb767a946547"
      ],
      "is_coinbase": false,
      "sequence": 4294967295
    }
  ],
  "vout": [
    {
      "scriptpubkey": "00143ef3cdc0552869231611cfaeae4c29b843f2797f",
      "scriptpubkey_asm": "OP_0 OP_PUSHBYTES_20 3ef3cdc0552869231611cfaeae4c29b843f2797f",
      "scriptpubkey_type": "v0_p2wpkh",
      "scriptpubkey_address": "bc1q8meumsz49p5jx9s3e7h2unpfhpply7tlnglyq5",
      "value": 19572
    },
    {
      "scriptpubkey": "00149c4a97be80e522deb3687434fcf1b371dee08b89",
      "scriptpubkey_asm": "OP_0 OP_PUSHBYTES_20 9c4a97be80e522deb3687434fcf1b371dee08b89",
      "scriptpubkey_type": "v0_p2wpkh",
      "scriptpubkey_address": "bc1qn39f005qu53davmgws60eudnw80wpzuf0za5z4",
      "value": 15161
    }
  ],
  "size": 222,
  "weight": 561,
  "fee": 1551,
  "status": {
    "confirmed": true,
    "block_height": 834464,
    "block_hash": "0000000000000000000177a0869a911a2b65c9bdcd5a8bcb02b68f305bee848e",
    "block_time": 1710308296
  },
  "hex": "01000000000101c000184eab256eb46a6084bbaf4a9b50ad24f99284f39987114f35479a6768bc0100000000ffffffff02744c0000000000001600143ef3cdc0552869231611cfaeae4c29b843f2797f393b0000000000001600149c4a97be80e522deb3687434fcf1b371dee08b890247304402203d19e5938fff00fea1fa24116f544a828072eeffac46ad535549764949b2aeff022031de6f494eac0fa4fbb297295e33e81b08864b934f9007fc3152d0c0664c834b012103dc3569c16d7022ce5162f2a0137da09011e9d48153ee2a2ab093eb767a94654700000000"
}