{
  "txid": "ffaa91cb56f697e8c9b9134405a1f9f8d6b430617fd05ce436318ed362becbda",
  "version": 2,
  "locktime": 834637,
  "vin": [
    {
      "txid": "e5475fa306f96418265f79674ff58bd5b4690bed88805f6ac4bec0dd488613d0",
      "vout": 1,
      "prevout": {
        "scriptpubkey": "001424dd97e48eea86c13ed067a8db4d9c16f4bd65f3",
        "scriptpubkey_asm": "OP_0 OP_PUSHBYTES_20 24dd97e48eea86c13ed067a8db4d9c16f4bd65f3",
        "scriptpubkey_type": "v0_p2wpkh",
        "scriptpubkey_address": "bc1qynwe0eywa2rvz0ksv75dknvuzm6t6e0ny9vwwl",
        "value": 254737132
      },
      "scriptsig": "",
      "scriptsig_asm": "",
      "witness": [
        "30440220596ecbe6baa98f71319428ee970c5a9852807b03c9aa3f2becd57b971c9abaa0022037c31107484fe4de7308d712edb7b6913f828296e43b4e7baec47386ffef0b1601",
        "027cd31a615c49285a33fa6b3473574109c42f1981bca53c71c1893d6a2240c883"
      ],
      "is_coinbase": false,
      "sequence": 4294967294
    }
  ],
  "vout": [
    {
      "scriptpubkey": "a9146ac97508fc05fc5c16ea64592d156b7f233e7f3d87",
      "scriptpubkey_asm": "OP_HASH160 OP_PUSHBYTES_20 6ac97508fc05fc5c16ea64592d156b7f233e7f3d OP_EQUAL",
      "scriptpubkey_type": "p2sh",
      "scriptpubkey_address": "3BRetNFc5vJZK8Drb4RyJmmjYffWUEVfFL",
      "value": 3442300
    },
    {
      "scriptpubkey": "0014b10120ed319f28bb7440e9d9e1a4a7dbc4f8fa64",
      "scriptpubkey_asm": "OP_0 OP_PUSHBYTES_20 b10120ed319f28bb7440e9d9e1a4a7dbc4f8fa64",
      "scriptpubkey_type": "v0_p2wpkh",
      "scriptpubkey_address": "bc1qkyqjpmf3nu5tkazqa8v7rf98m0z037nyc4g7ng",
      "value": 251291352
    }
  ],
  "size": 223,
  "weight": 565,
  "fee": 3480,
  "status": {
    "confirmed": true,
    "block_height": 834638,
    "block_hash": "000000000000000000025f742c626208ac87e0b7d15054abb4a19ca2d735a54e",
    "block_time": 1710405325
  },
  "hex": "02000000000101d0138648ddc0bec46a5f8088ed0b69b4d58bf54f67795f261864f906a35f47e50100000000feffffff027c8634000000000017a9146ac97508fc05fc5c16ea64592d156b7f233e7f3d87d866fa0e00000000160014b10120ed319f28bb7440e9d9e1a4a7dbc4f8fa64024730440220596ecbe6baa98f71319428ee970c5a9852807b03c9aa3f2becd57b971c9abaa0022037c31107484fe4de7308d712edb7b6913f828296e43b4e7baec47386ffef0b160121027cd31a615c49285a33fa6b3473574109c42f1981bca53c71c1893d6a2240c8834dbc0c00"
}