{
  "txid": "ffd919f6375d14bc6cc07af141dc2ca2f4d75a421146c2a3c7746a831efdf1ea",
  "version": 2,
  "locktime": 0,
  "vin": [
    {
      "txid": "ece731f93b136697eb0369606ac2a7969b3d77691a082ffb3cb19d469b7d466a",
      "vout": 3,
      "prevout": {
        "scriptpubkey": "76a91475d616cf3f45edb8640770bc718bee468db9139788ac",
        "scriptpubkey_asm": "OP_DUP OP_HASH160 OP_PUSHBYTES_20 75d616cf3f45edb8640770bc718bee468db91397 OP_EQUALVERIFY OP_CHECKSIG",
        "scriptpubkey_type": "p2pkh",
        "scriptpubkey_address": "1Bk4Xchs2nJVcz9PavUyozprDXs24uLz4A",
        "value": 990000
      },
      "scriptsig": "4830450221008b776cb507dcdb1ad15bf5c0555add8e8c839ff146e73122c328105c4594a279022000923813f4487b624d1bf98e49ab9da9f2b3dc081e3c11fbf7070439787c2aaa012103bea5d859ec5d95c449c736a0f19a5e52fdacf8b6b96afeaa415cd49f11e6a07c",
      "scriptsig_asm": "OP_PUSHBYTES_72 30450221008b776cb507dcdb1ad15bf5c0555add8e8c839ff146e73122c328105c4594a279022000923813f4487b624d1bf98e49ab9da9f2b3dc081e3c11fbf7070439787c2aaa01 OP_PUSHBYTES_33 03bea5d859ec5d95c449c736a0f19a5e52fdacf8b6b96afeaa415cd49f11e6a07c",
      "is_coinbase": false,
      "sequence": 4294967295
    }
  ],
  "vout": [
    {
      "scriptpubkey": "0014a159b3ac03bb4222bbd087e917fca699ca9d3f68",
      "scriptpubkey_asm": "OP_0 OP_PUSHBYTES_20 a159b3ac03bb4222bbd087e917fca699ca9d3f68",
      "scriptpubkey_type": "v0_p2wpkh",
      "scriptpubkey_address": "bc1q59vm8tqrhdpz9w7ssl530l9xn89f60mgntzutg",
      "value": 987256
    }
  ],
  "size": 189,
  "weight": 756,
  "fee": 2744,
  "status": {
    "confirmed": true,
    "block_height": 834638,
    "block_hash": "000000000000000000025f742c626208ac87e0b7d15054abb4a19ca2d735a54e",
    "block_time": 1710405325
  },
  "hex": "02000000016a467d9b469db13cfb2f081a69773d9b96a7c26a606903eb9766133bf931e7ec030000006b4830450221008b776cb507dcdb1ad15bf5c0555add8e8c839ff146e73122c328105c4594a279022000923813f4487b624d1bf98e49ab9da9f2b3dc081e3c11fbf7070439787c2aaa012103bea5d859ec5d95c449c736a0f19a5e52fdacf8b6b96afeaa415cd49f11e6a07cffffffff0178100f0000000000160014a159b3ac03bb4222bbd087e917fca699ca9d3f6800000000"
}