{
  "txid": "ffe82e75847a6bf57be1da82ffccc7c3f59c987bf92013592146264c6907db90",
  "version": 2,
  "locktime": 0,
  "vin": [
    {
      "txid": "d9967d86549a826ae059a65ad137f1fbff135595c15f6f6f027e5de6e9eb66f8",
      "vout": 0,
      "prevout": {
        "scriptpubkey": "5120742288b396237ebbaffece721aceefa81ceca33331dc368ebb51c44ea24a965f",
        "scriptpubkey_asm": "OP_PUSHNUM_1 OP_PUSHBYTES_32 742288b396237ebbaffece721aceefa81ceca33331dc368ebb51c44ea24a965f",
        "scriptpubkey_type": "v1_p2tr",
        "scriptpubkey_address": "bc1pws3g3vukydlthtl7eeep4nh04qwwegenx8wrdr4m28zyagj2je0sdnu6ta",
        "value": 110000
      },
      "scriptsig": "",
      "scriptsig_asm": "",
      "witness": [
        "8178e17122ff1e8f61a8ace50ca87333742d5166504302bd93d33519037b4cbba0ed4e2369821d818116682b01f18cb6253d9013f5e052217d2b0e7ffbdb9de0"
      ],
      "is_coinbase": false,
      "sequence": 4294967293
    }
  ],
  "vout": [
    {
      "scriptpubkey": "5120126760f8c4d1f7fca045170cd4af3739ef86547341a1c9cbcc731c91b50a7d4d",
      "scriptpubkey_asm": "OP_PUSHNUM_1 OP_PUSHBYTES_32 126760f8c4d1f7fca045170cd4af3739ef86547341a1c9cbcc731c91b50a7d4d",
      "scriptpubkey_type": "v1_p2tr",
      "scriptpubkey_address": "bc1pzfnkp7xy68mlegz9zuxdfteh88hcv4rngxsunj7vwvwfrdg204xs2g75x5",
      "value": 2841
    },
    {
      "scriptpubkey": "5120742288b396237ebbaffece721aceefa81ceca33331dc368ebb51c44ea24a965f",
      "scriptpubkey_asm": "OP_PUSHNUM_1 OP_PUSHBYTES_32 742288b396237ebbaffece721aceefa81ceca33331dc368ebb51c44ea24a965f",
      "scriptpubkey_type": "v1_p2tr",
      "scriptpubkey_address": "bc1pws3g3vukydlthtl7eeep4nh04qwwegenx8wrdr4m28zyagj2je0sdnu6ta",
      "value": 104849
    }
  ],
  "size": 205,
  "weight": 616,
  "fee": 2310,
  "status": {
    "confirmed": true,
    "block_height": 834460,
    "block_hash": "00000000000000000000484a79b643b2524bbce82e5d8a442013fa5b8905ed98",
    "block_time": 1710307468
  },
  "hex": "02000000000101f866ebe9e65d7e026f6f5fc1955513fffbf137d15aa659e06a829a54867d96d90000000000fdffffff02190b000000000000225120126760f8c4d1f7fca045170cd4af3739ef86547341a1c9cbcc731c91b50a7d4d9199010000000000225120742288b396237ebbaffece721aceefa81ceca33331dc368ebb51c44ea24a965f01408178e17122ff1e8f61a8ace50ca87333742d5166504302bd93d33519037b4cbba0ed4e2369821d818116682b01f18cb6253d9013f5e052217d2b0e7ffbdb9de000000000"
}