{
  "txid": "fff5fcaf7a52047be6ee64077b44aaec937275306033b09ebe03a8a6e85817bf",
  "version": 1,
  "locktime": 0,
  "vin": [
    {
      "txid": "7d357cf187c536dbb7224adc00014b47eb3dd6b11fc07a59b99e10369bba70c8",
      "vout": 0,
      "prevout": {
        "scriptpubkey": "76a914b7745f296e7325565c3bab60603ffc18e8e1072788ac",
        "scriptpubkey_asm": "OP_DUP OP_HASH160 OP_PUSHBYTES_20 b7745f296e7325565c3bab60603ffc18e8e10727 OP_EQUALVERIFY OP_CHECKSIG",
        "scriptpubkey_type": "p2pkh",
        "scriptpubkey_address": "1Hj24kkFZDvAvpJHb2sa5aFKCgXmgrbKru",
        "value": 1334449
      },
      "scriptsig": "483045022100e34830ea7faec88200306c0280c116e7e67d0ddb0acb8ead2a025213e68a5fdc02202d1ce87c02972450e554e70c1e3e52bc15723070e34534b6004bffebee1276e9012102cea9960b12fc7c35f3edc4e3351a1fdad963dba93ae9ee6f9ed897991a70fdf5",
      "scriptsig_asm": "OP_PUSHBYTES_72 3045022100e34830ea7faec88200306c0280c116e7e67d0ddb0acb8ead2a025213e68a5fdc02202d1ce87c02972450e554e70c1e3e52bc15723070e34534b6004bffebee1276e901 OP_PUSHBYTES_33 02cea9960b12fc7c35f3edc4e3351a1fdad963dba93ae9ee6f9ed897991a70fdf5",
      "is_coinbase": false,
      "sequence": 4294967295
    },
    {
      "txid": "c79ee476d94b5310ac2c30554843947d0126c0c67638dfc6da4db6f29375486d",
      "vout": 0,
      "prevout": {
        "scriptpubkey": "76a914b7745f296e7325565c3bab60603ffc18e8e1072788ac",
        "scriptpubkey_asm": "OP_DUP OP_HASH160 OP_PUSHBYTES_20 b7745f296e7325565c3bab60603ffc18e8e10727 OP_EQUALVERIFY OP_CHECKSIG",
        "scriptpubkey_type": "p2pkh",
        "scriptpubkey_address": "1Hj24kkFZDvAvpJHb2sa5aFKCgXmgrbKru",
        "value": 7760000
      },
      "scriptsig": "483045022100ef57fa2d455fab4ffeaf685fe27b735e4a0b2926e13d3a55da8d8c4e3a1117a902207860ca7efe54e1b7cf485e351a92a08b0fb7a6593a7d911487544ff00f5fd1e5012102cea9960b12fc7c35f3edc4e3351a1fdad963dba93ae9ee6f9ed897991a70fdf5",
      "scriptsig_asm": "OP_PUSHBYTES_72 3045022100ef57fa2d455fab4ffeaf685fe27b735e4a0b2926e13d3a55da8d8c4e3a1117a902207860ca7efe54e1b7cf485e351a92a08b0fb7a6593a7d911487544ff00f5fd1e501 OP_PUSHBYTES_33 02cea9960b12fc7c35f3edc4e3351a1fdad963dba93ae9ee6f9ed897991a70fdf5",
      "is_coinbase": false,
      "sequence": 4294967295
    }
  ],
  "vout": [
    {
      "scriptpubkey": "a914c17b2a93b6c0cc632c39f45c5c85f0f064f2a25d87",
      "scriptpubkey_asm": "OP_HASH160 OP_PUSHBYTES_20 c17b2a93b6c0cc632c39f45c5c85f0f064f2a25d OP_EQUAL",
      "scriptpubkey_type": "p2sh",
      "scriptpubkey_address": "3KL3tK6Ehk4WMQ3xyeXy9ne84hg6b17QRL",
      "value": 9087649
    }
  ],
  "size": 338,
  "weight": 1352,
  "fee": 6800,
  "status": {
    "confirmed": true,
    "block_height": 834638,
    "block_hash": "000000000000000000025f742c626208ac87e0b7d15054abb4a19ca2d735a54e",
    "block_time": 1710405325
  },
  "hex": "0100000002c870ba9b36109eb9597ac01fb1d63deb474b0100dc4a22b7db36c587f17c357d000000006b483045022100e34830ea7faec88200306c0280c116e7e67d0ddb0acb8ead2a025213e68a5fdc02202d1ce87c02972450e554e70c1e3e52bc15723070e34534b6004bffebee1276e9012102cea9960b12fc7c35f3edc4e3351a1fdad963dba93ae9ee6f9ed897991a70fdf5ffffffff6d487593f2b64ddac6df3876c6c026017d94434855302cac10534bd976e49ec7000000006b483045022100ef57fa2d455fab4ffeaf685fe27b735e4a0b2926e13d3a55da8d8c4e3a1117a902207860ca7efe54e1b7cf485e351a92a08b0fb7a6593a7d911487544ff00f5fd1e5012102cea9960b12fc7c35f3edc4e3351a1fdad963dba93ae9ee6f9ed897991a70fdf5ffffffff01a1aa8a000000000017a914c17b2a93b6c0cc632c39f45c5c85f0f064f2a25d8700000000"
}