{
  "txid": "fff6d4a266c8d84f5b84baa172f79e1c4e45eaa49bef1b7b4416affa667eef98",
  "version": 2,
  "locktime": 0,
  "vin": [
    {
      "txid": "a6604e4d3e37b514e61158b50f7e72014fc3a16902e7dde50aa810205a601c46",
      "vout": 0,
      "prevout": {
        "scriptpubkey": "512090d920020599bbd0d9dddbb7c3a78baab0c1a3b85cecde2287b2d18fefaaf95b",
        "scriptpubkey_asm": "OP_PUSHNUM_1 OP_PUSHBYTES_32 90d920020599bbd0d9dddbb7c3a78baab0c1a3b85cecde2287b2d18fefaaf95b",
        "scriptpubkey_type": "v1_p2tr",
        "scriptpubkey_address": "bc1pjrvjqqs9nxaapkwamwmu8fut42cvrgactnkdug58ktgclma2l9dsh8y2df",
        "value": 3164
      },
      "scriptsig": "",
      "scriptsig_asm": "",
      "witness": [
        "b2dbbe347882025f20ece2c52e25f4d3aebaa344b351bc1002f49b17f908fe53df0efbcaecfaf983b874a0d6f4cfef7304bc8f19e7eae6966063a5ad6bce2645",
        "2022b68d847515413f94953376acd192f3a76952770492b0a789563b8831b191cdac0063036f7264010118746578742f706c61696e3b636861727365743d7574662d3800417b2270223a226272632d3230222c226f70223a227472616e73666572222c227469636b223a2246535020222c22616d74223a22323238303030303030303030227d68",
        "c022b68d847515413f94953376acd192f3a76952770492b0a789563b8831b191cd"
      ],
      "is_coinbase": false,
      "sequence": 4294967293
    }
  ],
  "vout": [
    {
      "scriptpubkey": "5120b531b5bcbf08dfd7c8a13461ce868985b969914f0ac42489cbd730999a48403f",
      "scriptpubkey_asm": "OP_PUSHNUM_1 OP_PUSHBYTES_32 b531b5bcbf08dfd7c8a13461ce868985b969914f0ac42489cbd730999a48403f",
      "scriptpubkey_type": "v1_p2tr",
      "scriptpubkey_address": "bc1pk5cmt09lpr0a0j9px3suap5fskukny20ptzzfzwt6ucfnxjggqlsjjmqfh",
      "value": 546
    }
  ],
  "size": 332,
  "weight": 614,
  "fee": 2618,
  "status": {
    "confirmed": true,
    "block_height": 834638,
    "block_hash": "000000000000000000025f742c626208ac87e0b7d15054abb4a19ca2d735a54e",
    "block_time": 1710405325
  },
  "hex": "02000000000101461c605a2010a80ae5dde70269a1c34f01727e0fb55811e614b5373e4d4e60a60000000000fdffffff012202000000000000225120b531b5bcbf08dfd7c8a13461ce868985b969914f0ac42489cbd730999a48403f0340b2dbbe347882025f20ece2c52e25f4d3aebaa344b351bc1002f49b17f908fe53df0efbcaecfaf983b874a0d6f4cfef7304bc8f19e7eae6966063a5ad6bce2645872022b68d847515413f94953376acd192f3a76952770492b0a789563b8831b191cdac0063036f7264010118746578742f706c61696e3b636861727365743d7574662d3800417b2270223a226272632d3230222c226f70223a227472616e73666572222c227469636b223a2246535020222c22616d74223a22323238303030303030303030227d6821c022b68d847515413f94953376acd192f3a76952770492b0a789563b8831b191cd00000000"
}