{
  "txid": "fffeae547b541852e97d81082dabedf689c985d03a6cc16210dae69be6c15f79",
  "version": 1,
  "locktime": 0,
  "vin": [
    {
      "txid": "998bc4c59210e58e8012f0ffbbb0d2a10f01b5f403295207f5858324e8ece43e",
      "vout": 0,
      "prevout": {
        "scriptpubkey": "0014d0347c0de79e74c4030ed8bef8c8187a65216333",
        "scriptpubkey_asm": "OP_0 OP_PUSHBYTES_20 d0347c0de79e74c4030ed8bef8c8187a65216333",
        "scriptpubkey_type": "v0_p2wpkh",
        "scriptpubkey_address": "bc1q6q68cr08ne6vgqcwmzl03jqc0fjjzcenjc93pu",
        "value": 955000
      },
      "scriptsig": "",
      "scriptsig_asm": "",
      "witness": [
        "30450221009a6e102ae6b2de8a179868071d0bc9ab8c30da39e5790dec1e0b0bdc85ddd98402206f136b4c4a55201cde6d921102e8e61bd1aaa914795ff218fbadbc32c0b0a85201",
        "0290c707fc2a7e470a20a6972716125515fcf66f891fb34f16c4636038fb07adb3"
      ],
      "is_coinbase": false,
      "sequence": 4294967293
    },
    {
      "txid": "c1d67237db198e5854524cf298a6c132e5525ad3d797a7245bc84c83b5e34040",
      "vout": 0,
      "prevout": {
        "scriptpubkey": "0014d0347c0de79e74c4030ed8bef8c8187a65216333",
        "scriptpubkey_asm": "OP_0 OP_PUSHBYTES_20 d0347c0de79e74c4030ed8bef8c8187a65216333",
        "scriptpubkey_type": "v0_p2wpkh",
        "scriptpubkey_address": "bc1q6q68cr08ne6vgqcwmzl03jqc0fjjzcenjc93pu",
        "value": 514000
      },
      "scriptsig": "",
      "scriptsig_asm": "",
      "witness": [
        "3045022100edda07e3bfbbcc6c28c1a0703cbe229685ce7f1cf7333794d2077375ef94ac2602204695a13c993e3787dae22007686730e1c4078c9cf34aacfede598e24ebf6a57401",
        "0290c707fc2a7e470a20a6972716125515fcf66f891fb34f16c4636038fb07adb3"
      ],
      "is_coinbase": false,
      "sequence": 4294967293
    },
    {
      "txid": "cd7242fcf174e1fa10183719ef06e82b2e14587065a1bf9a3007b4ea4f46eac0",
      "vout": 0,
      "prevout": {
        "scriptpubkey": "001437f584d83378a723cd0b47e0941d61e488ed3177",
        "scriptpubkey_asm": "OP_0 OP_PUSHBYTES_20 37f584d83378a723cd0b47e0941d61e488ed3177",
        "scriptpubkey_type": "v0_p2wpkh",
        "scriptpubkey_address": "bc1qxl6cfkpn0znj8ngtglsfg8tpujyw6vthtfwuze",
        "value": 1192319
      },
      "scriptsig": "",
      "scriptsig_asm": "",
      "witness": [
        "304402205cc6a4d2a692bc36bc5b0930ed1f4b9bf1b578ac4d5b864434be1535d583e58102201036b46d395e4bec01d66eec98f9cb08cbe4a5e493c889f756703984684109b401",
        "0333a5b8edd733acac02e3ca461fd14a650af87f75b8db0c959c0105bc2c971867"
      ],
      "is_coinbase": false,
      "sequence": 4294967293
    },
    {
      "txid": "d02b7f006a9056342a527a6bc1c81048a7ff028eb2c35e9509ccc97a97da0eb7",
      "vout": 1,
      "prevout": {
        "scriptpubkey": "0014d0347c0de79e74c4030ed8bef8c8187a65216333",
        "scriptpubkey_asm": "OP_0 OP_PUSHBYTES_20 d0347c0de79e74c4030ed8bef8c8187a65216333",
        "scriptpubkey_type": "v0_p2wpkh",
        "scriptpubkey_address": "bc1q6q68cr08ne6vgqcwmzl03jqc0fjjzcenjc93pu",
        "value": 343000
      },
      "scriptsig": "",
      "scriptsig_asm": "",
      "witness": [
        "3044022039dd9841922f982980446e799e2ed4bfe0f2eb3de71e997e10e5ba77ef09e54202206de511348ac611c7be229db6697206f1f79a67541e30572eddaa86887b19436501",
        "0290c707fc2a7e470a20a6972716125515fcf66f891fb34f16c4636038fb07adb3"
      ],
      "is_coinbase": false,
      "sequence": 4294967293
    }
  ],
  "vout": [
    {
      "scriptpubkey": "0014d6f6f0fcfef1b5da5ae079ea8e154e1011b6cb9c",
      "scriptpubkey_asm": "OP_0 OP_PUSHBYTES_20 d6f6f0fcfef1b5da5ae079ea8e154e1011b6cb9c",
      "scriptpubkey_type": "v0_p2wpkh",
      "scriptpubkey_address": "bc1q6mm0pl877x6a5khq084gu92wzqgmdjuu8jlms8",
      "value": 2999910
    }
  ],
  "size": 637,
  "weight": 1252,
  "fee": 4409,
  "status": {
    "confirmed": true,
    "block_height": 834638,
    "block_hash": "000000000000000000025f742c626208ac87e0b7d15054abb4a19ca2d735a54e",
    "block_time": 1710405325
  },
  "hex": "010000000001043ee4ece8248385f507522903f4b5010fa1d2b0bbfff012808ee51092c5c48b990000000000fdffffff4040e3b5834cc85b24a797d7d35a52e532c1a698f24c5254588e19db3772d6c10000000000fdffffffc0ea464feab407309abfa1657058142e2be806ef19371810fae174f1fc4272cd0000000000fdffffffb70eda977ac9cc09955ec3b28e02ffa74810c8c16b7a522a3456906a007f2bd00100000000fdffffff0166c62d0000000000160014d6f6f0fcfef1b5da5ae079ea8e154e1011b6cb9c024830450221009a6e102ae6b2de8a179868071d0bc9ab8c30da39e5790dec1e0b0bdc85ddd98402206f136b4c4a55201cde6d921102e8e61bd1aaa914795ff218fbadbc32c0b0a85201210290c707fc2a7e470a20a6972716125515fcf66f891fb34f16c4636038fb07adb302483045022100edda07e3bfbbcc6c28c1a0703cbe229685ce7f1cf7333794d2077375ef94ac2602204695a13c993e3787dae22007686730e1c4078c9cf34aacfede598e24ebf6a57401210290c707fc2a7e470a20a6972716125515fcf66f891fb34f16c4636038fb07adb30247304402205cc6a4d2a692bc36bc5b0930ed1f4b9bf1b578ac4d5b864434be1535d583e58102201036b46d395e4bec01d66eec98f9cb08cbe4a5e493c889f756703984684109b401210333a5b8edd733acac02e3ca461fd14a650af87f75b8db0c959c0105bc2c97186702473044022039dd9841922f982980446e799e2ed4bfe0f2eb3de71e997e10e5ba77ef09e54202206de511348ac611c7be229db6697206f1f79a67541e30572eddaa86887b19436501210290c707fc2a7e470a20a6972716125515fcf66f891fb34f16c4636038fb07adb300000000"
}