{
  "txid": "fffe2b35f54fc10993124ebf3e88349f4f2489c43f2c80557ce3ba79fb198e3f",
  "version": 1,
  "locktime": 0,
  "vin": [
    {
      "txid": "8fdcf3d2d3ddfe42f25bc52bd95c7eee5edae73b0b4c0b5380a1282c77384336",
      "vout": 2,
      "prevout": {
        "scriptpubkey": "a91401e4fb05a0d97eb845b9c1d585961b2c13dfddad87",
        "scriptpubkey_asm": "OP_HASH160 OP_PUSHBYTES_20 01e4fb05a0d97eb845b9c1d585961b2c13dfddad OP_EQUAL",
        "scriptpubkey_type": "p2sh",
        "scriptpubkey_address": "31s2uanwVDXWkHxpgzhBMKUcQetchTUFzL",
        "value": 421307
      },
      "scriptsig": "1600146495845bafcd3740c08ccf8ce374e5d91cb57979",
      "scriptsig_asm": "OP_PUSHBYTES_22 00146495845bafcd3740c08ccf8ce374e5d91cb57979",
      "witness": [
        "3045022100baeb3eb07b86876020fd59b426c80180039f3aa257be4f7fcb5aeab34118be3f02206157f2cb57b6d6357cb7fac2a4ba802bb0d0561c9f52f4122726515a28a9bff601",
        "038feb2d14fb14ad5a64027c1f85e1b8436f642cb6af2b8479e586fefc852c72b3"
      ],
      "is_coinbase": false,
      "sequence": 4294967285,
      "inner_redeemscript_asm": "OP_0 OP_PUSHBYTES_20 6495845bafcd3740c08ccf8ce374e5d91cb57979"
    },
    {
      "txid": "081a4a6f808e8a6e95493aef34d86d683dff6f48657993b2afd16c5821ce739f",
      "vout": 0,
      "prevout": {
        "scriptpubkey": "a91401e4fb05a0d97eb845b9c1d585961b2c13dfddad87",
        "scriptpubkey_asm": "OP_HASH160 OP_PUSHBYTES_20 01e4fb05a0d97eb845b9c1d585961b2c13dfddad OP_EQUAL",
        "scriptpubkey_type": "p2sh",
        "scriptpubkey_address": "31s2uanwVDXWkHxpgzhBMKUcQetchTUFzL",
        "value": 1668338
      },
      "scriptsig": "1600146495845bafcd3740c08ccf8ce374e5d91cb57979",
      "scriptsig_asm": "OP_PUSHBYTES_22 00146495845bafcd3740c08ccf8ce374e5d91cb57979",
      "witness": [
        "304402206fa38b1c3528763c05f032e47787b11f2b1f56634582e9c84520e95a59463b6d02205da62551acbfcd8c18429132447cd3565572087b2606cb8e6ea9a7e75098684701",
        "038feb2d14fb14ad5a64027c1f85e1b8436f642cb6af2b8479e586fefc852c72b3"
      ],
      "is_coinbase": false,
      "sequence": 4294967285,
      "inner_redeemscript_asm": "OP_0 OP_PUSHBYTES_20 6495845bafcd3740c08ccf8ce374e5d91cb57979"
    }
  ],
  "vout": [
    {
      "scriptpubkey": "76a9148b3e675e055145864908283ce91fc6d25ab2ca3388ac",
      "scriptpubkey_asm": "OP_DUP OP_HASH160 OP_PUSHBYTES_20 8b3e675e055145864908283ce91fc6d25ab2ca33 OP_EQUALVERIFY OP_CHECKSIG",
      "scriptpubkey_type": "p2pkh",
      "scriptpubkey_address": "1DhFgZBuCrNNmbMxSwHSXWDYVihUvxNZLF",
      "value": 507644
    },
    {
      "scriptpubkey": "a91401e4fb05a0d97eb845b9c1d585961b2c13dfddad87",
      "scriptpubkey_asm": "OP_HASH160 OP_PUSHBYTES_20 01e4fb05a0d97eb845b9c1d585961b2c13dfddad OP_EQUAL",
      "scriptpubkey_type": "p2sh",
      "scriptpubkey_address": "31s2uanwVDXWkHxpgzhBMKUcQetchTUFzL",
      "value": 1575701
    }
  ],
  "size": 421,
  "weight": 1033,
  "fee": 6300,
  "status": {
    "confirmed": true,
    "block_height": 834638,
    "block_hash": "000000000000000000025f742c626208ac87e0b7d15054abb4a19ca2d735a54e",
    "block_time": 1710405325
  },
  "hex": "01000000000102364338772c28a180530b4c0b3be7da5eee7e5cd92bc55bf242feddd3d2f3dc8f02000000171600146495845bafcd3740c08ccf8ce374e5d91cb57979f5ffffff9f73ce21586cd1afb2937965486fff3d686dd834ef3a49956e8a8e806f4a1a0800000000171600146495845bafcd3740c08ccf8ce374e5d91cb57979f5ffffff02fcbe0700000000001976a9148b3e675e055145864908283ce91fc6d25ab2ca3388ac150b18000000000017a91401e4fb05a0d97eb845b9c1d585961b2c13dfddad8702483045022100baeb3eb07b86876020fd59b426c80180039f3aa257be4f7fcb5aeab34118be3f02206157f2cb57b6d6357cb7fac2a4ba802bb0d0561c9f52f4122726515a28a9bff60121038feb2d14fb14ad5a64027c1f85e1b8436f642cb6af2b8479e586fefc852c72b30247304402206fa38b1c3528763c05f032e47787b11f2b1f56634582e9c84520e95a59463b6d02205da62551acbfcd8c18429132447cd3565572087b2606cb8e6ea9a7e7509868470121038feb2d14fb14ad5a64027c1f85e1b8436f642cb6af2b8479e586fefc852c72b300000000"
}